{
  "_format": "hh-sol-artifact-1",
  "contractName": "Marketplace",
  "sourceName": "contracts/Marketplace.sol",
  "abi": [
    {
      "inputs": [
        {
          "internalType": "address",
          "name": "_paymentTokenAddress",
          "type": "address"
        }
      ],
      "stateMutability": "nonpayable",
      "type": "constructor"
    },
    {
      "anonymous": false,
      "inputs": [
        {
          "indexed": true,
          "internalType": "address",
          "name": "previousOwner",
          "type": "address"
        },
        {
          "indexed": true,
          "internalType": "address",
          "name": "newOwner",
          "type": "address"
        }
      ],
      "name": "OwnershipTransferred",
      "type": "event"
    },
    {
      "anonymous": false,
      "inputs": [
        {
          "indexed": true,
          "internalType": "address",
          "name": "contractAddress",
          "type": "address"
        },
        {
          "indexed": true,
          "internalType": "address",
          "name": "recipient",
          "type": "address"
        },
        {
          "indexed": false,
          "internalType": "uint256",
          "name": "feeFraction",
          "type": "uint256"
        }
      ],
      "name": "SetRoyalty",
      "type": "event"
    },
    {
      "anonymous": false,
      "inputs": [
        {
          "indexed": true,
          "internalType": "address",
          "name": "contractAddress",
          "type": "address"
        },
        {
          "indexed": true,
          "internalType": "uint256",
          "name": "tokenId",
          "type": "uint256"
        },
        {
          "indexed": true,
          "internalType": "address",
          "name": "seller",
          "type": "address"
        },
        {
          "components": [
            {
              "internalType": "uint256",
              "name": "tokenId",
              "type": "uint256"
            },
            {
              "internalType": "uint256",
              "name": "value",
              "type": "uint256"
            },
            {
              "internalType": "address",
              "name": "bidder",
              "type": "address"
            },
            {
              "internalType": "uint256",
              "name": "nftCount",
              "type": "uint256"
            },
            {
              "internalType": "uint256",
              "name": "tokenType",
              "type": "uint256"
            },
            {
              "internalType": "uint256",
              "name": "expireTimestamp",
              "type": "uint256"
            }
          ],
          "indexed": false,
          "internalType": "struct IMarketplace.Bid",
          "name": "bid",
          "type": "tuple"
        },
        {
          "indexed": false,
          "internalType": "uint256",
          "name": "serviceFee",
          "type": "uint256"
        },
        {
          "indexed": false,
          "internalType": "uint256",
          "name": "royaltyFee",
          "type": "uint256"
        }
      ],
      "name": "TokenBidAccepted",
      "type": "event"
    },
    {
      "anonymous": false,
      "inputs": [
        {
          "indexed": true,
          "internalType": "address",
          "name": "contractAddress",
          "type": "address"
        },
        {
          "indexed": true,
          "internalType": "uint256",
          "name": "tokenId",
          "type": "uint256"
        },
        {
          "components": [
            {
              "internalType": "uint256",
              "name": "tokenId",
              "type": "uint256"
            },
            {
              "internalType": "uint256",
              "name": "value",
              "type": "uint256"
            },
            {
              "internalType": "address",
              "name": "bidder",
              "type": "address"
            },
            {
              "internalType": "uint256",
              "name": "nftCount",
              "type": "uint256"
            },
            {
              "internalType": "uint256",
              "name": "tokenType",
              "type": "uint256"
            },
            {
              "internalType": "uint256",
              "name": "expireTimestamp",
              "type": "uint256"
            }
          ],
          "indexed": false,
          "internalType": "struct IMarketplace.Bid",
          "name": "bid",
          "type": "tuple"
        }
      ],
      "name": "TokenBidEntered",
      "type": "event"
    },
    {
      "anonymous": false,
      "inputs": [
        {
          "indexed": true,
          "internalType": "address",
          "name": "contractAddress",
          "type": "address"
        },
        {
          "indexed": true,
          "internalType": "uint256",
          "name": "tokenId",
          "type": "uint256"
        },
        {
          "components": [
            {
              "internalType": "uint256",
              "name": "tokenId",
              "type": "uint256"
            },
            {
              "internalType": "uint256",
              "name": "value",
              "type": "uint256"
            },
            {
              "internalType": "address",
              "name": "bidder",
              "type": "address"
            },
            {
              "internalType": "uint256",
              "name": "nftCount",
              "type": "uint256"
            },
            {
              "internalType": "uint256",
              "name": "tokenType",
              "type": "uint256"
            },
            {
              "internalType": "uint256",
              "name": "expireTimestamp",
              "type": "uint256"
            }
          ],
          "indexed": false,
          "internalType": "struct IMarketplace.Bid",
          "name": "bid",
          "type": "tuple"
        }
      ],
      "name": "TokenBidWithdrawn",
      "type": "event"
    },
    {
      "anonymous": false,
      "inputs": [
        {
          "indexed": true,
          "internalType": "address",
          "name": "contractAddress",
          "type": "address"
        },
        {
          "indexed": true,
          "internalType": "uint256",
          "name": "tokenId",
          "type": "uint256"
        },
        {
          "indexed": true,
          "internalType": "address",
          "name": "buyer",
          "type": "address"
        },
        {
          "components": [
            {
              "internalType": "uint256",
              "name": "tokenId",
              "type": "uint256"
            },
            {
              "internalType": "uint256",
              "name": "value",
              "type": "uint256"
            },
            {
              "internalType": "address",
              "name": "seller",
              "type": "address"
            },
            {
              "internalType": "uint256",
              "name": "nftCount",
              "type": "uint256"
            },
            {
              "internalType": "uint256",
              "name": "tokenType",
              "type": "uint256"
            },
            {
              "internalType": "uint256",
              "name": "expireTimestamp",
              "type": "uint256"
            }
          ],
          "indexed": false,
          "internalType": "struct IMarketplace.Listing",
          "name": "listing",
          "type": "tuple"
        },
        {
          "indexed": false,
          "internalType": "uint256",
          "name": "serviceFee",
          "type": "uint256"
        },
        {
          "indexed": false,
          "internalType": "uint256",
          "name": "royaltyFee",
          "type": "uint256"
        }
      ],
      "name": "TokenBought",
      "type": "event"
    },
    {
      "anonymous": false,
      "inputs": [
        {
          "indexed": true,
          "internalType": "address",
          "name": "contractAddress",
          "type": "address"
        },
        {
          "indexed": true,
          "internalType": "uint256",
          "name": "tokenId",
          "type": "uint256"
        },
        {
          "components": [
            {
              "internalType": "uint256",
              "name": "tokenId",
              "type": "uint256"
            },
            {
              "internalType": "uint256",
              "name": "value",
              "type": "uint256"
            },
            {
              "internalType": "address",
              "name": "seller",
              "type": "address"
            },
            {
              "internalType": "uint256",
              "name": "nftCount",
              "type": "uint256"
            },
            {
              "internalType": "uint256",
              "name": "tokenType",
              "type": "uint256"
            },
            {
              "internalType": "uint256",
              "name": "expireTimestamp",
              "type": "uint256"
            }
          ],
          "indexed": false,
          "internalType": "struct IMarketplace.Listing",
          "name": "listing",
          "type": "tuple"
        }
      ],
      "name": "TokenDelisted",
      "type": "event"
    },
    {
      "anonymous": false,
      "inputs": [
        {
          "indexed": true,
          "internalType": "address",
          "name": "contractAddress",
          "type": "address"
        },
        {
          "indexed": true,
          "internalType": "uint256",
          "name": "tokenId",
          "type": "uint256"
        },
        {
          "components": [
            {
              "internalType": "uint256",
              "name": "tokenId",
              "type": "uint256"
            },
            {
              "internalType": "uint256",
              "name": "value",
              "type": "uint256"
            },
            {
              "internalType": "address",
              "name": "seller",
              "type": "address"
            },
            {
              "internalType": "uint256",
              "name": "nftCount",
              "type": "uint256"
            },
            {
              "internalType": "uint256",
              "name": "tokenType",
              "type": "uint256"
            },
            {
              "internalType": "uint256",
              "name": "expireTimestamp",
              "type": "uint256"
            }
          ],
          "indexed": false,
          "internalType": "struct IMarketplace.Listing",
          "name": "listing",
          "type": "tuple"
        }
      ],
      "name": "TokenListed",
      "type": "event"
    },
    {
      "inputs": [
        {
          "internalType": "address",
          "name": "contractAddress",
          "type": "address"
        },
        {
          "internalType": "uint256",
          "name": "tokenId",
          "type": "uint256"
        },
        {
          "internalType": "address",
          "name": "bidder",
          "type": "address"
        },
        {
          "internalType": "uint256",
          "name": "tokenType",
          "type": "uint256"
        },
        {
          "internalType": "uint256",
          "name": "nftAmount",
          "type": "uint256"
        },
        {
          "internalType": "uint256",
          "name": "paymentTokenType",
          "type": "uint256"
        },
        {
          "internalType": "uint256",
          "name": "value",
          "type": "uint256"
        }
      ],
      "name": "acceptBidForToken",
      "outputs": [],
      "stateMutability": "payable",
      "type": "function"
    },
    {
      "inputs": [],
      "name": "actionTimeOutRangeMax",
      "outputs": [
        {
          "internalType": "uint256",
          "name": "",
          "type": "uint256"
        }
      ],
      "stateMutability": "view",
      "type": "function"
    },
    {
      "inputs": [],
      "name": "actionTimeOutRangeMin",
      "outputs": [
        {
          "internalType": "uint256",
          "name": "",
          "type": "uint256"
        }
      ],
      "stateMutability": "view",
      "type": "function"
    },
    {
      "inputs": [
        {
          "internalType": "address",
          "name": "contractAddress",
          "type": "address"
        },
        {
          "internalType": "uint256",
          "name": "tokenId",
          "type": "uint256"
        },
        {
          "internalType": "uint256",
          "name": "tokenAmount",
          "type": "uint256"
        },
        {
          "internalType": "uint256",
          "name": "tokenType",
          "type": "uint256"
        },
        {
          "internalType": "uint256",
          "name": "paymentTokenType",
          "type": "uint256"
        }
      ],
      "name": "buyToken",
      "outputs": [],
      "stateMutability": "payable",
      "type": "function"
    },
    {
      "inputs": [
        {
          "internalType": "bool",
          "name": "enabled",
          "type": "bool"
        }
      ],
      "name": "changeMarketplaceStatus",
      "outputs": [],
      "stateMutability": "nonpayable",
      "type": "function"
    },
    {
      "inputs": [
        {
          "internalType": "uint256",
          "name": "timeInSec",
          "type": "uint256"
        }
      ],
      "name": "changeMaxActionTimeLimit",
      "outputs": [],
      "stateMutability": "nonpayable",
      "type": "function"
    },
    {
      "inputs": [
        {
          "internalType": "uint256",
          "name": "timeInSec",
          "type": "uint256"
        }
      ],
      "name": "changeMinActionTimeLimit",
      "outputs": [],
      "stateMutability": "nonpayable",
      "type": "function"
    },
    {
      "inputs": [
        {
          "internalType": "uint8",
          "name": "serviceFeeFraction_",
          "type": "uint8"
        }
      ],
      "name": "changeSeriveFee",
      "outputs": [],
      "stateMutability": "nonpayable",
      "type": "function"
    },
    {
      "inputs": [],
      "name": "defaultRoyaltyFraction",
      "outputs": [
        {
          "internalType": "uint256",
          "name": "",
          "type": "uint256"
        }
      ],
      "stateMutability": "view",
      "type": "function"
    },
    {
      "inputs": [
        {
          "internalType": "address",
          "name": "contractAddress",
          "type": "address"
        },
        {
          "internalType": "uint256",
          "name": "tokenId",
          "type": "uint256"
        }
      ],
      "name": "delistToken",
      "outputs": [],
      "stateMutability": "nonpayable",
      "type": "function"
    },
    {
      "inputs": [
        {
          "internalType": "address",
          "name": "contractAddress",
          "type": "address"
        },
        {
          "internalType": "uint256",
          "name": "tokenId",
          "type": "uint256"
        },
        {
          "internalType": "uint256",
          "name": "value",
          "type": "uint256"
        },
        {
          "internalType": "uint256",
          "name": "expireTimestamp",
          "type": "uint256"
        },
        {
          "internalType": "uint256",
          "name": "nftCount",
          "type": "uint256"
        },
        {
          "internalType": "uint256",
          "name": "tokenType",
          "type": "uint256"
        }
      ],
      "name": "enterBidForToken",
      "outputs": [],
      "stateMutability": "nonpayable",
      "type": "function"
    },
    {
      "inputs": [
        {
          "internalType": "address",
          "name": "contractAddress",
          "type": "address"
        },
        {
          "internalType": "uint256",
          "name": "tokenId",
          "type": "uint256"
        },
        {
          "internalType": "address",
          "name": "bidder",
          "type": "address"
        }
      ],
      "name": "getBidderTokenBid",
      "outputs": [
        {
          "components": [
            {
              "internalType": "uint256",
              "name": "tokenId",
              "type": "uint256"
            },
            {
              "internalType": "uint256",
              "name": "value",
              "type": "uint256"
            },
            {
              "internalType": "address",
              "name": "bidder",
              "type": "address"
            },
            {
              "internalType": "uint256",
              "name": "nftCount",
              "type": "uint256"
            },
            {
              "internalType": "uint256",
              "name": "tokenType",
              "type": "uint256"
            },
            {
              "internalType": "uint256",
              "name": "expireTimestamp",
              "type": "uint256"
            }
          ],
          "internalType": "struct IMarketplace.Bid",
          "name": "validBid",
          "type": "tuple"
        }
      ],
      "stateMutability": "view",
      "type": "function"
    },
    {
      "inputs": [
        {
          "internalType": "address",
          "name": "contractAddress",
          "type": "address"
        },
        {
          "internalType": "uint256",
          "name": "tokenId",
          "type": "uint256"
        }
      ],
      "name": "getTokenBids",
      "outputs": [
        {
          "components": [
            {
              "internalType": "uint256",
              "name": "tokenId",
              "type": "uint256"
            },
            {
              "internalType": "uint256",
              "name": "value",
              "type": "uint256"
            },
            {
              "internalType": "address",
              "name": "bidder",
              "type": "address"
            },
            {
              "internalType": "uint256",
              "name": "nftCount",
              "type": "uint256"
            },
            {
              "internalType": "uint256",
              "name": "tokenType",
              "type": "uint256"
            },
            {
              "internalType": "uint256",
              "name": "expireTimestamp",
              "type": "uint256"
            }
          ],
          "internalType": "struct IMarketplace.Bid[]",
          "name": "bids",
          "type": "tuple[]"
        }
      ],
      "stateMutability": "view",
      "type": "function"
    },
    {
      "inputs": [
        {
          "internalType": "uint256",
          "name": "_type",
          "type": "uint256"
        }
      ],
      "name": "getTokensByType",
      "outputs": [
        {
          "internalType": "contract IERC20",
          "name": "_token",
          "type": "address"
        }
      ],
      "stateMutability": "view",
      "type": "function"
    },
    {
      "inputs": [
        {
          "internalType": "address",
          "name": "contractAddress",
          "type": "address"
        },
        {
          "internalType": "uint256",
          "name": "tokenId",
          "type": "uint256"
        },
        {
          "internalType": "uint256",
          "name": "value",
          "type": "uint256"
        },
        {
          "internalType": "uint256",
          "name": "expireTimestamp",
          "type": "uint256"
        },
        {
          "internalType": "uint256",
          "name": "nftAmount",
          "type": "uint256"
        },
        {
          "internalType": "uint8",
          "name": "tokenType",
          "type": "uint8"
        }
      ],
      "name": "listToken",
      "outputs": [],
      "stateMutability": "nonpayable",
      "type": "function"
    },
    {
      "inputs": [],
      "name": "owner",
      "outputs": [
        {
          "internalType": "address",
          "name": "",
          "type": "address"
        }
      ],
      "stateMutability": "view",
      "type": "function"
    },
    {
      "inputs": [],
      "name": "paymentToken",
      "outputs": [
        {
          "internalType": "address",
          "name": "",
          "type": "address"
        }
      ],
      "stateMutability": "view",
      "type": "function"
    },
    {
      "inputs": [],
      "name": "renounceOwnership",
      "outputs": [],
      "stateMutability": "nonpayable",
      "type": "function"
    },
    {
      "inputs": [
        {
          "internalType": "address",
          "name": "contractAddress",
          "type": "address"
        }
      ],
      "name": "royalty",
      "outputs": [
        {
          "components": [
            {
              "internalType": "address",
              "name": "recipient",
              "type": "address"
            },
            {
              "internalType": "uint256",
              "name": "feeFraction",
              "type": "uint256"
            },
            {
              "internalType": "address",
              "name": "setBy",
              "type": "address"
            }
          ],
          "internalType": "struct IRoyalty.ERC721CollectionRoyalty",
          "name": "",
          "type": "tuple"
        }
      ],
      "stateMutability": "view",
      "type": "function"
    },
    {
      "inputs": [],
      "name": "royaltyUpperLimit",
      "outputs": [
        {
          "internalType": "uint256",
          "name": "",
          "type": "uint256"
        }
      ],
      "stateMutability": "view",
      "type": "function"
    },
    {
      "inputs": [],
      "name": "serviceFee",
      "outputs": [
        {
          "internalType": "uint8",
          "name": "",
          "type": "uint8"
        }
      ],
      "stateMutability": "view",
      "type": "function"
    },
    {
      "inputs": [
        {
          "internalType": "address",
          "name": "contractAddress",
          "type": "address"
        },
        {
          "internalType": "address",
          "name": "newRecipient",
          "type": "address"
        },
        {
          "internalType": "uint256",
          "name": "feeFraction",
          "type": "uint256"
        }
      ],
      "name": "setRoyalty",
      "outputs": [],
      "stateMutability": "nonpayable",
      "type": "function"
    },
    {
      "inputs": [
        {
          "internalType": "address",
          "name": "contractAddress",
          "type": "address"
        },
        {
          "internalType": "address",
          "name": "newRecipient",
          "type": "address"
        },
        {
          "internalType": "uint256",
          "name": "feeFraction",
          "type": "uint256"
        }
      ],
      "name": "setRoyaltyForCollection",
      "outputs": [],
      "stateMutability": "nonpayable",
      "type": "function"
    },
    {
      "inputs": [
        {
          "internalType": "address",
          "name": "newOwner",
          "type": "address"
        }
      ],
      "name": "transferOwnership",
      "outputs": [],
      "stateMutability": "nonpayable",
      "type": "function"
    },
    {
      "inputs": [
        {
          "internalType": "uint256",
          "name": "_newUpperLimit",
          "type": "uint256"
        }
      ],
      "name": "updateRoyaltyUpperLimit",
      "outputs": [],
      "stateMutability": "nonpayable",
      "type": "function"
    },
    {
      "inputs": [
        {
          "internalType": "address",
          "name": "contractAddress",
          "type": "address"
        },
        {
          "internalType": "uint256",
          "name": "tokenId",
          "type": "uint256"
        }
      ],
      "name": "withdrawBidForToken",
      "outputs": [],
      "stateMutability": "nonpayable",
      "type": "function"
    }
  ],
  "bytecode": "0x60a0604052601460015560506002556005805461ffff19166114011790556107086006556301e133806007553480156200003857600080fd5b506040516200334b3803806200334b8339810160408190526200005b91620000cd565b62000066336200007d565b60016004556001600160a01b0316608052620000ff565b600080546001600160a01b038381166001600160a01b0319831681178455604051919092169283917f8be0079c531659141344cd1fd0a4f28419497f9722a3daafe3b4186f6b6457e09190a35050565b600060208284031215620000e057600080fd5b81516001600160a01b0381168114620000f857600080fd5b9392505050565b6080516131ea620001616000396000818161021701528181610bd601528181610c2201528181610c7a01528181611106015281816115da015281816116580152818161170a015281816117ef01528181611df70152611e9401526131ea6000f3fe6080604052600436106101815760003560e01c8063715018a6116100d1578063a3c0b5f01161008a578063ee8ef34d11610064578063ee8ef34d1461048b578063f2fde38b146104a1578063f8ad6f62146104c1578063feb88406146104e157600080fd5b8063a3c0b5f01461042b578063b6be53ba1461044b578063cdea490d1461046b57600080fd5b8063715018a61461033e5780637a4e5cd214610353578063861b69d6146103665780638abdf5aa146103b65780638da5cb5b146103e057806390bc4e37146103fe57600080fd5b8063453dfc501161013e5780635dc28a72116101185780635dc28a72146102bb5780636151e62e146102db57806366c1e8bf146102fb5780636d0042b81461032857600080fd5b8063453dfc5014610273578063528019651461028857806355c338aa1461029b57600080fd5b8063028afc33146101865780630609d095146101a857806319d334cb146101c85780632426fc24146101e85780633013ce291461020857806333549d3d14610254575b600080fd5b34801561019257600080fd5b506101a66101a1366004612afc565b610501565b005b3480156101b457600080fd5b506101a66101c3366004612b48565b61074c565b3480156101d457600080fd5b506101a66101e3366004612b74565b61087b565b3480156101f457600080fd5b506101a6610203366004612bb5565b6109c3565b34801561021457600080fd5b507f00000000000000000000000000000000000000000000000000000000000000005b6040516001600160a01b0390911681526020015b60405180910390f35b34801561026057600080fd5b506006545b60405190815260200161024b565b34801561027f57600080fd5b50600754610265565b6101a6610296366004612bce565b6109d0565b3480156102a757600080fd5b506101a66102b6366004612b74565b610dfc565b3480156102c757600080fd5b506101a66102d6366004612c44565b610ea5565b3480156102e757600080fd5b506102376102f6366004612bb5565b61109d565b34801561030757600080fd5b5061031b610316366004612b48565b61112f565b60405161024b9190612cde565b34801561033457600080fd5b5061026560015481565b34801561034a57600080fd5b506101a66112ba565b6101a6610361366004612d2c565b6112ce565b34801561037257600080fd5b50610386610381366004612d70565b6119c8565b6040805182516001600160a01b03908116825260208085015190830152928201519092169082015260600161024b565b3480156103c257600080fd5b50600554610100900460ff1660405160ff909116815260200161024b565b3480156103ec57600080fd5b506000546001600160a01b0316610237565b34801561040a57600080fd5b5061041e610419366004612d8d565b611ab9565b60405161024b9190612dcf565b34801561043757600080fd5b506101a6610446366004612bb5565b611b54565b34801561045757600080fd5b506101a6610466366004612deb565b611b61565b34801561047757600080fd5b506101a6610486366004612bb5565b611b7c565b34801561049757600080fd5b5061026560025481565b3480156104ad57600080fd5b506101a66104bc366004612d70565b611b89565b3480156104cd57600080fd5b506101a66104dc366004612e08565b611c02565b3480156104ed57600080fd5b506101a66104fc366004612b48565b611c8e565b60055460ff166105585760405162461bcd60e51b815260206004820152601f60248201527f4c697374696e6720616e642062696420617265206e6f7420656e61626c65640060448201526064015b60405180910390fd5b60065483906105674283612e39565b10156105855760405162461bcd60e51b815260040161054f90612e4c565b6007546105924283612e39565b11156105b05760405162461bcd60e51b815260040161054f90612e90565b60006040518060c00160405280888152602001878152602001336001600160a01b031681526020018581526020018481526020018681525090506105f48882611dc4565b6106335760405162461bcd60e51b815260206004820152601060248201526f109a59081a5cc81b9bdd081d985b1a5960821b604482015260640161054f565b6001600160a01b03881660009081526008602052604090206106589060030188611f32565b506001600160a01b03881660009081526008602090815260408083208a845260050190915290206106899033611f45565b506001600160a01b0388811660008181526008602090815260408083208c8452600590810183528184203385526002908101845293829020875181559287015160018401558682015193830180546001600160a01b0319169490961693909317909455606085015160038201556080850151600482015560a085015191015590518891907f08d763dac6a60dcc1fe97393bbae6d0623e37b718f864e71205f4be5a18698cb9061073a908590612dcf565b60405180910390a35050505050505050565b6001600160a01b03808316600090815260086020908152604080832085845260059081018352818420338086526002918201855294839020835160c08101855281548152600182015495810195909552908101549095169183018290526003850154606084015260048501546080840152939093015460a082015291146108295760405162461bcd60e51b815260206004820152602b60248201527f54686973206164647265737320646f65736e2774206861766520626964206f6e60448201526a103a3434b9903a37b5b2b760a91b606482015260840161054f565b81836001600160a01b03167ff41be1471915cc192b562c19613dca9014ddf026228bdcf3b7942c753542d2e2836040516108639190612dcf565b60405180910390a3610876838333611f5a565b505050565b610883612067565b6002548111156108a55760405162461bcd60e51b815260040161054f90612ed5565b60006108b0846119c8565b604001516001600160a01b03161461091b5760405162461bcd60e51b815260206004820152602860248201527f436f6c6c656374696f6e20726f79616c747920726563697069656e7420616c726044820152671958591e481cd95d60c21b606482015260840161054f565b604080516060810182526001600160a01b038085168083526020808401868152338587019081528985166000818152600390945292879020955186549086166001600160a01b03199182161787559151600187015551600290950180549590941694169390931790915591517fb6b61d78ac5372b51940cf3b322ea21839c456cade69acdf1b9fb9a6f79d6ff7906109b69085815260200190565b60405180910390a3505050565b6109cb612067565b600655565b6109d86120c1565b6109e387338661211a565b610a4d5760405162461bcd60e51b815260206004820152603560248201527f54686520746f6b656e206973206e6f7420617070726f76656420746f207472616044820152741b9cd9995c88189e481d1a194818dbdb9d1c9858dd605a1b606482015260840161054f565b6000610a5a888888611ab9565b805190915087148015610a705750818160200151145b8015610a915750856001600160a01b031681604001516001600160a01b0316145b610aec5760405162461bcd60e51b815260206004820152602660248201527f5468697320746f6b656e20646f65736e277420686176652061206d61746368696044820152651b99c8189a5960d21b606482015260840161054f565b6000610af7896119c8565b600001519050600080610b0e8b85602001516121d7565b9150915085600203610ba8578360200151341015610b3e5760405162461bcd60e51b815260040161054f90612f2b565b6040840151610b619082610b528534612e39565b610b5c9190612e39565b61225c565b610b7c610b766000546001600160a01b031690565b8361225c565b6001600160a01b03831615801590610b945750600081115b15610ba357610ba3838261225c565b610de5565b610bfe84604001513383858860200151610bc29190612e39565b610bcc9190612e39565b6001600160a01b037f000000000000000000000000000000000000000000000000000000000000000016929190612375565b610c4a8460400151610c186000546001600160a01b031690565b6001600160a01b037f000000000000000000000000000000000000000000000000000000000000000016919085612375565b6001600160a01b03831615801590610c625750600081115b15610ca2576040840151610ca2906001600160a01b037f000000000000000000000000000000000000000000000000000000000000000016908584612375565b87600103610d14576040808501519051632142170760e11b81526001600160a01b038d16916342842e0e91610cdd9133918f90600401612f6d565b600060405180830381600087803b158015610cf757600080fd5b505af1158015610d0b573d6000803e3d6000fd5b50505050610d7c565b6040808501519051637921219560e11b81526001600160a01b038d169163f242432a91610d499133918f908d90600401612f91565b600060405180830381600087803b158015610d6357600080fd5b505af1158015610d77573d6000803e3d6000fd5b505050505b336001600160a01b03168a8c6001600160a01b03167f64a4cc6660277360cd61c08430762f86d7aaf5a438a0d58b7b82d02e2eb1b7e9878686604051610dc493929190612fd6565b60405180910390a4610dd68b8b6123cd565b610de58b8b8660400151611f5a565b50505050610df36001600455565b50505050505050565b600254811115610e1e5760405162461bcd60e51b815260040161054f90612ed5565b610e27836119c8565b516001600160a01b0316331461091b5760405162461bcd60e51b815260206004820152603760248201527f4f6e6c792045524337323120726f79616c747920726563697069656e7420697360448201527f20616c6c6f77656420746f2073657420526f79616c7479000000000000000000606482015260840161054f565b60055460ff16610ef75760405162461bcd60e51b815260206004820152601f60248201527f4c697374696e6720616e642062696420617265206e6f7420656e61626c656400604482015260640161054f565b6006548390610f064283612e39565b1015610f245760405162461bcd60e51b815260040161054f90612e4c565b600754610f314283612e39565b1115610f4f5760405162461bcd60e51b815260040161054f90612e90565b60006040518060c00160405280888152602001878152602001336001600160a01b031681526020018581526020018460ff16815260200186815250905080600860008a6001600160a01b03166001600160a01b031681526020019081526020016000206002016000898152602001908152602001600020600082015181600001556020820151816001015560408201518160020160006101000a8154816001600160a01b0302191690836001600160a01b03160217905550606082015181600301556080820151816004015560a0820151816005015590505061106287600860008b6001600160a01b03166001600160a01b03168152602001908152602001600020600001611f3290919063ffffffff16565b5086886001600160a01b03167fb2b0f1ec5cfcef29ee85821296b3a908b186c398343c1da82d2288c43d801d9f8360405161073a9190612dcf565b6000816002036110fb5760405162461bcd60e51b8152602060048201526024808201527f74797065203220697320666f722044656661756c7420706c6174666f726d205460448201526337b5b2b760e11b606482015260840161054f565b8160010361112a57507f0000000000000000000000000000000000000000000000000000000000000000919050565b919050565b6001600160a01b03821660009081526008602090815260408083208484526005019091528120606091906111629061245d565b90508067ffffffffffffffff81111561117d5761117d612ff6565b6040519080825280602002602001820160405280156111b657816020015b6111a3612aa8565b81526020019060019003908161119b5790505b50915060005b818110156112b2576001600160a01b038516600090815260086020908152604080832087845260050190915281206111f49083612467565b6001600160a01b0380881660009081526008602090815260408083208a84526005908101835281842085871685526002908101845293829020825160c081018452815481526001820154948101949094529384015490941690820152600382015460608201526004820154608082015291015460a08201529091506112798782611dc4565b1561129d57808584815181106112915761129161300c565b60200260200101819052505b505080806112aa90613022565b9150506111bc565b505092915050565b6112c2612067565b6112cc6000612473565b565b6112d66120c1565b6001600160a01b0380861660009081526008602090815260408083208884526002908101835292819020815160c08101835281548152600182015493810193909352928301549093169281019290925260038101546060830152600481015460808301526005015460a082015261134d86826124c3565b6113915760405162461bcd60e51b8152602060048201526015602482015274546f6b656e206973206e6f7420666f722073616c6560581b604482015260640161054f565b6000806113a28884602001516121d7565b915091508360020361157b5782602001513410156113d25760405162461bcd60e51b815260040161054f90612f2b565b60408301516113e69082610b528534612e39565b6113fb610b766000546001600160a01b031690565b6000611406896119c8565b5190506001600160a01b038116158015906114215750600082115b1561143057611430818361225c565b336001600160a01b0316888a6001600160a01b03167fb7d014c56c56a5dc44dc51f228368ee105a714dc6d74ae5af0d7613a35b2aa8e87878760405161147893929190612fd6565b60405180910390a4856001036114f3576040808501519051632142170760e11b81526001600160a01b038b16916342842e0e916114bc919033908d90600401612f6d565b600060405180830381600087803b1580156114d657600080fd5b505af11580156114ea573d6000803e3d6000fd5b50505050611560565b886001600160a01b031663f242432a8560400151338b88606001516040518563ffffffff1660e01b815260040161152d9493929190612f91565b600060405180830381600087803b15801561154757600080fd5b505af115801561155b573d6000803e3d6000fd5b505050505b61156a89896123cd565b611575898933611f5a565b506119b4565b6115be6040518060400160405280601e81526020017f4c697374696e672056616c7565203d3d3d3d3d3d3d3d3d3d3d3d3d3d3d3e000081525084602001516124f7565b60208301516040516323b872dd60e01b81526001600160a01b037f000000000000000000000000000000000000000000000000000000000000000016916323b872dd91611612913391309190600401612f6d565b6020604051808303816000875af1158015611631573d6000803e3d6000fd5b505050506040513d601f19601f82011682018060405250810190611655919061303b565b507f00000000000000000000000000000000000000000000000000000000000000006001600160a01b03166323b872dd3085604001518486886020015161169c9190612e39565b6116a69190612e39565b6040518463ffffffff1660e01b81526004016116c493929190612f6d565b6020604051808303816000875af11580156116e3573d6000803e3d6000fd5b505050506040513d601f19601f82011682018060405250810190611707919061303b565b507f00000000000000000000000000000000000000000000000000000000000000006001600160a01b03166323b872dd3061174a6000546001600160a01b031690565b856040518463ffffffff1660e01b815260040161176993929190612f6d565b6020604051808303816000875af1158015611788573d6000803e3d6000fd5b505050506040513d601f19601f820116820180604052508101906117ac919061303b565b5060006117b8896119c8565b5190506001600160a01b038116158015906117d35750600082115b1561186d576040516323b872dd60e01b81526001600160a01b037f000000000000000000000000000000000000000000000000000000000000000016906323b872dd9061182890309085908790600401612f6d565b6020604051808303816000875af1158015611847573d6000803e3d6000fd5b505050506040513d601f19601f8201168201806040525081019061186b919061303b565b505b336001600160a01b0316888a6001600160a01b03167fb7d014c56c56a5dc44dc51f228368ee105a714dc6d74ae5af0d7613a35b2aa8e8787876040516118b593929190612fd6565b60405180910390a485600103611930576040808501519051632142170760e11b81526001600160a01b038b16916342842e0e916118f9919033908d90600401612f6d565b600060405180830381600087803b15801561191357600080fd5b505af1158015611927573d6000803e3d6000fd5b5050505061199d565b886001600160a01b031663f242432a8560400151338b88606001516040518563ffffffff1660e01b815260040161196a9493929190612f91565b600060405180830381600087803b15801561198457600080fd5b505af1158015611998573d6000803e3d6000fd5b505050505b6119a789896123cd565b6119b2898933611f5a565b505b5050506119c16001600455565b5050505050565b60408051606081018252600080825260208201819052918101919091526001600160a01b038281166000908152600360205260409020600201541615611a4e57506001600160a01b039081166000908152600360209081526040918290208251606081018452815485168152600182015492810192909252600201549092169082015290565b6000611a598361253c565b90506001600160a01b03811615611a9557604080516060810182526001600160a01b039092168252600154602083015260009082015292915050565b50506040805160608101825260008082526020820181905291810191909152919050565b611ac1612aa8565b6001600160a01b0380851660009081526008602090815260408083208784526005908101835281842087861685526002908101845293829020825160c081018452815481526001820154948101949094529384015490941690820152600382015460608201526004820154608082015291015460a0820152611b438582611dc4565b15611b4c578091505b509392505050565b611b5c612067565b600755565b611b69612067565b6005805460ff1916911515919091179055565b611b84612067565b600255565b611b91612067565b6001600160a01b038116611bf65760405162461bcd60e51b815260206004820152602660248201527f4f776e61626c653a206e6577206f776e657220697320746865207a65726f206160448201526564647265737360d01b606482015260840161054f565b611bff81612473565b50565b611c0a612067565b60198160ff161115611c725760405162461bcd60e51b815260206004820152602b60248201527f417474656d707420746f207365742070657263656e746167652068696768657260448201526a103a3430b71019171a929760a91b606482015260840161054f565b6005805460ff9092166101000261ff0019909216919091179055565b6001600160a01b03828116600090815260086020908152604080832085845260029081019092529091200154163314611d145760405162461bcd60e51b815260206004820152602260248201527f4f6e6c7920746f6b656e2073656c6c65722063616e2064656c69737420746f6b60448201526132b760f11b606482015260840161054f565b6001600160a01b03821660008181526008602090815260408083208584526002019091529081902090518392917f816eddcd06fe0e27a14975f0fa6ca175ea858df3a8f4b0a9aff734da679d3b4a91611dae9190815481526001820154602082015260028201546001600160a01b03166040820152600382015460608201526004820154608082015260059091015460a082015260c00190565b60405180910390a3611dc082826123cd565b5050565b60208101516040808301519051636eb1769f60e11b81526001600160a01b039182166004820152306024820152600092917f0000000000000000000000000000000000000000000000000000000000000000169063dd62ed3e90604401602060405180830381865afa158015611e3e573d6000803e3d6000fd5b505050506040513d601f19601f82011682018060405250810190611e629190613058565b10158015611f045750602082015160408084015190516370a0823160e01b81526001600160a01b0391821660048201527f0000000000000000000000000000000000000000000000000000000000000000909116906370a0823190602401602060405180830381865afa158015611edd573d6000803e3d6000fd5b505050506040513d601f19601f82011682018060405250810190611f019190613058565b10155b8015611f14575060008260200151115b8015611f235750428260a00151115b15611f2c575060015b92915050565b6000611f3e83836125a4565b9392505050565b6000611f3e836001600160a01b0384166125a4565b6001600160a01b03831660009081526008602090815260408083208584526005019091529020611f8a90826125f3565b15610876576001600160a01b03808416600090815260086020908152604080832086845260059081018084528285209587168552600280870185529285208581556001810186905592830180546001600160a01b03191690556003830185905560048301859055910183905591859052526120059082612615565b506001600160a01b038316600090815260086020908152604080832085845260050190915290206120359061245d565b600003610876576001600160a01b0383166000908152600860205260409020612061906003018361262a565b50505050565b6000546001600160a01b031633146112cc5760405162461bcd60e51b815260206004820181905260248201527f4f776e61626c653a2063616c6c6572206973206e6f7420746865206f776e6572604482015260640161054f565b6002600454036121135760405162461bcd60e51b815260206004820152601f60248201527f5265656e7472616e637947756172643a207265656e7472616e742063616c6c00604482015260640161054f565b6002600455565b6000816001036121a05760405163e985e9c560e01b81526001600160a01b03848116600483015230602483015285919082169063e985e9c5906044015b602060405180830381865afa158015612174573d6000803e3d6000fd5b505050506040513d601f19601f82011682018060405250810190612198919061303b565b915050611f3e565b60405163e985e9c560e01b81526001600160a01b03848116600483015230602483015285919082169063e985e9c590604401612157565b60008060006121e5856119c8565b60200151600554909150600090829061220890610100900460ff166103e8613071565b61ffff16612216919061308c565b600554909150819061223090610100900460ff168761309f565b61223a91906130be565b935080612247838761309f565b61225191906130be565b925050509250929050565b804710156122ac5760405162461bcd60e51b815260206004820152601d60248201527f416464726573733a20696e73756666696369656e742062616c616e6365000000604482015260640161054f565b6000826001600160a01b03168260405160006040518083038185875af1925050503d80600081146122f9576040519150601f19603f3d011682016040523d82523d6000602084013e6122fe565b606091505b50509050806108765760405162461bcd60e51b815260206004820152603a60248201527f416464726573733a20756e61626c6520746f2073656e642076616c75652c207260448201527f6563697069656e74206d61792068617665207265766572746564000000000000606482015260840161054f565b612061846323b872dd60e01b85858560405160240161239693929190612f6d565b60408051601f198184030181529190526020810180516001600160e01b03166001600160e01b031990931692909217909152612636565b6001600160a01b03821660009081526008602052604090206123ef9082612708565b15611dc0576001600160a01b0382166000818152600860208181526040808420868552600280820184529185208581556001810186905591820180546001600160a01b031916905560038201859055600482018590556005909101849055939092529052610876908261262a565b6000611f2c825490565b6000611f3e8383612720565b600080546001600160a01b038381166001600160a01b0319831681178455604051919092169283917f8be0079c531659141344cd1fd0a4f28419497f9722a3daafe3b4186f6b6457e09190a35050565b60006124dd8383600001518460400151856080015161274a565b8015611f045750611f04838360400151846080015161211a565b611dc0828260405160240161250d929190613130565b60408051601f198184030181529190526020810180516001600160e01b0316632d839cb360e21b17905261286a565b6000816001600160a01b0316638da5cb5b6040518163ffffffff1660e01b8152600401602060405180830381865afa925050508015612598575060408051601f3d908101601f1916820190925261259591810190613152565b60015b611f2c57506000919050565b60008181526001830160205260408120546125eb57508154600181810184556000848152602080822090930184905584548482528286019093526040902091909155611f2c565b506000611f2c565b6001600160a01b03811660009081526001830160205260408120541515611f3e565b6000611f3e836001600160a01b03841661288b565b6000611f3e838361288b565b600061268b826040518060400160405280602081526020017f5361666545524332303a206c6f772d6c6576656c2063616c6c206661696c6564815250856001600160a01b03166129859092919063ffffffff16565b80519091501561087657808060200190518101906126a9919061303b565b6108765760405162461bcd60e51b815260206004820152602a60248201527f5361666545524332303a204552433230206f7065726174696f6e20646964206e6044820152691bdd081cdd58d8d9595960b21b606482015260840161054f565b60008181526001830160205260408120541515611f3e565b60008260000182815481106127375761273761300c565b9060005260206000200154905092915050565b6000816001036127e3576040516331a9108f60e11b81526004810185905285906001600160a01b03821690636352211e90602401602060405180830381865afa9250505080156127b7575060408051601f3d908101601f191682019092526127b491810190613152565b60015b6127c5576000915050612862565b846001600160a01b0316816001600160a01b03161492505050612862565b604051627eeac760e11b81526001600160a01b0384811660048301526024820186905286919082169062fdd58e90604401602060405180830381865afa92505050801561284d575060408051601f3d908101601f1916820190925261284a91810190613058565b60015b61285b576000915050612862565b6001925050505b949350505050565b80516a636f6e736f6c652e6c6f67602083016000808483855afa5050505050565b600081815260018301602052604081205480156129745760006128af600183612e39565b85549091506000906128c390600190612e39565b90508181146129285760008660000182815481106128e3576128e361300c565b90600052602060002001549050808760000184815481106129065761290661300c565b6000918252602080832090910192909255918252600188019052604090208390555b85548690806129395761293961316f565b600190038181906000526020600020016000905590558560010160008681526020019081526020016000206000905560019350505050611f2c565b6000915050611f2c565b5092915050565b6060612862848460008585600080866001600160a01b031685876040516129ac9190613185565b60006040518083038185875af1925050503d80600081146129e9576040519150601f19603f3d011682016040523d82523d6000602084013e6129ee565b606091505b50915091506129ff87838387612a0a565b979650505050505050565b60608315612a79578251600003612a72576001600160a01b0385163b612a725760405162461bcd60e51b815260206004820152601d60248201527f416464726573733a2063616c6c20746f206e6f6e2d636f6e7472616374000000604482015260640161054f565b5081612862565b6128628383815115612a8e5781518083602001fd5b8060405162461bcd60e51b815260040161054f91906131a1565b6040518060c00160405280600081526020016000815260200160006001600160a01b031681526020016000815260200160008152602001600081525090565b6001600160a01b0381168114611bff57600080fd5b60008060008060008060c08789031215612b1557600080fd5b8635612b2081612ae7565b9860208801359850604088013597606081013597506080810135965060a00135945092505050565b60008060408385031215612b5b57600080fd5b8235612b6681612ae7565b946020939093013593505050565b600080600060608486031215612b8957600080fd5b8335612b9481612ae7565b92506020840135612ba481612ae7565b929592945050506040919091013590565b600060208284031215612bc757600080fd5b5035919050565b600080600080600080600060e0888a031215612be957600080fd5b8735612bf481612ae7565b9650602088013595506040880135612c0b81612ae7565b969995985095966060810135965060808101359560a0820135955060c0909101359350915050565b803560ff8116811461112a57600080fd5b60008060008060008060c08789031215612c5d57600080fd5b8635612c6881612ae7565b955060208701359450604087013593506060870135925060808701359150612c9260a08801612c33565b90509295509295509295565b80518252602080820151908301526040808201516001600160a01b031690830152606080820151908301526080808201519083015260a090810151910152565b6020808252825182820181905260009190848201906040850190845b81811015612d2057612d0d838551612c9e565b9284019260c09290920191600101612cfa565b50909695505050505050565b600080600080600060a08688031215612d4457600080fd5b8535612d4f81612ae7565b97602087013597506040870135966060810135965060800135945092505050565b600060208284031215612d8257600080fd5b8135611f3e81612ae7565b600080600060608486031215612da257600080fd5b8335612dad81612ae7565b9250602084013591506040840135612dc481612ae7565b809150509250925092565b60c08101611f2c8284612c9e565b8015158114611bff57600080fd5b600060208284031215612dfd57600080fd5b8135611f3e81612ddd565b600060208284031215612e1a57600080fd5b611f3e82612c33565b634e487b7160e01b600052601160045260246000fd5b81810381811115611f2c57611f2c612e23565b60208082526024908201527f506c6561736520656e7465722061206c6f6e67657220706572696f64206f662060408201526374696d6560e01b606082015260800190565b60208082526025908201527f506c6561736520656e74657220612073686f7274657220706572696f64206f666040820152642074696d6560d81b606082015260800190565b60208082526036908201527f506c65617365207365742074686520726f79616c74792070657263656e74616e60408201527567652062656c6f7720616c6c6f7765642072616e676560501b606082015260800190565b60208082526022908201527f5468652076616c75652073656e642069732062656c6f772073616c6520707269604082015261636560f01b606082015260800190565b6001600160a01b039384168152919092166020820152604081019190915260600190565b6001600160a01b0394851681529290931660208301526040820152606081019190915260a060808201819052600490820152630307830360e41b60c082015260e00190565b6101008101612fe58286612c9e565b60c082019390935260e00152919050565b634e487b7160e01b600052604160045260246000fd5b634e487b7160e01b600052603260045260246000fd5b60006001820161303457613034612e23565b5060010190565b60006020828403121561304d57600080fd5b8151611f3e81612ddd565b60006020828403121561306a57600080fd5b5051919050565b61ffff81811683821601908082111561297e5761297e612e23565b80820180821115611f2c57611f2c612e23565b60008160001904831182151516156130b9576130b9612e23565b500290565b6000826130db57634e487b7160e01b600052601260045260246000fd5b500490565b60005b838110156130fb5781810151838201526020016130e3565b50506000910152565b6000815180845261311c8160208601602086016130e0565b601f01601f19169290920160200192915050565b6040815260006131436040830185613104565b90508260208301529392505050565b60006020828403121561316457600080fd5b8151611f3e81612ae7565b634e487b7160e01b600052603160045260246000fd5b600082516131978184602087016130e0565b9190910192915050565b602081526000611f3e602083018461310456fea264697066735822122050411eb17d9c93564e014ec0a3b41cf4ed3176e48d5b3c18029f5b35e0c3718464736f6c63430008100033",
  "linkReferences": {},
  "deployedLinkReferences": {}
}