{
  "_format": "hh-sol-artifact-1",
  "contractName": "Marketplace",
  "sourceName": "contracts/Marketplace.sol",
  "abi": [
    {
      "inputs": [
        {
          "internalType": "address",
          "name": "_paymentTokenAddress",
          "type": "address"
        }
      ],
      "stateMutability": "nonpayable",
      "type": "constructor"
    },
    {
      "anonymous": false,
      "inputs": [
        {
          "indexed": true,
          "internalType": "address",
          "name": "previousOwner",
          "type": "address"
        },
        {
          "indexed": true,
          "internalType": "address",
          "name": "newOwner",
          "type": "address"
        }
      ],
      "name": "OwnershipTransferred",
      "type": "event"
    },
    {
      "anonymous": false,
      "inputs": [
        {
          "indexed": true,
          "internalType": "address",
          "name": "contractAddress",
          "type": "address"
        },
        {
          "indexed": true,
          "internalType": "address",
          "name": "recipient",
          "type": "address"
        },
        {
          "indexed": false,
          "internalType": "uint256",
          "name": "feeFraction",
          "type": "uint256"
        }
      ],
      "name": "SetRoyalty",
      "type": "event"
    },
    {
      "anonymous": false,
      "inputs": [
        {
          "indexed": true,
          "internalType": "address",
          "name": "contractAddress",
          "type": "address"
        },
        {
          "indexed": true,
          "internalType": "uint256",
          "name": "tokenId",
          "type": "uint256"
        },
        {
          "indexed": true,
          "internalType": "address",
          "name": "seller",
          "type": "address"
        },
        {
          "components": [
            {
              "internalType": "uint256",
              "name": "tokenId",
              "type": "uint256"
            },
            {
              "internalType": "uint256",
              "name": "value",
              "type": "uint256"
            },
            {
              "internalType": "address",
              "name": "bidder",
              "type": "address"
            },
            {
              "internalType": "uint256",
              "name": "nftCount",
              "type": "uint256"
            },
            {
              "internalType": "uint256",
              "name": "tokenType",
              "type": "uint256"
            },
            {
              "internalType": "uint256",
              "name": "expireTimestamp",
              "type": "uint256"
            }
          ],
          "indexed": false,
          "internalType": "struct IMarketplace.Bid",
          "name": "bid",
          "type": "tuple"
        },
        {
          "indexed": false,
          "internalType": "uint256",
          "name": "serviceFee",
          "type": "uint256"
        },
        {
          "indexed": false,
          "internalType": "uint256",
          "name": "royaltyFee",
          "type": "uint256"
        }
      ],
      "name": "TokenBidAccepted",
      "type": "event"
    },
    {
      "anonymous": false,
      "inputs": [
        {
          "indexed": true,
          "internalType": "address",
          "name": "contractAddress",
          "type": "address"
        },
        {
          "indexed": true,
          "internalType": "uint256",
          "name": "tokenId",
          "type": "uint256"
        },
        {
          "components": [
            {
              "internalType": "uint256",
              "name": "tokenId",
              "type": "uint256"
            },
            {
              "internalType": "uint256",
              "name": "value",
              "type": "uint256"
            },
            {
              "internalType": "address",
              "name": "bidder",
              "type": "address"
            },
            {
              "internalType": "uint256",
              "name": "nftCount",
              "type": "uint256"
            },
            {
              "internalType": "uint256",
              "name": "tokenType",
              "type": "uint256"
            },
            {
              "internalType": "uint256",
              "name": "expireTimestamp",
              "type": "uint256"
            }
          ],
          "indexed": false,
          "internalType": "struct IMarketplace.Bid",
          "name": "bid",
          "type": "tuple"
        }
      ],
      "name": "TokenBidEntered",
      "type": "event"
    },
    {
      "anonymous": false,
      "inputs": [
        {
          "indexed": true,
          "internalType": "address",
          "name": "contractAddress",
          "type": "address"
        },
        {
          "indexed": true,
          "internalType": "uint256",
          "name": "tokenId",
          "type": "uint256"
        },
        {
          "components": [
            {
              "internalType": "uint256",
              "name": "tokenId",
              "type": "uint256"
            },
            {
              "internalType": "uint256",
              "name": "value",
              "type": "uint256"
            },
            {
              "internalType": "address",
              "name": "bidder",
              "type": "address"
            },
            {
              "internalType": "uint256",
              "name": "nftCount",
              "type": "uint256"
            },
            {
              "internalType": "uint256",
              "name": "tokenType",
              "type": "uint256"
            },
            {
              "internalType": "uint256",
              "name": "expireTimestamp",
              "type": "uint256"
            }
          ],
          "indexed": false,
          "internalType": "struct IMarketplace.Bid",
          "name": "bid",
          "type": "tuple"
        }
      ],
      "name": "TokenBidWithdrawn",
      "type": "event"
    },
    {
      "anonymous": false,
      "inputs": [
        {
          "indexed": true,
          "internalType": "address",
          "name": "contractAddress",
          "type": "address"
        },
        {
          "indexed": true,
          "internalType": "uint256",
          "name": "tokenId",
          "type": "uint256"
        },
        {
          "indexed": true,
          "internalType": "address",
          "name": "buyer",
          "type": "address"
        },
        {
          "components": [
            {
              "internalType": "uint256",
              "name": "tokenId",
              "type": "uint256"
            },
            {
              "internalType": "uint256",
              "name": "value",
              "type": "uint256"
            },
            {
              "internalType": "address",
              "name": "seller",
              "type": "address"
            },
            {
              "internalType": "uint256",
              "name": "nftCount",
              "type": "uint256"
            },
            {
              "internalType": "uint256",
              "name": "tokenType",
              "type": "uint256"
            },
            {
              "internalType": "uint256",
              "name": "expireTimestamp",
              "type": "uint256"
            }
          ],
          "indexed": false,
          "internalType": "struct IMarketplace.Listing",
          "name": "listing",
          "type": "tuple"
        },
        {
          "indexed": false,
          "internalType": "uint256",
          "name": "serviceFee",
          "type": "uint256"
        },
        {
          "indexed": false,
          "internalType": "uint256",
          "name": "royaltyFee",
          "type": "uint256"
        }
      ],
      "name": "TokenBought",
      "type": "event"
    },
    {
      "anonymous": false,
      "inputs": [
        {
          "indexed": true,
          "internalType": "address",
          "name": "contractAddress",
          "type": "address"
        },
        {
          "indexed": true,
          "internalType": "uint256",
          "name": "tokenId",
          "type": "uint256"
        },
        {
          "components": [
            {
              "internalType": "uint256",
              "name": "tokenId",
              "type": "uint256"
            },
            {
              "internalType": "uint256",
              "name": "value",
              "type": "uint256"
            },
            {
              "internalType": "address",
              "name": "seller",
              "type": "address"
            },
            {
              "internalType": "uint256",
              "name": "nftCount",
              "type": "uint256"
            },
            {
              "internalType": "uint256",
              "name": "tokenType",
              "type": "uint256"
            },
            {
              "internalType": "uint256",
              "name": "expireTimestamp",
              "type": "uint256"
            }
          ],
          "indexed": false,
          "internalType": "struct IMarketplace.Listing",
          "name": "listing",
          "type": "tuple"
        }
      ],
      "name": "TokenDelisted",
      "type": "event"
    },
    {
      "anonymous": false,
      "inputs": [
        {
          "indexed": true,
          "internalType": "address",
          "name": "contractAddress",
          "type": "address"
        },
        {
          "indexed": true,
          "internalType": "uint256",
          "name": "tokenId",
          "type": "uint256"
        },
        {
          "components": [
            {
              "internalType": "uint256",
              "name": "tokenId",
              "type": "uint256"
            },
            {
              "internalType": "uint256",
              "name": "value",
              "type": "uint256"
            },
            {
              "internalType": "address",
              "name": "seller",
              "type": "address"
            },
            {
              "internalType": "uint256",
              "name": "nftCount",
              "type": "uint256"
            },
            {
              "internalType": "uint256",
              "name": "tokenType",
              "type": "uint256"
            },
            {
              "internalType": "uint256",
              "name": "expireTimestamp",
              "type": "uint256"
            }
          ],
          "indexed": false,
          "internalType": "struct IMarketplace.Listing",
          "name": "listing",
          "type": "tuple"
        }
      ],
      "name": "TokenListed",
      "type": "event"
    },
    {
      "inputs": [
        {
          "internalType": "address",
          "name": "contractAddress",
          "type": "address"
        },
        {
          "internalType": "uint256",
          "name": "tokenId",
          "type": "uint256"
        },
        {
          "internalType": "address",
          "name": "bidder",
          "type": "address"
        },
        {
          "internalType": "uint256",
          "name": "tokenType",
          "type": "uint256"
        },
        {
          "internalType": "uint256",
          "name": "nftAmount",
          "type": "uint256"
        },
        {
          "internalType": "uint256",
          "name": "paymentTokenType",
          "type": "uint256"
        },
        {
          "internalType": "uint256",
          "name": "value",
          "type": "uint256"
        }
      ],
      "name": "acceptBidForToken",
      "outputs": [],
      "stateMutability": "payable",
      "type": "function"
    },
    {
      "inputs": [],
      "name": "actionTimeOutRangeMax",
      "outputs": [
        {
          "internalType": "uint256",
          "name": "",
          "type": "uint256"
        }
      ],
      "stateMutability": "view",
      "type": "function"
    },
    {
      "inputs": [],
      "name": "actionTimeOutRangeMin",
      "outputs": [
        {
          "internalType": "uint256",
          "name": "",
          "type": "uint256"
        }
      ],
      "stateMutability": "view",
      "type": "function"
    },
    {
      "inputs": [],
      "name": "auctionEnd",
      "outputs": [],
      "stateMutability": "payable",
      "type": "function"
    },
    {
      "inputs": [
        {
          "internalType": "address",
          "name": "contractAddress",
          "type": "address"
        },
        {
          "internalType": "uint256",
          "name": "tokenId",
          "type": "uint256"
        },
        {
          "internalType": "uint256",
          "name": "tokenAmount",
          "type": "uint256"
        },
        {
          "internalType": "uint256",
          "name": "tokenType",
          "type": "uint256"
        },
        {
          "internalType": "uint256",
          "name": "paymentTokenType",
          "type": "uint256"
        }
      ],
      "name": "buyToken",
      "outputs": [],
      "stateMutability": "payable",
      "type": "function"
    },
    {
      "inputs": [
        {
          "internalType": "bool",
          "name": "enabled",
          "type": "bool"
        }
      ],
      "name": "changeMarketplaceStatus",
      "outputs": [],
      "stateMutability": "nonpayable",
      "type": "function"
    },
    {
      "inputs": [
        {
          "internalType": "uint256",
          "name": "timeInSec",
          "type": "uint256"
        }
      ],
      "name": "changeMaxActionTimeLimit",
      "outputs": [],
      "stateMutability": "nonpayable",
      "type": "function"
    },
    {
      "inputs": [
        {
          "internalType": "uint256",
          "name": "timeInSec",
          "type": "uint256"
        }
      ],
      "name": "changeMinActionTimeLimit",
      "outputs": [],
      "stateMutability": "nonpayable",
      "type": "function"
    },
    {
      "inputs": [
        {
          "internalType": "uint8",
          "name": "serviceFeeFraction_",
          "type": "uint8"
        }
      ],
      "name": "changeSeriveFee",
      "outputs": [],
      "stateMutability": "nonpayable",
      "type": "function"
    },
    {
      "inputs": [],
      "name": "defaultRoyaltyFraction",
      "outputs": [
        {
          "internalType": "uint256",
          "name": "",
          "type": "uint256"
        }
      ],
      "stateMutability": "view",
      "type": "function"
    },
    {
      "inputs": [
        {
          "internalType": "address",
          "name": "contractAddress",
          "type": "address"
        },
        {
          "internalType": "uint256",
          "name": "tokenId",
          "type": "uint256"
        }
      ],
      "name": "delistToken",
      "outputs": [],
      "stateMutability": "nonpayable",
      "type": "function"
    },
    {
      "inputs": [
        {
          "internalType": "address",
          "name": "contractAddress",
          "type": "address"
        },
        {
          "internalType": "uint256",
          "name": "tokenId",
          "type": "uint256"
        },
        {
          "internalType": "uint256",
          "name": "value",
          "type": "uint256"
        },
        {
          "internalType": "uint256",
          "name": "expireTimestamp",
          "type": "uint256"
        },
        {
          "internalType": "uint256",
          "name": "nftCount",
          "type": "uint256"
        },
        {
          "internalType": "uint256",
          "name": "tokenType",
          "type": "uint256"
        }
      ],
      "name": "enterBidForToken",
      "outputs": [],
      "stateMutability": "payable",
      "type": "function"
    },
    {
      "inputs": [
        {
          "internalType": "address",
          "name": "contractAddress",
          "type": "address"
        },
        {
          "internalType": "address",
          "name": "bidder",
          "type": "address"
        },
        {
          "internalType": "uint256",
          "name": "from",
          "type": "uint256"
        },
        {
          "internalType": "uint256",
          "name": "size",
          "type": "uint256"
        }
      ],
      "name": "getBidderBids",
      "outputs": [
        {
          "components": [
            {
              "internalType": "uint256",
              "name": "tokenId",
              "type": "uint256"
            },
            {
              "internalType": "uint256",
              "name": "value",
              "type": "uint256"
            },
            {
              "internalType": "address",
              "name": "bidder",
              "type": "address"
            },
            {
              "internalType": "uint256",
              "name": "nftCount",
              "type": "uint256"
            },
            {
              "internalType": "uint256",
              "name": "tokenType",
              "type": "uint256"
            },
            {
              "internalType": "uint256",
              "name": "expireTimestamp",
              "type": "uint256"
            }
          ],
          "internalType": "struct IMarketplace.Bid[]",
          "name": "bidderBids",
          "type": "tuple[]"
        }
      ],
      "stateMutability": "view",
      "type": "function"
    },
    {
      "inputs": [
        {
          "internalType": "address",
          "name": "contractAddress",
          "type": "address"
        },
        {
          "internalType": "uint256",
          "name": "tokenId",
          "type": "uint256"
        },
        {
          "internalType": "address",
          "name": "bidder",
          "type": "address"
        }
      ],
      "name": "getBidderTokenBid",
      "outputs": [
        {
          "components": [
            {
              "internalType": "uint256",
              "name": "tokenId",
              "type": "uint256"
            },
            {
              "internalType": "uint256",
              "name": "value",
              "type": "uint256"
            },
            {
              "internalType": "address",
              "name": "bidder",
              "type": "address"
            },
            {
              "internalType": "uint256",
              "name": "nftCount",
              "type": "uint256"
            },
            {
              "internalType": "uint256",
              "name": "tokenType",
              "type": "uint256"
            },
            {
              "internalType": "uint256",
              "name": "expireTimestamp",
              "type": "uint256"
            }
          ],
          "internalType": "struct IMarketplace.Bid",
          "name": "validBid",
          "type": "tuple"
        }
      ],
      "stateMutability": "view",
      "type": "function"
    },
    {
      "inputs": [
        {
          "internalType": "address",
          "name": "contractAddress",
          "type": "address"
        },
        {
          "internalType": "uint256",
          "name": "tokenId",
          "type": "uint256"
        }
      ],
      "name": "getTokenBids",
      "outputs": [
        {
          "components": [
            {
              "internalType": "uint256",
              "name": "tokenId",
              "type": "uint256"
            },
            {
              "internalType": "uint256",
              "name": "value",
              "type": "uint256"
            },
            {
              "internalType": "address",
              "name": "bidder",
              "type": "address"
            },
            {
              "internalType": "uint256",
              "name": "nftCount",
              "type": "uint256"
            },
            {
              "internalType": "uint256",
              "name": "tokenType",
              "type": "uint256"
            },
            {
              "internalType": "uint256",
              "name": "expireTimestamp",
              "type": "uint256"
            }
          ],
          "internalType": "struct IMarketplace.Bid[]",
          "name": "bids",
          "type": "tuple[]"
        }
      ],
      "stateMutability": "view",
      "type": "function"
    },
    {
      "inputs": [
        {
          "internalType": "address",
          "name": "contractAddress",
          "type": "address"
        },
        {
          "internalType": "uint256",
          "name": "tokenId",
          "type": "uint256"
        }
      ],
      "name": "getTokenHighestBid",
      "outputs": [
        {
          "components": [
            {
              "internalType": "uint256",
              "name": "tokenId",
              "type": "uint256"
            },
            {
              "internalType": "uint256",
              "name": "value",
              "type": "uint256"
            },
            {
              "internalType": "address",
              "name": "bidder",
              "type": "address"
            },
            {
              "internalType": "uint256",
              "name": "nftCount",
              "type": "uint256"
            },
            {
              "internalType": "uint256",
              "name": "tokenType",
              "type": "uint256"
            },
            {
              "internalType": "uint256",
              "name": "expireTimestamp",
              "type": "uint256"
            }
          ],
          "internalType": "struct IMarketplace.Bid",
          "name": "highestBid",
          "type": "tuple"
        }
      ],
      "stateMutability": "view",
      "type": "function"
    },
    {
      "inputs": [
        {
          "internalType": "address",
          "name": "contractAddress",
          "type": "address"
        },
        {
          "internalType": "uint256",
          "name": "from",
          "type": "uint256"
        },
        {
          "internalType": "uint256",
          "name": "size",
          "type": "uint256"
        }
      ],
      "name": "getTokenHighestBids",
      "outputs": [
        {
          "components": [
            {
              "internalType": "uint256",
              "name": "tokenId",
              "type": "uint256"
            },
            {
              "internalType": "uint256",
              "name": "value",
              "type": "uint256"
            },
            {
              "internalType": "address",
              "name": "bidder",
              "type": "address"
            },
            {
              "internalType": "uint256",
              "name": "nftCount",
              "type": "uint256"
            },
            {
              "internalType": "uint256",
              "name": "tokenType",
              "type": "uint256"
            },
            {
              "internalType": "uint256",
              "name": "expireTimestamp",
              "type": "uint256"
            }
          ],
          "internalType": "struct IMarketplace.Bid[]",
          "name": "highestBids",
          "type": "tuple[]"
        }
      ],
      "stateMutability": "view",
      "type": "function"
    },
    {
      "inputs": [
        {
          "internalType": "uint256",
          "name": "_type",
          "type": "uint256"
        }
      ],
      "name": "getTokensByType",
      "outputs": [
        {
          "internalType": "contract IERC20",
          "name": "_token",
          "type": "address"
        }
      ],
      "stateMutability": "view",
      "type": "function"
    },
    {
      "inputs": [
        {
          "internalType": "address",
          "name": "contractAddress",
          "type": "address"
        },
        {
          "internalType": "uint256",
          "name": "tokenId",
          "type": "uint256"
        },
        {
          "internalType": "uint256",
          "name": "value",
          "type": "uint256"
        },
        {
          "internalType": "uint256",
          "name": "expireTimestamp",
          "type": "uint256"
        },
        {
          "internalType": "uint256",
          "name": "nftAmount",
          "type": "uint256"
        },
        {
          "internalType": "uint8",
          "name": "tokenType",
          "type": "uint8"
        }
      ],
      "name": "listToken",
      "outputs": [],
      "stateMutability": "nonpayable",
      "type": "function"
    },
    {
      "inputs": [
        {
          "internalType": "address",
          "name": "contractAddress",
          "type": "address"
        }
      ],
      "name": "numTokenWithBids",
      "outputs": [
        {
          "internalType": "uint256",
          "name": "",
          "type": "uint256"
        }
      ],
      "stateMutability": "view",
      "type": "function"
    },
    {
      "inputs": [],
      "name": "owner",
      "outputs": [
        {
          "internalType": "address",
          "name": "",
          "type": "address"
        }
      ],
      "stateMutability": "view",
      "type": "function"
    },
    {
      "inputs": [],
      "name": "paymentToken",
      "outputs": [
        {
          "internalType": "address",
          "name": "",
          "type": "address"
        }
      ],
      "stateMutability": "view",
      "type": "function"
    },
    {
      "inputs": [],
      "name": "renounceOwnership",
      "outputs": [],
      "stateMutability": "nonpayable",
      "type": "function"
    },
    {
      "inputs": [
        {
          "internalType": "address",
          "name": "contractAddress",
          "type": "address"
        }
      ],
      "name": "royalty",
      "outputs": [
        {
          "components": [
            {
              "internalType": "address",
              "name": "recipient",
              "type": "address"
            },
            {
              "internalType": "uint256",
              "name": "feeFraction",
              "type": "uint256"
            },
            {
              "internalType": "address",
              "name": "setBy",
              "type": "address"
            }
          ],
          "internalType": "struct IRoyalty.CollectionRoyalty",
          "name": "",
          "type": "tuple"
        }
      ],
      "stateMutability": "view",
      "type": "function"
    },
    {
      "inputs": [],
      "name": "royaltyUpperLimit",
      "outputs": [
        {
          "internalType": "uint256",
          "name": "",
          "type": "uint256"
        }
      ],
      "stateMutability": "view",
      "type": "function"
    },
    {
      "inputs": [],
      "name": "serviceFee",
      "outputs": [
        {
          "internalType": "uint8",
          "name": "",
          "type": "uint8"
        }
      ],
      "stateMutability": "view",
      "type": "function"
    },
    {
      "inputs": [
        {
          "internalType": "address",
          "name": "contractAddress",
          "type": "address"
        },
        {
          "internalType": "address",
          "name": "newRecipient",
          "type": "address"
        },
        {
          "internalType": "uint256",
          "name": "feeFraction",
          "type": "uint256"
        }
      ],
      "name": "setRoyalty",
      "outputs": [],
      "stateMutability": "nonpayable",
      "type": "function"
    },
    {
      "inputs": [
        {
          "internalType": "address",
          "name": "contractAddress",
          "type": "address"
        },
        {
          "internalType": "address",
          "name": "newRecipient",
          "type": "address"
        },
        {
          "internalType": "uint256",
          "name": "feeFraction",
          "type": "uint256"
        }
      ],
      "name": "setRoyaltyForCollection",
      "outputs": [],
      "stateMutability": "nonpayable",
      "type": "function"
    },
    {
      "inputs": [
        {
          "internalType": "address",
          "name": "newOwner",
          "type": "address"
        }
      ],
      "name": "transferOwnership",
      "outputs": [],
      "stateMutability": "nonpayable",
      "type": "function"
    },
    {
      "inputs": [
        {
          "internalType": "uint256",
          "name": "_newUpperLimit",
          "type": "uint256"
        }
      ],
      "name": "updateRoyaltyUpperLimit",
      "outputs": [],
      "stateMutability": "nonpayable",
      "type": "function"
    },
    {
      "inputs": [
        {
          "internalType": "address",
          "name": "contractAddress",
          "type": "address"
        },
        {
          "internalType": "uint256",
          "name": "tokenId",
          "type": "uint256"
        }
      ],
      "name": "withdrawBidForToken",
      "outputs": [],
      "stateMutability": "nonpayable",
      "type": "function"
    }
  ],
  "bytecode": "0x60a0604052601460015560506002556005805461ffff19166114011790556107086006556301e133806007553480156200003857600080fd5b5060405162003894380380620038948339810160408190526200005b91620000cd565b62000066336200007d565b60016004556001600160a01b0316608052620000ff565b600080546001600160a01b038381166001600160a01b0319831681178455604051919092169283917f8be0079c531659141344cd1fd0a4f28419497f9722a3daafe3b4186f6b6457e09190a35050565b600060208284031215620000e057600080fd5b81516001600160a01b0381168114620000f857600080fd5b9392505050565b60805161373362000161600039600081816102cc01528181610f2f01528181610f7b01528181610fd30152818161145f01528181611929015281816119a701528181611a5901528181611b3e015281816122c3015261236301526137336000f3fe6080604052600436106101d85760003560e01c80636d0042b811610102578063b6be53ba11610095578063ee8ef34d11610064578063ee8ef34d14610561578063f2fde38b14610577578063f8ad6f6214610597578063feb88406146105b757600080fd5b8063b6be53ba146104e1578063cdea490d14610501578063cf6ac95314610521578063eb635ab81461054157600080fd5b80638abdf5aa116100d15780638abdf5aa146104595780638da5cb5b1461048357806390bc4e37146104a1578063a3c0b5f0146104c157600080fd5b80636d0042b8146103cb578063715018a6146103e15780637a4e5cd2146103f6578063861b69d61461040957600080fd5b80633013ce291161017a57806355c338aa1161014957806355c338aa1461034b5780635dc28a721461036b5780636151e62e1461038b57806366c1e8bf146103ab57600080fd5b80633013ce29146102bd57806333549d3d14610304578063453dfc5014610323578063528019651461033857600080fd5b80631f77a820116101b65780631f77a820146102325780632426fc24146102685780632a24f46c146102885780632c20d1b41461029057600080fd5b8063028afc33146101dd5780630609d095146101f257806319d334cb14610212575b600080fd5b6101f06101eb366004612fca565b6105d7565b005b3480156101fe57600080fd5b506101f061020d366004613016565b610822565b34801561021e57600080fd5b506101f061022d366004613042565b610951565b34801561023e57600080fd5b5061025261024d366004613016565b610a99565b60405161025f91906130c3565b60405180910390f35b34801561027457600080fd5b506101f06102833660046130d1565b610bf9565b6101f0610c06565b34801561029c57600080fd5b506102b06102ab3660046130ea565b610c1a565b60405161025f919061311f565b3480156102c957600080fd5b507f00000000000000000000000000000000000000000000000000000000000000005b6040516001600160a01b03909116815260200161025f565b34801561031057600080fd5b506006545b60405190815260200161025f565b34801561032f57600080fd5b50600754610315565b6101f061034636600461316d565b610d29565b34801561035757600080fd5b506101f0610366366004613042565b611155565b34801561037757600080fd5b506101f06103863660046131e3565b6111fe565b34801561039757600080fd5b506102ec6103a63660046130d1565b6113f6565b3480156103b757600080fd5b506102b06103c6366004613016565b611488565b3480156103d757600080fd5b5061031560015481565b3480156103ed57600080fd5b506101f061160b565b6101f061040436600461323d565b61161d565b34801561041557600080fd5b50610429610424366004613281565b611d17565b6040805182516001600160a01b03908116825260208085015190830152928201519092169082015260600161025f565b34801561046557600080fd5b50600554610100900460ff1660405160ff909116815260200161025f565b34801561048f57600080fd5b506000546001600160a01b03166102ec565b3480156104ad57600080fd5b506102526104bc36600461329e565b611e08565b3480156104cd57600080fd5b506101f06104dc3660046130d1565b611e9f565b3480156104ed57600080fd5b506101f06104fc3660046132ee565b611eac565b34801561050d57600080fd5b506101f061051c3660046130d1565b611ec7565b34801561052d57600080fd5b506102b061053c36600461330b565b611ed4565b34801561054d57600080fd5b5061031561055c366004613281565b611fea565b34801561056d57600080fd5b5061031560025481565b34801561058357600080fd5b506101f0610592366004613281565b612014565b3480156105a357600080fd5b506101f06105b2366004613351565b61208d565b3480156105c357600080fd5b506101f06105d2366004613016565b612119565b60055460ff1661062e5760405162461bcd60e51b815260206004820152601f60248201527f4c697374696e6720616e642062696420617265206e6f7420656e61626c65640060448201526064015b60405180910390fd5b600654839061063d4283613382565b101561065b5760405162461bcd60e51b815260040161062590613395565b6007546106684283613382565b11156106865760405162461bcd60e51b8152600401610625906133d9565b60006040518060c00160405280888152602001878152602001336001600160a01b031681526020018581526020018481526020018681525090506106ca888261224f565b6107095760405162461bcd60e51b815260206004820152601060248201526f109a59081a5cc81b9bdd081d985b1a5960821b6044820152606401610625565b6001600160a01b038816600090815260086020526040902061072e9060030188612400565b506001600160a01b03881660009081526008602090815260408083208a8452600501909152902061075f9033612413565b506001600160a01b0388811660008181526008602090815260408083208c8452600590810183528184203385526002908101845293829020875181559287015160018401558682015193830180546001600160a01b0319169490961693909317909455606085015160038201556080850151600482015560a085015191015590518891907f08d763dac6a60dcc1fe97393bbae6d0623e37b718f864e71205f4be5a18698cb906108109085906130c3565b60405180910390a35050505050505050565b6001600160a01b03808316600090815260086020908152604080832085845260059081018352818420338086526002918201855294839020835160c08101855281548152600182015495810195909552908101549095169183018290526003850154606084015260048501546080840152939093015460a082015291146108ff5760405162461bcd60e51b815260206004820152602b60248201527f54686973206164647265737320646f65736e2774206861766520626964206f6e60448201526a103a3434b9903a37b5b2b760a91b6064820152608401610625565b81836001600160a01b03167ff41be1471915cc192b562c19613dca9014ddf026228bdcf3b7942c753542d2e28360405161093991906130c3565b60405180910390a361094c838333612428565b505050565b610959612535565b60025481111561097b5760405162461bcd60e51b81526004016106259061341e565b600061098684611d17565b604001516001600160a01b0316146109f15760405162461bcd60e51b815260206004820152602860248201527f436f6c6c656374696f6e20726f79616c747920726563697069656e7420616c726044820152671958591e481cd95d60c21b6064820152608401610625565b604080516060810182526001600160a01b038085168083526020808401868152338587019081528985166000818152600390945292879020955186549086166001600160a01b03199182161787559151600187015551600290950180549590941694169390931790915591517fb6b61d78ac5372b51940cf3b322ea21839c456cade69acdf1b9fb9a6f79d6ff790610a8c9085815260200190565b60405180910390a3505050565b610aa1612f76565b506040805160c08101825282815260006020808301829052828401829052606083018290526080830182905260a083018290526001600160a01b0386168252600881528382208583526005019052918220909190610afe9061258f565b905060005b81811015610bf1576001600160a01b03851660009081526008602090815260408083208784526005019091528120610b3b9083612599565b6001600160a01b0380881660009081526008602090815260408083208a84526005908101835281842085871685526002908101845293829020825160c081018452815481526001820154948101949094529384015490941690820152600382015460608201526004820154608082015291015460a0820152909150610bc0878261224f565b8015610bd3575084602001518160200151115b15610bdc578094505b50508080610be990613474565b915050610b03565b505092915050565b610c01612535565b600655565b610c0e6125a5565b610c186001600455565b565b60606000610c2785611fea565b90508084108015610c385750600083115b15610d21578281610c49828761348d565b1115610c5c57610c598583613382565b90505b8067ffffffffffffffff811115610c7557610c756134a0565b604051908082528060200260200182016040528015610cae57816020015b610c9b612f76565b815260200190600190039081610c935790505b50925060005b81811015610d1e57610cee8761024d610ccd898561348d565b6001600160a01b038b16600090815260086020526040902060030190612599565b848281518110610d0057610d006134b6565b60200260200101819052508080610d1690613474565b915050610cb4565b50505b509392505050565b610d316125a5565b610d3c8733866125fe565b610da65760405162461bcd60e51b815260206004820152603560248201527f54686520746f6b656e206973206e6f7420617070726f76656420746f207472616044820152741b9cd9995c88189e481d1a194818dbdb9d1c9858dd605a1b6064820152608401610625565b6000610db3888888611e08565b805190915087148015610dc95750818160200151145b8015610dea5750856001600160a01b031681604001516001600160a01b0316145b610e455760405162461bcd60e51b815260206004820152602660248201527f5468697320746f6b656e20646f65736e277420686176652061206d61746368696044820152651b99c8189a5960d21b6064820152608401610625565b6000610e5089611d17565b600001519050600080610e678b85602001516126bb565b9150915085600203610f01578360200151341015610e975760405162461bcd60e51b8152600401610625906134cc565b6040840151610eba9082610eab8534613382565b610eb59190613382565b612740565b610ed5610ecf6000546001600160a01b031690565b83612740565b6001600160a01b03831615801590610eed5750600081115b15610efc57610efc8382612740565b61113e565b610f5784604001513383858860200151610f1b9190613382565b610f259190613382565b6001600160a01b037f000000000000000000000000000000000000000000000000000000000000000016929190612859565b610fa38460400151610f716000546001600160a01b031690565b6001600160a01b037f000000000000000000000000000000000000000000000000000000000000000016919085612859565b6001600160a01b03831615801590610fbb5750600081115b15610ffb576040840151610ffb906001600160a01b037f000000000000000000000000000000000000000000000000000000000000000016908584612859565b8760010361106d576040808501519051632142170760e11b81526001600160a01b038d16916342842e0e916110369133918f9060040161350e565b600060405180830381600087803b15801561105057600080fd5b505af1158015611064573d6000803e3d6000fd5b505050506110d5565b6040808501519051637921219560e11b81526001600160a01b038d169163f242432a916110a29133918f908d90600401613532565b600060405180830381600087803b1580156110bc57600080fd5b505af11580156110d0573d6000803e3d6000fd5b505050505b336001600160a01b03168a8c6001600160a01b03167f64a4cc6660277360cd61c08430762f86d7aaf5a438a0d58b7b82d02e2eb1b7e987868660405161111d93929190613577565b60405180910390a461112f8b8b6128b1565b61113e8b8b8660400151612428565b5050505061114c6001600455565b50505050505050565b6002548111156111775760405162461bcd60e51b81526004016106259061341e565b61118083611d17565b516001600160a01b031633146109f15760405162461bcd60e51b815260206004820152603760248201527f4f6e6c792045524337323120726f79616c747920726563697069656e7420697360448201527f20616c6c6f77656420746f2073657420526f79616c74790000000000000000006064820152608401610625565b60055460ff166112505760405162461bcd60e51b815260206004820152601f60248201527f4c697374696e6720616e642062696420617265206e6f7420656e61626c6564006044820152606401610625565b600654839061125f4283613382565b101561127d5760405162461bcd60e51b815260040161062590613395565b60075461128a4283613382565b11156112a85760405162461bcd60e51b8152600401610625906133d9565b60006040518060c00160405280888152602001878152602001336001600160a01b031681526020018581526020018460ff16815260200186815250905080600860008a6001600160a01b03166001600160a01b031681526020019081526020016000206002016000898152602001908152602001600020600082015181600001556020820151816001015560408201518160020160006101000a8154816001600160a01b0302191690836001600160a01b03160217905550606082015181600301556080820151816004015560a082015181600501559050506113bb87600860008b6001600160a01b03166001600160a01b0316815260200190815260200160002060000161240090919063ffffffff16565b5086886001600160a01b03167fb2b0f1ec5cfcef29ee85821296b3a908b186c398343c1da82d2288c43d801d9f8360405161081091906130c3565b6000816002036114545760405162461bcd60e51b8152602060048201526024808201527f74797065203220697320666f722044656661756c7420706c6174666f726d205460448201526337b5b2b760e11b6064820152608401610625565b8160010361148357507f0000000000000000000000000000000000000000000000000000000000000000919050565b919050565b6001600160a01b03821660009081526008602090815260408083208484526005019091528120606091906114bb9061258f565b90508067ffffffffffffffff8111156114d6576114d66134a0565b60405190808252806020026020018201604052801561150f57816020015b6114fc612f76565b8152602001906001900390816114f45790505b50915060005b81811015610bf1576001600160a01b0385166000908152600860209081526040808320878452600501909152812061154d9083612599565b6001600160a01b0380881660009081526008602090815260408083208a84526005908101835281842085871685526002908101845293829020825160c081018452815481526001820154948101949094529384015490941690820152600382015460608201526004820154608082015291015460a08201529091506115d2878261224f565b156115f657808584815181106115ea576115ea6134b6565b60200260200101819052505b5050808061160390613474565b915050611515565b611613612535565b610c186000612941565b6116256125a5565b6001600160a01b0380861660009081526008602090815260408083208884526002908101835292819020815160c08101835281548152600182015493810193909352928301549093169281019290925260038101546060830152600481015460808301526005015460a082015261169c8682612991565b6116e05760405162461bcd60e51b8152602060048201526015602482015274546f6b656e206973206e6f7420666f722073616c6560581b6044820152606401610625565b6000806116f18884602001516126bb565b91509150836002036118ca5782602001513410156117215760405162461bcd60e51b8152600401610625906134cc565b60408301516117359082610eab8534613382565b61174a610ecf6000546001600160a01b031690565b600061175589611d17565b5190506001600160a01b038116158015906117705750600082115b1561177f5761177f8183612740565b336001600160a01b0316888a6001600160a01b03167fb7d014c56c56a5dc44dc51f228368ee105a714dc6d74ae5af0d7613a35b2aa8e8787876040516117c793929190613577565b60405180910390a485600103611842576040808501519051632142170760e11b81526001600160a01b038b16916342842e0e9161180b919033908d9060040161350e565b600060405180830381600087803b15801561182557600080fd5b505af1158015611839573d6000803e3d6000fd5b505050506118af565b886001600160a01b031663f242432a8560400151338b88606001516040518563ffffffff1660e01b815260040161187c9493929190613532565b600060405180830381600087803b15801561189657600080fd5b505af11580156118aa573d6000803e3d6000fd5b505050505b6118b989896128b1565b6118c4898933612428565b50611d03565b61190d6040518060400160405280601e81526020017f4c697374696e672056616c7565203d3d3d3d3d3d3d3d3d3d3d3d3d3d3d3e000081525084602001516129c5565b60208301516040516323b872dd60e01b81526001600160a01b037f000000000000000000000000000000000000000000000000000000000000000016916323b872dd9161196191339130919060040161350e565b6020604051808303816000875af1158015611980573d6000803e3d6000fd5b505050506040513d601f19601f820116820180604052508101906119a49190613597565b507f00000000000000000000000000000000000000000000000000000000000000006001600160a01b03166323b872dd308560400151848688602001516119eb9190613382565b6119f59190613382565b6040518463ffffffff1660e01b8152600401611a139392919061350e565b6020604051808303816000875af1158015611a32573d6000803e3d6000fd5b505050506040513d601f19601f82011682018060405250810190611a569190613597565b507f00000000000000000000000000000000000000000000000000000000000000006001600160a01b03166323b872dd30611a996000546001600160a01b031690565b856040518463ffffffff1660e01b8152600401611ab89392919061350e565b6020604051808303816000875af1158015611ad7573d6000803e3d6000fd5b505050506040513d601f19601f82011682018060405250810190611afb9190613597565b506000611b0789611d17565b5190506001600160a01b03811615801590611b225750600082115b15611bbc576040516323b872dd60e01b81526001600160a01b037f000000000000000000000000000000000000000000000000000000000000000016906323b872dd90611b779030908590879060040161350e565b6020604051808303816000875af1158015611b96573d6000803e3d6000fd5b505050506040513d601f19601f82011682018060405250810190611bba9190613597565b505b336001600160a01b0316888a6001600160a01b03167fb7d014c56c56a5dc44dc51f228368ee105a714dc6d74ae5af0d7613a35b2aa8e878787604051611c0493929190613577565b60405180910390a485600103611c7f576040808501519051632142170760e11b81526001600160a01b038b16916342842e0e91611c48919033908d9060040161350e565b600060405180830381600087803b158015611c6257600080fd5b505af1158015611c76573d6000803e3d6000fd5b50505050611cec565b886001600160a01b031663f242432a8560400151338b88606001516040518563ffffffff1660e01b8152600401611cb99493929190613532565b600060405180830381600087803b158015611cd357600080fd5b505af1158015611ce7573d6000803e3d6000fd5b505050505b611cf689896128b1565b611d01898933612428565b505b505050611d106001600455565b5050505050565b60408051606081018252600080825260208201819052918101919091526001600160a01b038281166000908152600360205260409020600201541615611d9d57506001600160a01b039081166000908152600360209081526040918290208251606081018452815485168152600182015492810192909252600201549092169082015290565b6000611da883612a0a565b90506001600160a01b03811615611de457604080516060810182526001600160a01b039092168252600154602083015260009082015292915050565b50506040805160608101825260008082526020820181905291810191909152919050565b611e10612f76565b6001600160a01b0380851660009081526008602090815260408083208784526005908101835281842087861685526002908101845293829020825160c081018452815481526001820154948101949094529384015490941690820152600382015460608201526004820154608082015291015460a0820152611e92858261224f565b15610d2157949350505050565b611ea7612535565b600755565b611eb4612535565b6005805460ff1916911515919091179055565b611ecf612535565b600255565b60606000611ee186611fea565b90508084108015611ef25750600083115b15611fe1578281611f03828761348d565b1115611f1657611f138583613382565b90505b8067ffffffffffffffff811115611f2f57611f2f6134a0565b604051908082528060200260200182016040528015611f6857816020015b611f55612f76565b815260200190600190039081611f4d5790505b50925060005b81811015611fde57611fae88611fa8611f87898561348d565b6001600160a01b038c16600090815260086020526040902060030190612599565b89611e08565b848281518110611fc057611fc06134b6565b60200260200101819052508080611fd690613474565b915050611f6e565b50505b50949350505050565b6001600160a01b038116600090815260086020526040812061200e9060030161258f565b92915050565b61201c612535565b6001600160a01b0381166120815760405162461bcd60e51b815260206004820152602660248201527f4f776e61626c653a206e6577206f776e657220697320746865207a65726f206160448201526564647265737360d01b6064820152608401610625565b61208a81612941565b50565b612095612535565b60198160ff1611156120fd5760405162461bcd60e51b815260206004820152602b60248201527f417474656d707420746f207365742070657263656e746167652068696768657260448201526a103a3430b71019171a929760a91b6064820152608401610625565b6005805460ff9092166101000261ff0019909216919091179055565b6001600160a01b0382811660009081526008602090815260408083208584526002908101909252909120015416331461219f5760405162461bcd60e51b815260206004820152602260248201527f4f6e6c7920746f6b656e2073656c6c65722063616e2064656c69737420746f6b60448201526132b760f11b6064820152608401610625565b6001600160a01b03821660008181526008602090815260408083208584526002019091529081902090518392917f816eddcd06fe0e27a14975f0fa6ca175ea858df3a8f4b0a9aff734da679d3b4a916122399190815481526001820154602082015260028201546001600160a01b03166040820152600382015460608201526004820154608082015260059091015460a082015260c00190565b60405180910390a361224b82826128b1565b5050565b600081608001516002148015612269575060008260200151115b80156122785750428260a00151115b156122855750600161200e565b81608001516001148015612333575060208201516040808401519051636eb1769f60e11b81526001600160a01b0391821660048201523060248201527f00000000000000000000000000000000000000000000000000000000000000009091169063dd62ed3e90604401602060405180830381865afa15801561230c573d6000803e3d6000fd5b505050506040513d601f19601f8201168201806040525081019061233091906135b4565b10155b80156123d35750602082015160408084015190516370a0823160e01b81526001600160a01b0391821660048201527f0000000000000000000000000000000000000000000000000000000000000000909116906370a0823190602401602060405180830381865afa1580156123ac573d6000803e3d6000fd5b505050506040513d601f19601f820116820180604052508101906123d091906135b4565b10155b80156123e3575060008260200151115b80156123f25750428260a00151115b1561200e5750600192915050565b600061240c8383612a72565b9392505050565b600061240c836001600160a01b038416612a72565b6001600160a01b038316600090815260086020908152604080832085845260050190915290206124589082612ac1565b1561094c576001600160a01b03808416600090815260086020908152604080832086845260059081018084528285209587168552600280870185529285208581556001810186905592830180546001600160a01b03191690556003830185905560048301859055910183905591859052526124d39082612ae3565b506001600160a01b038316600090815260086020908152604080832085845260050190915290206125039061258f565b60000361094c576001600160a01b038316600090815260086020526040902061252f9060030183612af8565b50505050565b6000546001600160a01b03163314610c185760405162461bcd60e51b815260206004820181905260248201527f4f776e61626c653a2063616c6c6572206973206e6f7420746865206f776e65726044820152606401610625565b600061200e825490565b600061240c8383612b04565b6002600454036125f75760405162461bcd60e51b815260206004820152601f60248201527f5265656e7472616e637947756172643a207265656e7472616e742063616c6c006044820152606401610625565b6002600455565b6000816001036126845760405163e985e9c560e01b81526001600160a01b03848116600483015230602483015285919082169063e985e9c5906044015b602060405180830381865afa158015612658573d6000803e3d6000fd5b505050506040513d601f19601f8201168201806040525081019061267c9190613597565b91505061240c565b60405163e985e9c560e01b81526001600160a01b03848116600483015230602483015285919082169063e985e9c59060440161263b565b60008060006126c985611d17565b6020015160055490915060009082906126ec90610100900460ff166103e86135cd565b61ffff166126fa919061348d565b600554909150819061271490610100900460ff16876135e8565b61271e9190613607565b93508061272b83876135e8565b6127359190613607565b925050509250929050565b804710156127905760405162461bcd60e51b815260206004820152601d60248201527f416464726573733a20696e73756666696369656e742062616c616e63650000006044820152606401610625565b6000826001600160a01b03168260405160006040518083038185875af1925050503d80600081146127dd576040519150601f19603f3d011682016040523d82523d6000602084013e6127e2565b606091505b505090508061094c5760405162461bcd60e51b815260206004820152603a60248201527f416464726573733a20756e61626c6520746f2073656e642076616c75652c207260448201527f6563697069656e74206d617920686176652072657665727465640000000000006064820152608401610625565b61252f846323b872dd60e01b85858560405160240161287a9392919061350e565b60408051601f198184030181529190526020810180516001600160e01b03166001600160e01b031990931692909217909152612b2e565b6001600160a01b03821660009081526008602052604090206128d39082612c00565b1561224b576001600160a01b0382166000818152600860208181526040808420868552600280820184529185208581556001810186905591820180546001600160a01b03191690556003820185905560048201859055600590910184905593909252905261094c9082612af8565b600080546001600160a01b038381166001600160a01b0319831681178455604051919092169283917f8be0079c531659141344cd1fd0a4f28419497f9722a3daafe3b4186f6b6457e09190a35050565b60006129ab83836000015184604001518560800151612c18565b80156123d357506123d383836040015184608001516125fe565b61224b82826040516024016129db929190613679565b60408051601f198184030181529190526020810180516001600160e01b0316632d839cb360e21b179052612d38565b6000816001600160a01b0316638da5cb5b6040518163ffffffff1660e01b8152600401602060405180830381865afa925050508015612a66575060408051601f3d908101601f19168201909252612a639181019061369b565b60015b61200e57506000919050565b6000818152600183016020526040812054612ab95750815460018181018455600084815260208082209093018490558454848252828601909352604090209190915561200e565b50600061200e565b6001600160a01b0381166000908152600183016020526040812054151561240c565b600061240c836001600160a01b038416612d59565b600061240c8383612d59565b6000826000018281548110612b1b57612b1b6134b6565b9060005260206000200154905092915050565b6000612b83826040518060400160405280602081526020017f5361666545524332303a206c6f772d6c6576656c2063616c6c206661696c6564815250856001600160a01b0316612e539092919063ffffffff16565b80519091501561094c5780806020019051810190612ba19190613597565b61094c5760405162461bcd60e51b815260206004820152602a60248201527f5361666545524332303a204552433230206f7065726174696f6e20646964206e6044820152691bdd081cdd58d8d9595960b21b6064820152608401610625565b6000818152600183016020526040812054151561240c565b600081600103612cb1576040516331a9108f60e11b81526004810185905285906001600160a01b03821690636352211e90602401602060405180830381865afa925050508015612c85575060408051601f3d908101601f19168201909252612c829181019061369b565b60015b612c93576000915050612d30565b846001600160a01b0316816001600160a01b03161492505050612d30565b604051627eeac760e11b81526001600160a01b0384811660048301526024820186905286919082169062fdd58e90604401602060405180830381865afa925050508015612d1b575060408051601f3d908101601f19168201909252612d18918101906135b4565b60015b612d29576000915050612d30565b6001925050505b949350505050565b80516a636f6e736f6c652e6c6f67602083016000808483855afa5050505050565b60008181526001830160205260408120548015612e42576000612d7d600183613382565b8554909150600090612d9190600190613382565b9050818114612df6576000866000018281548110612db157612db16134b6565b9060005260206000200154905080876000018481548110612dd457612dd46134b6565b6000918252602080832090910192909255918252600188019052604090208390555b8554869080612e0757612e076136b8565b60019003818190600052602060002001600090559055856001016000868152602001908152602001600020600090556001935050505061200e565b600091505061200e565b5092915050565b6060612d30848460008585600080866001600160a01b03168587604051612e7a91906136ce565b60006040518083038185875af1925050503d8060008114612eb7576040519150601f19603f3d011682016040523d82523d6000602084013e612ebc565b606091505b5091509150612ecd87838387612ed8565b979650505050505050565b60608315612f47578251600003612f40576001600160a01b0385163b612f405760405162461bcd60e51b815260206004820152601d60248201527f416464726573733a2063616c6c20746f206e6f6e2d636f6e74726163740000006044820152606401610625565b5081612d30565b612d308383815115612f5c5781518083602001fd5b8060405162461bcd60e51b815260040161062591906136ea565b6040518060c00160405280600081526020016000815260200160006001600160a01b031681526020016000815260200160008152602001600081525090565b6001600160a01b038116811461208a57600080fd5b60008060008060008060c08789031215612fe357600080fd5b8635612fee81612fb5565b9860208801359850604088013597606081013597506080810135965060a00135945092505050565b6000806040838503121561302957600080fd5b823561303481612fb5565b946020939093013593505050565b60008060006060848603121561305757600080fd5b833561306281612fb5565b9250602084013561307281612fb5565b929592945050506040919091013590565b80518252602080820151908301526040808201516001600160a01b031690830152606080820151908301526080808201519083015260a090810151910152565b60c0810161200e8284613083565b6000602082840312156130e357600080fd5b5035919050565b6000806000606084860312156130ff57600080fd5b833561310a81612fb5565b95602085013595506040909401359392505050565b6020808252825182820181905260009190848201906040850190845b818110156131615761314e838551613083565b9284019260c0929092019160010161313b565b50909695505050505050565b600080600080600080600060e0888a03121561318857600080fd5b873561319381612fb5565b96506020880135955060408801356131aa81612fb5565b969995985095966060810135965060808101359560a0820135955060c0909101359350915050565b803560ff8116811461148357600080fd5b60008060008060008060c087890312156131fc57600080fd5b863561320781612fb5565b95506020870135945060408701359350606087013592506080870135915061323160a088016131d2565b90509295509295509295565b600080600080600060a0868803121561325557600080fd5b853561326081612fb5565b97602087013597506040870135966060810135965060800135945092505050565b60006020828403121561329357600080fd5b813561240c81612fb5565b6000806000606084860312156132b357600080fd5b83356132be81612fb5565b92506020840135915060408401356132d581612fb5565b809150509250925092565b801515811461208a57600080fd5b60006020828403121561330057600080fd5b813561240c816132e0565b6000806000806080858703121561332157600080fd5b843561332c81612fb5565b9350602085013561333c81612fb5565b93969395505050506040820135916060013590565b60006020828403121561336357600080fd5b61240c826131d2565b634e487b7160e01b600052601160045260246000fd5b8181038181111561200e5761200e61336c565b60208082526024908201527f506c6561736520656e7465722061206c6f6e67657220706572696f64206f662060408201526374696d6560e01b606082015260800190565b60208082526025908201527f506c6561736520656e74657220612073686f7274657220706572696f64206f666040820152642074696d6560d81b606082015260800190565b60208082526036908201527f506c65617365207365742074686520726f79616c74792070657263656e74616e60408201527567652062656c6f7720616c6c6f7765642072616e676560501b606082015260800190565b6000600182016134865761348661336c565b5060010190565b8082018082111561200e5761200e61336c565b634e487b7160e01b600052604160045260246000fd5b634e487b7160e01b600052603260045260246000fd5b60208082526022908201527f5468652076616c75652073656e642069732062656c6f772073616c6520707269604082015261636560f01b606082015260800190565b6001600160a01b039384168152919092166020820152604081019190915260600190565b6001600160a01b0394851681529290931660208301526040820152606081019190915260a060808201819052600490820152630307830360e41b60c082015260e00190565b61010081016135868286613083565b60c082019390935260e00152919050565b6000602082840312156135a957600080fd5b815161240c816132e0565b6000602082840312156135c657600080fd5b5051919050565b61ffff818116838216019080821115612e4c57612e4c61336c565b60008160001904831182151516156136025761360261336c565b500290565b60008261362457634e487b7160e01b600052601260045260246000fd5b500490565b60005b8381101561364457818101518382015260200161362c565b50506000910152565b60008151808452613665816020860160208601613629565b601f01601f19169290920160200192915050565b60408152600061368c604083018561364d565b90508260208301529392505050565b6000602082840312156136ad57600080fd5b815161240c81612fb5565b634e487b7160e01b600052603160045260246000fd5b600082516136e0818460208701613629565b9190910192915050565b60208152600061240c602083018461364d56fea2646970667358221220d7e6292116e81229db77ea8679424278afae452642a0398f0f5954e52a07fe3664736f6c63430008100033",
  "linkReferences": {},
  "deployedLinkReferences": {}
}