{
  "_format": "hh-sol-artifact-1",
  "contractName": "Market",
  "sourceName": "contracts/Market.sol",
  "abi": [
    {
      "inputs": [],
      "stateMutability": "nonpayable",
      "type": "constructor"
    },
    {
      "anonymous": false,
      "inputs": [
        {
          "indexed": false,
          "internalType": "address",
          "name": "contractAddress",
          "type": "address"
        }
      ],
      "name": "AuctionModified",
      "type": "event"
    },
    {
      "anonymous": false,
      "inputs": [
        {
          "indexed": false,
          "internalType": "bool",
          "name": "",
          "type": "bool"
        }
      ],
      "name": "AuctionStartSuspended",
      "type": "event"
    },
    {
      "anonymous": false,
      "inputs": [
        {
          "indexed": true,
          "internalType": "address",
          "name": "contractAdress",
          "type": "address"
        },
        {
          "indexed": false,
          "internalType": "uint256",
          "name": "feeRate",
          "type": "uint256"
        }
      ],
      "name": "CollectionFeeModified",
      "type": "event"
    },
    {
      "anonymous": false,
      "inputs": [
        {
          "indexed": true,
          "internalType": "address",
          "name": "contractAdress",
          "type": "address"
        }
      ],
      "name": "CollectionFeeReset",
      "type": "event"
    },
    {
      "anonymous": false,
      "inputs": [
        {
          "indexed": false,
          "internalType": "uint256",
          "name": "feeRate",
          "type": "uint256"
        }
      ],
      "name": "DefaultCollectionFeeModified",
      "type": "event"
    },
    {
      "anonymous": false,
      "inputs": [
        {
          "indexed": false,
          "internalType": "uint256",
          "name": "feeRate",
          "type": "uint256"
        }
      ],
      "name": "DefaultMarketFeeModified",
      "type": "event"
    },
    {
      "anonymous": false,
      "inputs": [
        {
          "indexed": false,
          "internalType": "address",
          "name": "contractAddress",
          "type": "address"
        }
      ],
      "name": "DutchAuctionModified",
      "type": "event"
    },
    {
      "anonymous": false,
      "inputs": [
        {
          "indexed": false,
          "internalType": "bool",
          "name": "",
          "type": "bool"
        }
      ],
      "name": "DutchAuctionStartSuspended",
      "type": "event"
    },
    {
      "anonymous": false,
      "inputs": [
        {
          "indexed": true,
          "internalType": "address",
          "name": "contractAddress",
          "type": "address"
        },
        {
          "indexed": false,
          "internalType": "uint256",
          "name": "feeRate",
          "type": "uint256"
        }
      ],
      "name": "MarketFeeModified",
      "type": "event"
    },
    {
      "anonymous": false,
      "inputs": [
        {
          "indexed": true,
          "internalType": "address",
          "name": "contractAddress",
          "type": "address"
        }
      ],
      "name": "MarketFeeReset",
      "type": "event"
    },
    {
      "anonymous": false,
      "inputs": [
        {
          "indexed": false,
          "internalType": "address",
          "name": "contractAddress",
          "type": "address"
        }
      ],
      "name": "OfferModified",
      "type": "event"
    },
    {
      "anonymous": false,
      "inputs": [
        {
          "indexed": false,
          "internalType": "bool",
          "name": "",
          "type": "bool"
        }
      ],
      "name": "OfferStartSuspended",
      "type": "event"
    },
    {
      "anonymous": false,
      "inputs": [
        {
          "indexed": true,
          "internalType": "address",
          "name": "previousOwner",
          "type": "address"
        },
        {
          "indexed": true,
          "internalType": "address",
          "name": "newOwner",
          "type": "address"
        }
      ],
      "name": "OwnershipTransferred",
      "type": "event"
    },
    {
      "anonymous": false,
      "inputs": [
        {
          "indexed": true,
          "internalType": "address",
          "name": "contractAddress",
          "type": "address"
        },
        {
          "indexed": true,
          "internalType": "uint256",
          "name": "tokenId",
          "type": "uint256"
        },
        {
          "indexed": false,
          "internalType": "address",
          "name": "from",
          "type": "address"
        },
        {
          "indexed": false,
          "internalType": "address",
          "name": "to",
          "type": "address"
        }
      ],
      "name": "Presented",
      "type": "event"
    },
    {
      "anonymous": false,
      "inputs": [
        {
          "indexed": false,
          "internalType": "address",
          "name": "contractAddress",
          "type": "address"
        }
      ],
      "name": "SaleModified",
      "type": "event"
    },
    {
      "anonymous": false,
      "inputs": [
        {
          "indexed": false,
          "internalType": "bool",
          "name": "",
          "type": "bool"
        }
      ],
      "name": "SaleStartSuspended",
      "type": "event"
    },
    {
      "inputs": [
        {
          "internalType": "uint256",
          "name": "offerId",
          "type": "uint256"
        }
      ],
      "name": "acceptOffer",
      "outputs": [],
      "stateMutability": "nonpayable",
      "type": "function"
    },
    {
      "inputs": [],
      "name": "auction",
      "outputs": [
        {
          "internalType": "address",
          "name": "",
          "type": "address"
        }
      ],
      "stateMutability": "view",
      "type": "function"
    },
    {
      "inputs": [
        {
          "internalType": "address",
          "name": "contractAddress",
          "type": "address"
        },
        {
          "internalType": "uint256",
          "name": "tokenId",
          "type": "uint256"
        },
        {
          "internalType": "uint256",
          "name": "startingPrice",
          "type": "uint256"
        },
        {
          "internalType": "uint256",
          "name": "period",
          "type": "uint256"
        }
      ],
      "name": "auction",
      "outputs": [],
      "stateMutability": "nonpayable",
      "type": "function"
    },
    {
      "inputs": [],
      "name": "auctionStartSuspended",
      "outputs": [
        {
          "internalType": "bool",
          "name": "",
          "type": "bool"
        }
      ],
      "stateMutability": "view",
      "type": "function"
    },
    {
      "inputs": [
        {
          "internalType": "uint256",
          "name": "auctionId",
          "type": "uint256"
        },
        {
          "internalType": "uint256",
          "name": "price",
          "type": "uint256"
        }
      ],
      "name": "bid",
      "outputs": [],
      "stateMutability": "payable",
      "type": "function"
    },
    {
      "inputs": [
        {
          "internalType": "uint256",
          "name": "saleId",
          "type": "uint256"
        }
      ],
      "name": "buy",
      "outputs": [],
      "stateMutability": "payable",
      "type": "function"
    },
    {
      "inputs": [
        {
          "internalType": "uint256",
          "name": "auctionId",
          "type": "uint256"
        }
      ],
      "name": "cancelAuction",
      "outputs": [],
      "stateMutability": "nonpayable",
      "type": "function"
    },
    {
      "inputs": [
        {
          "internalType": "uint256",
          "name": "auctionId",
          "type": "uint256"
        }
      ],
      "name": "cancelDutchAuction",
      "outputs": [],
      "stateMutability": "nonpayable",
      "type": "function"
    },
    {
      "inputs": [
        {
          "internalType": "uint256",
          "name": "offerId",
          "type": "uint256"
        }
      ],
      "name": "cancelOffer",
      "outputs": [],
      "stateMutability": "nonpayable",
      "type": "function"
    },
    {
      "inputs": [
        {
          "internalType": "uint256",
          "name": "saleId",
          "type": "uint256"
        }
      ],
      "name": "cancelSale",
      "outputs": [],
      "stateMutability": "nonpayable",
      "type": "function"
    },
    {
      "inputs": [],
      "name": "defaultFeeRateForCollection",
      "outputs": [
        {
          "internalType": "uint256",
          "name": "",
          "type": "uint256"
        }
      ],
      "stateMutability": "view",
      "type": "function"
    },
    {
      "inputs": [],
      "name": "defaultFeeRateForMarket",
      "outputs": [
        {
          "internalType": "uint256",
          "name": "",
          "type": "uint256"
        }
      ],
      "stateMutability": "view",
      "type": "function"
    },
    {
      "inputs": [
        {
          "internalType": "address",
          "name": "contractAddress",
          "type": "address"
        },
        {
          "internalType": "uint256",
          "name": "tokenId",
          "type": "uint256"
        },
        {
          "internalType": "uint256",
          "name": "startingPrice",
          "type": "uint256"
        },
        {
          "internalType": "uint256",
          "name": "endingPrice",
          "type": "uint256"
        },
        {
          "internalType": "uint256",
          "name": "period",
          "type": "uint256"
        },
        {
          "internalType": "uint256",
          "name": "startMargin",
          "type": "uint256"
        },
        {
          "internalType": "uint256",
          "name": "endMargin",
          "type": "uint256"
        }
      ],
      "name": "dutchAuction",
      "outputs": [],
      "stateMutability": "nonpayable",
      "type": "function"
    },
    {
      "inputs": [],
      "name": "dutchAuction",
      "outputs": [
        {
          "internalType": "address",
          "name": "",
          "type": "address"
        }
      ],
      "stateMutability": "view",
      "type": "function"
    },
    {
      "inputs": [
        {
          "internalType": "uint256",
          "name": "auctionId",
          "type": "uint256"
        }
      ],
      "name": "dutchAuctionBuy",
      "outputs": [],
      "stateMutability": "payable",
      "type": "function"
    },
    {
      "inputs": [],
      "name": "dutchAuctionStartSuspended",
      "outputs": [
        {
          "internalType": "bool",
          "name": "",
          "type": "bool"
        }
      ],
      "stateMutability": "view",
      "type": "function"
    },
    {
      "inputs": [
        {
          "internalType": "address",
          "name": "contractAddress",
          "type": "address"
        }
      ],
      "name": "feeRateForCollection",
      "outputs": [
        {
          "internalType": "uint256",
          "name": "",
          "type": "uint256"
        }
      ],
      "stateMutability": "view",
      "type": "function"
    },
    {
      "inputs": [
        {
          "internalType": "address",
          "name": "contractAddress",
          "type": "address"
        }
      ],
      "name": "feeRateForMarket",
      "outputs": [
        {
          "internalType": "uint256",
          "name": "",
          "type": "uint256"
        }
      ],
      "stateMutability": "view",
      "type": "function"
    },
    {
      "inputs": [
        {
          "internalType": "uint256",
          "name": "auctionId",
          "type": "uint256"
        }
      ],
      "name": "finishAuction",
      "outputs": [],
      "stateMutability": "nonpayable",
      "type": "function"
    },
    {
      "inputs": [
        {
          "internalType": "address",
          "name": "contractAddress",
          "type": "address"
        }
      ],
      "name": "fixedFeeRateForCollection",
      "outputs": [
        {
          "internalType": "uint256",
          "name": "",
          "type": "uint256"
        }
      ],
      "stateMutability": "view",
      "type": "function"
    },
    {
      "inputs": [
        {
          "internalType": "address",
          "name": "contractAddress",
          "type": "address"
        }
      ],
      "name": "fixedFeeRateForMarket",
      "outputs": [
        {
          "internalType": "uint256",
          "name": "",
          "type": "uint256"
        }
      ],
      "stateMutability": "view",
      "type": "function"
    },
    {
      "inputs": [],
      "name": "offer",
      "outputs": [
        {
          "internalType": "address",
          "name": "",
          "type": "address"
        }
      ],
      "stateMutability": "view",
      "type": "function"
    },
    {
      "inputs": [
        {
          "internalType": "address",
          "name": "contractAddress",
          "type": "address"
        },
        {
          "internalType": "uint256",
          "name": "tokenId",
          "type": "uint256"
        },
        {
          "internalType": "uint256",
          "name": "price",
          "type": "uint256"
        },
        {
          "internalType": "uint256",
          "name": "period",
          "type": "uint256"
        }
      ],
      "name": "offer",
      "outputs": [],
      "stateMutability": "payable",
      "type": "function"
    },
    {
      "inputs": [],
      "name": "offerStartSuspended",
      "outputs": [
        {
          "internalType": "bool",
          "name": "",
          "type": "bool"
        }
      ],
      "stateMutability": "view",
      "type": "function"
    },
    {
      "inputs": [],
      "name": "owner",
      "outputs": [
        {
          "internalType": "address",
          "name": "",
          "type": "address"
        }
      ],
      "stateMutability": "view",
      "type": "function"
    },
    {
      "inputs": [
        {
          "internalType": "address",
          "name": "contractAddress",
          "type": "address"
        },
        {
          "internalType": "uint256",
          "name": "tokenId",
          "type": "uint256"
        },
        {
          "internalType": "address",
          "name": "to",
          "type": "address"
        }
      ],
      "name": "present",
      "outputs": [],
      "stateMutability": "nonpayable",
      "type": "function"
    },
    {
      "inputs": [],
      "name": "renounceOwnership",
      "outputs": [],
      "stateMutability": "nonpayable",
      "type": "function"
    },
    {
      "inputs": [
        {
          "internalType": "address",
          "name": "contractAddress",
          "type": "address"
        }
      ],
      "name": "resetFixedFeeRateForCollection",
      "outputs": [],
      "stateMutability": "nonpayable",
      "type": "function"
    },
    {
      "inputs": [
        {
          "internalType": "address",
          "name": "contractAddress",
          "type": "address"
        }
      ],
      "name": "resetFixedFeeRateForMarket",
      "outputs": [],
      "stateMutability": "nonpayable",
      "type": "function"
    },
    {
      "inputs": [],
      "name": "sale",
      "outputs": [
        {
          "internalType": "address",
          "name": "",
          "type": "address"
        }
      ],
      "stateMutability": "view",
      "type": "function"
    },
    {
      "inputs": [],
      "name": "saleStartSuspended",
      "outputs": [
        {
          "internalType": "bool",
          "name": "",
          "type": "bool"
        }
      ],
      "stateMutability": "view",
      "type": "function"
    },
    {
      "inputs": [
        {
          "internalType": "address",
          "name": "contractAddress",
          "type": "address"
        },
        {
          "internalType": "uint256",
          "name": "tokenId",
          "type": "uint256"
        },
        {
          "internalType": "uint256",
          "name": "price",
          "type": "uint256"
        },
        {
          "internalType": "uint256",
          "name": "period",
          "type": "uint256"
        }
      ],
      "name": "sell",
      "outputs": [],
      "stateMutability": "nonpayable",
      "type": "function"
    },
    {
      "inputs": [
        {
          "internalType": "address",
          "name": "contractAddress",
          "type": "address"
        }
      ],
      "name": "setAuction",
      "outputs": [],
      "stateMutability": "nonpayable",
      "type": "function"
    },
    {
      "inputs": [
        {
          "internalType": "bool",
          "name": "flag",
          "type": "bool"
        }
      ],
      "name": "setAuctionStartSuspended",
      "outputs": [],
      "stateMutability": "nonpayable",
      "type": "function"
    },
    {
      "inputs": [
        {
          "internalType": "uint256",
          "name": "rate",
          "type": "uint256"
        }
      ],
      "name": "setDefaultFeeRateForCollection",
      "outputs": [],
      "stateMutability": "nonpayable",
      "type": "function"
    },
    {
      "inputs": [
        {
          "internalType": "uint256",
          "name": "rate",
          "type": "uint256"
        }
      ],
      "name": "setDefaultFeeRateForMarket",
      "outputs": [],
      "stateMutability": "nonpayable",
      "type": "function"
    },
    {
      "inputs": [
        {
          "internalType": "address",
          "name": "contractAddress",
          "type": "address"
        }
      ],
      "name": "setDutchAuction",
      "outputs": [],
      "stateMutability": "nonpayable",
      "type": "function"
    },
    {
      "inputs": [
        {
          "internalType": "bool",
          "name": "flag",
          "type": "bool"
        }
      ],
      "name": "setDutchAuctionStartSuspended",
      "outputs": [],
      "stateMutability": "nonpayable",
      "type": "function"
    },
    {
      "inputs": [
        {
          "internalType": "address",
          "name": "contractAddress",
          "type": "address"
        },
        {
          "internalType": "uint256",
          "name": "rate",
          "type": "uint256"
        }
      ],
      "name": "setFixedFeeRateForCollection",
      "outputs": [],
      "stateMutability": "nonpayable",
      "type": "function"
    },
    {
      "inputs": [
        {
          "internalType": "address",
          "name": "contractAddress",
          "type": "address"
        },
        {
          "internalType": "uint256",
          "name": "rate",
          "type": "uint256"
        }
      ],
      "name": "setFixedFeeRateForMarket",
      "outputs": [],
      "stateMutability": "nonpayable",
      "type": "function"
    },
    {
      "inputs": [
        {
          "internalType": "address",
          "name": "contractAddress",
          "type": "address"
        }
      ],
      "name": "setOffer",
      "outputs": [],
      "stateMutability": "nonpayable",
      "type": "function"
    },
    {
      "inputs": [
        {
          "internalType": "bool",
          "name": "flag",
          "type": "bool"
        }
      ],
      "name": "setOfferStartSuspended",
      "outputs": [],
      "stateMutability": "nonpayable",
      "type": "function"
    },
    {
      "inputs": [
        {
          "internalType": "address",
          "name": "contractAddress",
          "type": "address"
        }
      ],
      "name": "setSale",
      "outputs": [],
      "stateMutability": "nonpayable",
      "type": "function"
    },
    {
      "inputs": [
        {
          "internalType": "bool",
          "name": "flag",
          "type": "bool"
        }
      ],
      "name": "setSaleStartSuspended",
      "outputs": [],
      "stateMutability": "nonpayable",
      "type": "function"
    },
    {
      "inputs": [
        {
          "internalType": "address",
          "name": "newOwner",
          "type": "address"
        }
      ],
      "name": "transferOwnership",
      "outputs": [],
      "stateMutability": "nonpayable",
      "type": "function"
    },
    {
      "inputs": [
        {
          "internalType": "uint256",
          "name": "auctionId",
          "type": "uint256"
        }
      ],
      "name": "withdrawFromAuction",
      "outputs": [],
      "stateMutability": "nonpayable",
      "type": "function"
    },
    {
      "inputs": [
        {
          "internalType": "uint256",
          "name": "offerId",
          "type": "uint256"
        }
      ],
      "name": "withdrawFromOffer",
      "outputs": [],
      "stateMutability": "nonpayable",
      "type": "function"
    }
  ],
  "bytecode": "0x608060405234801561001057600080fd5b5061001a3361009a565b6103e8600581905560068190556040519081527f7059b571021d4ad8df69dd3a1938ac83f3e3c1bbd7326aa49b6a2d0910fa122c9060200160405180910390a17f307ceadefe3b54aa02f6a9165ee55dd5fc4fd8779be2a85c755b157a0b8e6fd760065460405161008d91815260200190565b60405180910390a16100ea565b600080546001600160a01b038381166001600160a01b0319831681178455604051919092169283917f8be0079c531659141344cd1fd0a4f28419497f9722a3daafe3b4186f6b6457e09190a35050565b61263780620000fa6000396000f3fe6080604052600436106102885760003560e01c80638da5cb5b1161015a578063cf266ed0116100c1578063e13732891161007a578063e1373289146107b9578063e9f3a76b146107d9578063ef706adf146107f8578063f2b9fb7314610818578063f2fde38b14610838578063f3e962c11461085857600080fd5b8063cf266ed0146106f0578063d44d9a4a14610710578063d640e9a314610730578063d96a094a14610766578063ddee843314610779578063de8eb6e01461079957600080fd5b8063b41b335311610113578063b41b335314610632578063b8c6f57914610652578063baa283d314610672578063bd94b00514610692578063c028df06146106b2578063c815729d146106d057600080fd5b80638da5cb5b1461056157806392cdbac51461057f578063950ec04d1461059f57806396b5a755146105d55780639da0d7d4146105f5578063b150f48f1461061357600080fd5b8063422927ad116101fe57806353a35586116101b757806353a35586146104aa578063598647f8146104ca5780636ad1fe02146104dd578063715018a61461050f5780637d9f6db514610524578063827c40e21461054257600080fd5b8063422927ad146103ec578063446c4bd71461040c578063467a5cbc14610437578063489b5a521461044a5780634a35b1471461046a57806350b20d8d1461048a57600080fd5b80632811cec8116102505780632811cec8146103425780632bebc51914610362578063317c1dd91461038257806336af50fd146103a257806337ffe0e5146103c257806340efee65146103d757600080fd5b806306435a011461028d578063066701ea146102af5780630cac10ee146102e25780630dfef3d21461030257806327e5a09514610322575b600080fd5b34801561029957600080fd5b506102ad6102a8366004612204565b61086b565b005b3480156102bb57600080fd5b506102cf6102ca366004612242565b6108cb565b6040519081526020015b60405180910390f35b3480156102ee57600080fd5b506102ad6102fd36600461225f565b61090d565b34801561030e57600080fd5b506102ad61031d366004612204565b610a56565b34801561032e57600080fd5b506102ad61033d366004612242565b610aab565b34801561034e57600080fd5b506102ad61035d366004612242565b610af7565b34801561036e57600080fd5b506102ad61037d3660046122b4565b610b43565b34801561038e57600080fd5b506102ad61039d3660046122cd565b610c4f565b3480156103ae57600080fd5b506102ad6103bd366004612242565b610d99565b3480156103ce57600080fd5b506006546102cf565b3480156103e357600080fd5b506005546102cf565b3480156103f857600080fd5b506102ad6104073660046122b4565b610def565b34801561041857600080fd5b50600054600160b01b900460ff165b60405190151581526020016102d9565b6102ad6104453660046122b4565b610eaf565b34801561045657600080fd5b506102ad610465366004612242565b611064565b34801561047657600080fd5b506102cf610485366004612242565b6110ba565b34801561049657600080fd5b506102ad6104a536600461230f565b6110f6565b3480156104b657600080fd5b506102ad6104c536600461230f565b611157565b6102ad6104d836600461233b565b6111ac565b3480156104e957600080fd5b506001546001600160a01b03165b6040516001600160a01b0390911681526020016102d9565b34801561051b57600080fd5b506102ad6112ca565b34801561053057600080fd5b506003546001600160a01b03166104f7565b34801561054e57600080fd5b50600054600160b81b900460ff16610427565b34801561056d57600080fd5b506000546001600160a01b03166104f7565b34801561058b57600080fd5b506102ad61059a36600461235d565b6112de565b3480156105ab57600080fd5b506102cf6105ba366004612242565b6001600160a01b031660009081526007602052604090205490565b3480156105e157600080fd5b506102ad6105f03660046122b4565b6113d2565b34801561060157600080fd5b506004546001600160a01b03166104f7565b34801561061f57600080fd5b50600054600160a81b900460ff16610427565b34801561063e57600080fd5b506102ad61064d366004612242565b611462565b34801561065e57600080fd5b506102ad61066d366004612242565b6114b8565b34801561067e57600080fd5b506102ad61068d36600461235d565b61150e565b34801561069e57600080fd5b506102ad6106ad3660046122b4565b6115d1565b3480156106be57600080fd5b506002546001600160a01b03166104f7565b3480156106dc57600080fd5b506102ad6106eb3660046122b4565b611630565b3480156106fc57600080fd5b506102ad61070b3660046122b4565b611769565b34801561071c57600080fd5b506102ad61072b366004612204565b6118a2565b34801561073c57600080fd5b506102cf61074b366004612242565b6001600160a01b031660009081526008602052604090205490565b6102ad6107743660046122b4565b6118f7565b34801561078557600080fd5b506102ad6107943660046122b4565b611a36565b3480156107a557600080fd5b506102ad6107b43660046122b4565b611abe565b3480156107c557600080fd5b506102ad6107d43660046122b4565b611afb565b3480156107e557600080fd5b50600054600160a01b900460ff16610427565b34801561080457600080fd5b506102ad6108133660046122b4565b611b38565b34801561082457600080fd5b506102ad610833366004612204565b611b97565b34801561084457600080fd5b506102ad610853366004612242565b611bec565b6102ad61086636600461235d565b611c65565b610873611d2c565b60008054821515600160b01b0260ff60b01b199091161790556040517fef4d462e266681995abe03686a013181b12fe838687141dc71501ebdc29b1830906108c090831515815260200190565b60405180910390a150565b6001600160a01b0381166000908152600860205260408120548015610903576127108111156108fd5750600092915050565b92915050565b5050600654919050565b6004546001600160a01b03166109625760405162461bcd60e51b815260206004820152601560248201527434b73b30b634b210323aba31b41030bab1ba34b7b760591b60448201526064015b60405180910390fd5b600054600160b81b900460ff16156109bc5760405162461bcd60e51b815260206004820152601760248201527f64757463685f61756374696f6e2073757370656e6465640000000000000000006044820152606401610959565b60048054604051632e8f0e1760e11b815233928101929092526001600160a01b03898116602484015260448301899052606483018890526084830187905260a4830186905260c4830185905260e483018490521690635d1e1c2e9061010401600060405180830381600087803b158015610a3557600080fd5b505af1158015610a49573d6000803e3d6000fd5b5050505050505050505050565b610a5e611d2c565b60008054821515600160a81b0260ff60a81b199091161790556040517fe4cb270a6180102d69d37cbaeec7cae3a282e54380ae0d215a201b0da9beada4906108c090831515815260200190565b610ab3611d2c565b6001600160a01b038116600081815260086020526040808220829055517fd5493c42280272429b8ae987ea9738cfad108a2c92701ff1d4613c6b66a9858d9190a250565b610aff611d2c565b6001600160a01b038116600081815260076020526040808220829055517fde41fb1ce5ec5ca83094dc27263f9a5d605331b6885f4c429a5bce5b466a8bcb9190a250565b6002546001600160a01b0316610b6b5760405162461bcd60e51b815260040161095990612398565b600254604051634ff20e3360e11b8152336004820152602481018390526001600160a01b0390911690639fe41c66906044015b600060405180830381600087803b158015610bb857600080fd5b505af1158015610bcc573d6000803e3d6000fd5b505060025460405163586ee29f60e01b815260048101859052600093506001600160a01b03909116915063586ee29f906024015b6040805180830381865afa158015610c1c573d6000803e3d6000fd5b505050506040513d601f19601f82011682018060405250810190610c4091906123d5565b9050610c4b81611d86565b5050565b6040516331a9108f60e11b81526004810183905283906000906001600160a01b03831690636352211e90602401602060405180830381865afa158015610c99573d6000803e3d6000fd5b505050506040513d601f19601f82011682018060405250810190610cbd9190612455565b90506001600160a01b0381163314610d175760405162461bcd60e51b815260206004820152601760248201527f73656e646572206973206e6f7420746865206f776e65720000000000000000006044820152606401610959565b604080513381526001600160a01b0385811660208301528692908816917f42f5ff7edf203644f445dee8fcb364f2239655a8596caf7077859741575fa761910160405180910390a3610d676121e6565b6001600160a01b0386811682526020820186905233604083015284166060820152610d9181611dec565b505050505050565b610da1611d2c565b600180546001600160a01b0319166001600160a01b0383169081179091556040519081527fcfb2c01e35e231dcc9ca9c12902447fc67cd471eec8d54baa7a4b8fdf8f65fb3906020016108c0565b6003546001600160a01b0316610e175760405162461bcd60e51b815260040161095990612472565b60035460405163bfbe32ff60e01b8152336004820152602481018390526001600160a01b039091169063bfbe32ff90604401600060405180830381600087803b158015610e6357600080fd5b505af1158015610e77573d6000803e3d6000fd5b505060035460405163586ee29f60e01b815260048101859052600093506001600160a01b03909116915063586ee29f90602401610c00565b6004546001600160a01b0316610eff5760405162461bcd60e51b815260206004820152601560248201527434b73b30b634b210323aba31b42fb0bab1ba34b7b760591b6044820152606401610959565b60048054604051636d51da0360e11b81523392810192909252602482018390523460448301526001600160a01b03169063daa3b40690606401600060405180830381600087803b158015610f5257600080fd5b505af1158015610f66573d6000803e3d6000fd5b50506004805460405163cc47e9bd60e01b8152918201859052600093506001600160a01b0316915063cc47e9bd90602401608060405180830381865afa158015610fb4573d6000803e3d6000fd5b505050506040513d601f19601f82011682018060405250810190610fd8919061249b565b9050610fe381611dec565b60048054604051631c14c36b60e21b81529182018490526000916001600160a01b03909116906370530dac906024015b606060405180830381865afa158015611030573d6000803e3d6000fd5b505050506040513d601f19601f8201168201806040525081019061105491906124f4565b905061105f81611f1c565b505050565b61106c611d2c565b600480546001600160a01b0319166001600160a01b0383169081179091556040519081527fc80aef48af3b57c900d317314e0c44f59152cb23765e5ab92e6d76d9d330b1ad906020016108c0565b6001600160a01b03811660009081526007602052604081205480156110ec576127108111156108fd5750600092915050565b5050600554919050565b6110fe611d2c565b6001600160a01b03821660008181526008602052604090819020839055517f3c37e65e841df9a1648b1f5462483d8d2dcd0d3b503be27919e9860c985a3c7c9061114b9084815260200190565b60405180910390a25050565b61115f611d2c565b6001600160a01b03821660008181526007602052604090819020839055517f1ab9598113119864fdf7b5fc7b40ae703ef9b8c3de5801dbf4f7903c03761ac39061114b9084815260200190565b6003546001600160a01b03166111d45760405162461bcd60e51b815260040161095990612472565b60035460405163586ee29f60e01b8152600481018490526000916001600160a01b03169063586ee29f906024016040805180830381865afa15801561121d573d6000803e3d6000fd5b505050506040513d601f19601f8201168201806040525081019061124191906123d5565b8051909150156112545761125481611d86565b600354604051638f70585f60e01b815233600482015260248101859052604481018490523460648201526001600160a01b0390911690638f70585f90608401600060405180830381600087803b1580156112ad57600080fd5b505af11580156112c1573d6000803e3d6000fd5b50505050505050565b6112d2611d2c565b6112dc6000612196565b565b6001546001600160a01b03166113065760405162461bcd60e51b81526004016109599061254d565b600054600160a01b900460ff16156113515760405162461bcd60e51b815260206004820152600e60248201526d1cd85b19481cdd5cdc195b99195960921b6044820152606401610959565b60015460405163b8a9ddeb60e01b81523360048201526001600160a01b0386811660248301526044820186905260648201859052608482018490529091169063b8a9ddeb9060a4015b600060405180830381600087803b1580156113b457600080fd5b505af11580156113c8573d6000803e3d6000fd5b5050505050505050565b6003546001600160a01b03166113fa5760405162461bcd60e51b815260040161095990612472565b6003546040516342cdcbff60e11b8152336004820152602481018390526001600160a01b039091169063859b97fe906044015b600060405180830381600087803b15801561144757600080fd5b505af115801561145b573d6000803e3d6000fd5b5050505050565b61146a611d2c565b600280546001600160a01b0319166001600160a01b0383169081179091556040519081527f686301cabec923226a08e855af6742054c1ad1c50a1f396ee66b32e4e130604f906020016108c0565b6114c0611d2c565b600380546001600160a01b0319166001600160a01b0383169081179091556040519081527fe5dd475f4b376b99523a0a974bd62fa7cab3c0ef8137feee65d5cf11af6993b1906020016108c0565b6003546001600160a01b03166115365760405162461bcd60e51b815260040161095990612472565b600054600160b01b900460ff16156115845760405162461bcd60e51b8152602060048201526011602482015270185d58dd1a5bdb881cdd5cdc195b991959607a1b6044820152606401610959565b60035460405163c81a404960e01b81523360048201526001600160a01b0386811660248301526044820186905260648201859052608482018490529091169063c81a40499060a40161139a565b6001546001600160a01b03166115f95760405162461bcd60e51b81526004016109599061254d565b6001546040516316f3a95b60e01b8152336004820152602481018390526001600160a01b03909116906316f3a95b9060440161142d565b6002546001600160a01b03166116585760405162461bcd60e51b815260040161095990612398565b60025460405163b1b9e78d60e01b8152336004820152602481018390526001600160a01b039091169063b1b9e78d90604401600060405180830381600087803b1580156116a457600080fd5b505af11580156116b8573d6000803e3d6000fd5b505060025460405163cc47e9bd60e01b815260048101859052600093506001600160a01b03909116915063cc47e9bd90602401608060405180830381865afa158015611708573d6000803e3d6000fd5b505050506040513d601f19601f8201168201806040525081019061172c919061249b565b905061173781611dec565b600254604051631c14c36b60e21b8152600481018490526000916001600160a01b0316906370530dac90602401611013565b6003546001600160a01b03166117915760405162461bcd60e51b815260040161095990612472565b6003546040516351f6adf360e11b8152336004820152602481018390526001600160a01b039091169063a3ed5be690604401600060405180830381600087803b1580156117dd57600080fd5b505af11580156117f1573d6000803e3d6000fd5b505060035460405163cc47e9bd60e01b815260048101859052600093506001600160a01b03909116915063cc47e9bd90602401608060405180830381865afa158015611841573d6000803e3d6000fd5b505050506040513d601f19601f82011682018060405250810190611865919061249b565b905061187081611dec565b600354604051631c14c36b60e21b8152600481018490526000916001600160a01b0316906370530dac90602401611013565b6118aa611d2c565b60008054821515600160a01b0260ff60a01b199091161790556040517f1a5f476ab0f4a63d7f552dba130ed324a76432ec927e41778c40f8a6581db93e906108c090831515815260200190565b6001546001600160a01b031661191f5760405162461bcd60e51b81526004016109599061254d565b60015460405163a59ac6dd60e01b8152336004820152602481018390523460448201526001600160a01b039091169063a59ac6dd90606401600060405180830381600087803b15801561197157600080fd5b505af1158015611985573d6000803e3d6000fd5b505060015460405163cc47e9bd60e01b815260048101859052600093506001600160a01b03909116915063cc47e9bd90602401608060405180830381865afa1580156119d5573d6000803e3d6000fd5b505050506040513d601f19601f820116820180604052508101906119f9919061249b565b9050611a0481611dec565b600154604051631c14c36b60e21b8152600481018490526000916001600160a01b0316906370530dac90602401611013565b6004546001600160a01b0316611a865760405162461bcd60e51b815260206004820152601560248201527434b73b30b634b210323aba31b41030bab1ba34b7b760591b6044820152606401610959565b6004805460405163f080e0bf60e01b81523392810192909252602482018390526001600160a01b03169063f080e0bf9060440161142d565b611ac6611d2c565b60068190556040518181527f307ceadefe3b54aa02f6a9165ee55dd5fc4fd8779be2a85c755b157a0b8e6fd7906020016108c0565b611b03611d2c565b60058190556040518181527f7059b571021d4ad8df69dd3a1938ac83f3e3c1bbd7326aa49b6a2d0910fa122c906020016108c0565b6002546001600160a01b0316611b605760405162461bcd60e51b815260040161095990612398565b60025460405163016295ab60e21b8152336004820152602481018390526001600160a01b039091169063058a56ac90604401610b9e565b611b9f611d2c565b60008054821515600160b81b0260ff60b81b199091161790556040517fc265b2a684b39091d2a2dfbfb2e44b898462b21671f43abdb01ead9cbf0500c9906108c090831515815260200190565b611bf4611d2c565b6001600160a01b038116611c595760405162461bcd60e51b815260206004820152602660248201527f4f776e61626c653a206e6577206f776e657220697320746865207a65726f206160448201526564647265737360d01b6064820152608401610959565b611c6281612196565b50565b6002546001600160a01b0316611c8d5760405162461bcd60e51b815260040161095990612398565b600054600160a81b900460ff1615611cd95760405162461bcd60e51b815260206004820152600f60248201526e1bd999995c881cdd5cdc195b991959608a1b6044820152606401610959565b6002546040516335b7aefd60e01b81523360048201526001600160a01b0386811660248301526044820186905260648201859052608482018490523460a4830152909116906335b7aefd9060c40161139a565b6000546001600160a01b031633146112dc5760405162461bcd60e51b815260206004820181905260248201527f4f776e61626c653a2063616c6c6572206973206e6f7420746865206f776e65726044820152606401610959565b8051600003611da75760405162461bcd60e51b815260040161095990612573565b8051602082015115610c4b5760208201516040516001600160a01b0383169180156108fc02916000818181858888f1935050505015801561105f573d6000803e3d6000fd5b8051600003611e305760405162461bcd60e51b815260206004820152601060248201526f1a5b9d985b1a590818dbdb9d1c9858dd60821b6044820152606401610959565b6040810151600003611e735760405162461bcd60e51b815260206004820152600c60248201526b696e76616c69642066726f6d60a01b6044820152606401610959565b6060810151600003611e975760405162461bcd60e51b815260040161095990612573565b8051602082015160408084015160608501519151632142170760e11b81526001600160a01b0380831660048301528084166024830152604482018590529192918516906342842e0e90606401600060405180830381600087803b158015611efd57600080fd5b505af1158015611f11573d6000803e3d6000fd5b505050505050505050565b8051600003611f3d5760405162461bcd60e51b815260040161095990612573565b6020810151600003611f915760405162461bcd60e51b815260206004820152601860248201527f696e76616c696420636f6e7472616374206164647265737300000000000000006044820152606401610959565b805160208083015160408051638da5cb5b60e01b81529051919283926000926001600160a01b03851692638da5cb5b926004808401938290030181865afa158015611fe0573d6000803e3d6000fd5b505050506040513d601f19601f820116820180604052508101906120049190612455565b9050600061201a6000546001600160a01b031690565b60408701519091506001600160a01b03808316908716146120bb576000612040866110ba565b905061271081896002602002015161205891906125ad565b61206291906125cc565b905080156120b957818111156120755750805b6040516001600160a01b0384169082156108fc029083906000818181858888f193505050501580156120ab573d6000803e3d6000fd5b506120b681836125ee565b91505b505b856001600160a01b0316836001600160a01b03161461215a5760006120df866108cb565b90506127108189600260200201516120f791906125ad565b61210191906125cc565b9050801561215857818111156121145750805b6040516001600160a01b0385169082156108fc029083906000818181858888f1935050505015801561214a573d6000803e3d6000fd5b5061215581836125ee565b91505b505b80156112c1576040516001600160a01b0387169082156108fc029083906000818181858888f193505050501580156113c8573d6000803e3d6000fd5b600080546001600160a01b038381166001600160a01b0319831681178455604051919092169283917f8be0079c531659141344cd1fd0a4f28419497f9722a3daafe3b4186f6b6457e09190a35050565b60405180608001604052806004906020820280368337509192915050565b60006020828403121561221657600080fd5b8135801515811461222657600080fd5b9392505050565b6001600160a01b0381168114611c6257600080fd5b60006020828403121561225457600080fd5b81356122268161222d565b600080600080600080600060e0888a03121561227a57600080fd5b87356122858161222d565b9960208901359950604089013598606081013598506080810135975060a0810135965060c00135945092505050565b6000602082840312156122c657600080fd5b5035919050565b6000806000606084860312156122e257600080fd5b83356122ed8161222d565b92506020840135915060408401356123048161222d565b809150509250925092565b6000806040838503121561232257600080fd5b823561232d8161222d565b946020939093013593505050565b6000806040838503121561234e57600080fd5b50508035926020909101359150565b6000806000806080858703121561237357600080fd5b843561237e8161222d565b966020860135965060408601359560600135945092505050565b6020808252600d908201526c34b73b30b634b21037b33332b960991b604082015260600190565b634e487b7160e01b600052604160045260246000fd5b6000604082840312156123e757600080fd5b82601f8301126123f657600080fd5b6040516040810181811067ffffffffffffffff82111715612419576124196123bf565b806040525080604084018581111561243057600080fd5b845b8181101561244a578051835260209283019201612432565b509195945050505050565b60006020828403121561246757600080fd5b81516122268161222d565b6020808252600f908201526e34b73b30b634b21030bab1ba34b7b760891b604082015260600190565b6000608082840312156124ad57600080fd5b82601f8301126124bc57600080fd5b6040516080810181811067ffffffffffffffff821117156124df576124df6123bf565b60405280608084018581111561243057600080fd5b60006060828403121561250657600080fd5b82601f83011261251557600080fd5b6040516060810181811067ffffffffffffffff82111715612538576125386123bf565b60405280606084018581111561243057600080fd5b6020808252600c908201526b696e76616c69642073616c6560a01b604082015260600190565b6020808252600a9082015269696e76616c696420746f60b01b604082015260600190565b634e487b7160e01b600052601160045260246000fd5b60008160001904831182151516156125c7576125c7612597565b500290565b6000826125e957634e487b7160e01b600052601260045260246000fd5b500490565b818103818111156108fd576108fd61259756fea2646970667358221220115da28e3edd13c15568f777993416f94670a217e4e85d7c460d63a2f73b22fe64736f6c63430008100033",
  "linkReferences": {},
  "deployedLinkReferences": {}
}