{
  "_format": "hh-sol-artifact-1",
  "contractName": "Marketplace",
  "sourceName": "contracts/Marketplace.sol",
  "abi": [
    {
      "inputs": [
        {
          "internalType": "address",
          "name": "_paymentTokenAddress",
          "type": "address"
        }
      ],
      "stateMutability": "nonpayable",
      "type": "constructor"
    },
    {
      "anonymous": false,
      "inputs": [
        {
          "indexed": true,
          "internalType": "address",
          "name": "previousOwner",
          "type": "address"
        },
        {
          "indexed": true,
          "internalType": "address",
          "name": "newOwner",
          "type": "address"
        }
      ],
      "name": "OwnershipTransferred",
      "type": "event"
    },
    {
      "anonymous": false,
      "inputs": [
        {
          "indexed": true,
          "internalType": "address",
          "name": "contractAddress",
          "type": "address"
        },
        {
          "indexed": true,
          "internalType": "address",
          "name": "recipient",
          "type": "address"
        },
        {
          "indexed": false,
          "internalType": "uint256",
          "name": "feeFraction",
          "type": "uint256"
        }
      ],
      "name": "SetRoyalty",
      "type": "event"
    },
    {
      "anonymous": false,
      "inputs": [
        {
          "indexed": true,
          "internalType": "address",
          "name": "contractAddress",
          "type": "address"
        },
        {
          "indexed": true,
          "internalType": "uint256",
          "name": "tokenId",
          "type": "uint256"
        },
        {
          "indexed": true,
          "internalType": "address",
          "name": "seller",
          "type": "address"
        },
        {
          "components": [
            {
              "internalType": "uint256",
              "name": "tokenId",
              "type": "uint256"
            },
            {
              "internalType": "uint256",
              "name": "value",
              "type": "uint256"
            },
            {
              "internalType": "address",
              "name": "bidder",
              "type": "address"
            },
            {
              "internalType": "uint256",
              "name": "nftCount",
              "type": "uint256"
            },
            {
              "internalType": "uint256",
              "name": "tokenType",
              "type": "uint256"
            },
            {
              "internalType": "uint256",
              "name": "expireTimestamp",
              "type": "uint256"
            }
          ],
          "indexed": false,
          "internalType": "struct IMarketplace.Bid",
          "name": "bid",
          "type": "tuple"
        },
        {
          "indexed": false,
          "internalType": "uint256",
          "name": "serviceFee",
          "type": "uint256"
        },
        {
          "indexed": false,
          "internalType": "uint256",
          "name": "royaltyFee",
          "type": "uint256"
        }
      ],
      "name": "TokenBidAccepted",
      "type": "event"
    },
    {
      "anonymous": false,
      "inputs": [
        {
          "indexed": true,
          "internalType": "address",
          "name": "contractAddress",
          "type": "address"
        },
        {
          "indexed": true,
          "internalType": "uint256",
          "name": "tokenId",
          "type": "uint256"
        },
        {
          "components": [
            {
              "internalType": "uint256",
              "name": "tokenId",
              "type": "uint256"
            },
            {
              "internalType": "uint256",
              "name": "value",
              "type": "uint256"
            },
            {
              "internalType": "address",
              "name": "bidder",
              "type": "address"
            },
            {
              "internalType": "uint256",
              "name": "nftCount",
              "type": "uint256"
            },
            {
              "internalType": "uint256",
              "name": "tokenType",
              "type": "uint256"
            },
            {
              "internalType": "uint256",
              "name": "expireTimestamp",
              "type": "uint256"
            }
          ],
          "indexed": false,
          "internalType": "struct IMarketplace.Bid",
          "name": "bid",
          "type": "tuple"
        }
      ],
      "name": "TokenBidEntered",
      "type": "event"
    },
    {
      "anonymous": false,
      "inputs": [
        {
          "indexed": true,
          "internalType": "address",
          "name": "contractAddress",
          "type": "address"
        },
        {
          "indexed": true,
          "internalType": "uint256",
          "name": "tokenId",
          "type": "uint256"
        },
        {
          "components": [
            {
              "internalType": "uint256",
              "name": "tokenId",
              "type": "uint256"
            },
            {
              "internalType": "uint256",
              "name": "value",
              "type": "uint256"
            },
            {
              "internalType": "address",
              "name": "bidder",
              "type": "address"
            },
            {
              "internalType": "uint256",
              "name": "nftCount",
              "type": "uint256"
            },
            {
              "internalType": "uint256",
              "name": "tokenType",
              "type": "uint256"
            },
            {
              "internalType": "uint256",
              "name": "expireTimestamp",
              "type": "uint256"
            }
          ],
          "indexed": false,
          "internalType": "struct IMarketplace.Bid",
          "name": "bid",
          "type": "tuple"
        }
      ],
      "name": "TokenBidWithdrawn",
      "type": "event"
    },
    {
      "anonymous": false,
      "inputs": [
        {
          "indexed": true,
          "internalType": "address",
          "name": "contractAddress",
          "type": "address"
        },
        {
          "indexed": true,
          "internalType": "uint256",
          "name": "tokenId",
          "type": "uint256"
        },
        {
          "indexed": true,
          "internalType": "address",
          "name": "buyer",
          "type": "address"
        },
        {
          "components": [
            {
              "internalType": "uint256",
              "name": "tokenId",
              "type": "uint256"
            },
            {
              "internalType": "uint256",
              "name": "value",
              "type": "uint256"
            },
            {
              "internalType": "address",
              "name": "seller",
              "type": "address"
            },
            {
              "internalType": "uint256",
              "name": "nftCount",
              "type": "uint256"
            },
            {
              "internalType": "uint256",
              "name": "tokenType",
              "type": "uint256"
            },
            {
              "internalType": "uint256",
              "name": "expireTimestamp",
              "type": "uint256"
            }
          ],
          "indexed": false,
          "internalType": "struct IMarketplace.Listing",
          "name": "listing",
          "type": "tuple"
        },
        {
          "indexed": false,
          "internalType": "uint256",
          "name": "serviceFee",
          "type": "uint256"
        },
        {
          "indexed": false,
          "internalType": "uint256",
          "name": "royaltyFee",
          "type": "uint256"
        }
      ],
      "name": "TokenBought",
      "type": "event"
    },
    {
      "anonymous": false,
      "inputs": [
        {
          "indexed": true,
          "internalType": "address",
          "name": "contractAddress",
          "type": "address"
        },
        {
          "indexed": true,
          "internalType": "uint256",
          "name": "tokenId",
          "type": "uint256"
        },
        {
          "components": [
            {
              "internalType": "uint256",
              "name": "tokenId",
              "type": "uint256"
            },
            {
              "internalType": "uint256",
              "name": "value",
              "type": "uint256"
            },
            {
              "internalType": "address",
              "name": "seller",
              "type": "address"
            },
            {
              "internalType": "uint256",
              "name": "nftCount",
              "type": "uint256"
            },
            {
              "internalType": "uint256",
              "name": "tokenType",
              "type": "uint256"
            },
            {
              "internalType": "uint256",
              "name": "expireTimestamp",
              "type": "uint256"
            }
          ],
          "indexed": false,
          "internalType": "struct IMarketplace.Listing",
          "name": "listing",
          "type": "tuple"
        }
      ],
      "name": "TokenDelisted",
      "type": "event"
    },
    {
      "anonymous": false,
      "inputs": [
        {
          "indexed": true,
          "internalType": "address",
          "name": "contractAddress",
          "type": "address"
        },
        {
          "indexed": true,
          "internalType": "uint256",
          "name": "tokenId",
          "type": "uint256"
        },
        {
          "components": [
            {
              "internalType": "uint256",
              "name": "tokenId",
              "type": "uint256"
            },
            {
              "internalType": "uint256",
              "name": "value",
              "type": "uint256"
            },
            {
              "internalType": "address",
              "name": "seller",
              "type": "address"
            },
            {
              "internalType": "uint256",
              "name": "nftCount",
              "type": "uint256"
            },
            {
              "internalType": "uint256",
              "name": "tokenType",
              "type": "uint256"
            },
            {
              "internalType": "uint256",
              "name": "expireTimestamp",
              "type": "uint256"
            }
          ],
          "indexed": false,
          "internalType": "struct IMarketplace.Listing",
          "name": "listing",
          "type": "tuple"
        }
      ],
      "name": "TokenListed",
      "type": "event"
    },
    {
      "inputs": [
        {
          "internalType": "address",
          "name": "contractAddress",
          "type": "address"
        },
        {
          "internalType": "uint256",
          "name": "tokenId",
          "type": "uint256"
        },
        {
          "internalType": "address",
          "name": "bidder",
          "type": "address"
        },
        {
          "internalType": "uint256",
          "name": "tokenType",
          "type": "uint256"
        },
        {
          "internalType": "uint256",
          "name": "nftAmount",
          "type": "uint256"
        },
        {
          "internalType": "uint256",
          "name": "paymentTokenType",
          "type": "uint256"
        },
        {
          "internalType": "uint256",
          "name": "value",
          "type": "uint256"
        }
      ],
      "name": "acceptBidForToken",
      "outputs": [],
      "stateMutability": "payable",
      "type": "function"
    },
    {
      "inputs": [],
      "name": "actionTimeOutRangeMax",
      "outputs": [
        {
          "internalType": "uint256",
          "name": "",
          "type": "uint256"
        }
      ],
      "stateMutability": "view",
      "type": "function"
    },
    {
      "inputs": [],
      "name": "actionTimeOutRangeMin",
      "outputs": [
        {
          "internalType": "uint256",
          "name": "",
          "type": "uint256"
        }
      ],
      "stateMutability": "view",
      "type": "function"
    },
    {
      "inputs": [
        {
          "internalType": "address",
          "name": "contractAddress",
          "type": "address"
        },
        {
          "internalType": "uint256",
          "name": "tokenId",
          "type": "uint256"
        },
        {
          "internalType": "uint256",
          "name": "tokenAmount",
          "type": "uint256"
        },
        {
          "internalType": "uint256",
          "name": "tokenType",
          "type": "uint256"
        },
        {
          "internalType": "uint256",
          "name": "paymentTokenType",
          "type": "uint256"
        }
      ],
      "name": "buyToken",
      "outputs": [],
      "stateMutability": "payable",
      "type": "function"
    },
    {
      "inputs": [
        {
          "internalType": "bool",
          "name": "enabled",
          "type": "bool"
        }
      ],
      "name": "changeMarketplaceStatus",
      "outputs": [],
      "stateMutability": "nonpayable",
      "type": "function"
    },
    {
      "inputs": [
        {
          "internalType": "uint256",
          "name": "timeInSec",
          "type": "uint256"
        }
      ],
      "name": "changeMaxActionTimeLimit",
      "outputs": [],
      "stateMutability": "nonpayable",
      "type": "function"
    },
    {
      "inputs": [
        {
          "internalType": "uint256",
          "name": "timeInSec",
          "type": "uint256"
        }
      ],
      "name": "changeMinActionTimeLimit",
      "outputs": [],
      "stateMutability": "nonpayable",
      "type": "function"
    },
    {
      "inputs": [
        {
          "internalType": "uint8",
          "name": "serviceFeeFraction_",
          "type": "uint8"
        }
      ],
      "name": "changeSeriveFee",
      "outputs": [],
      "stateMutability": "nonpayable",
      "type": "function"
    },
    {
      "inputs": [],
      "name": "defaultRoyaltyFraction",
      "outputs": [
        {
          "internalType": "uint256",
          "name": "",
          "type": "uint256"
        }
      ],
      "stateMutability": "view",
      "type": "function"
    },
    {
      "inputs": [
        {
          "internalType": "address",
          "name": "contractAddress",
          "type": "address"
        },
        {
          "internalType": "uint256",
          "name": "tokenId",
          "type": "uint256"
        }
      ],
      "name": "delistToken",
      "outputs": [],
      "stateMutability": "nonpayable",
      "type": "function"
    },
    {
      "inputs": [
        {
          "internalType": "address",
          "name": "contractAddress",
          "type": "address"
        },
        {
          "internalType": "uint256",
          "name": "tokenId",
          "type": "uint256"
        },
        {
          "internalType": "uint256",
          "name": "value",
          "type": "uint256"
        },
        {
          "internalType": "uint256",
          "name": "expireTimestamp",
          "type": "uint256"
        },
        {
          "internalType": "uint256",
          "name": "nftCount",
          "type": "uint256"
        },
        {
          "internalType": "uint256",
          "name": "tokenType",
          "type": "uint256"
        }
      ],
      "name": "enterBidForToken",
      "outputs": [],
      "stateMutability": "payable",
      "type": "function"
    },
    {
      "inputs": [
        {
          "internalType": "address",
          "name": "contractAddress",
          "type": "address"
        },
        {
          "internalType": "address",
          "name": "bidder",
          "type": "address"
        },
        {
          "internalType": "uint256",
          "name": "from",
          "type": "uint256"
        },
        {
          "internalType": "uint256",
          "name": "size",
          "type": "uint256"
        }
      ],
      "name": "getBidderBids",
      "outputs": [
        {
          "components": [
            {
              "internalType": "uint256",
              "name": "tokenId",
              "type": "uint256"
            },
            {
              "internalType": "uint256",
              "name": "value",
              "type": "uint256"
            },
            {
              "internalType": "address",
              "name": "bidder",
              "type": "address"
            },
            {
              "internalType": "uint256",
              "name": "nftCount",
              "type": "uint256"
            },
            {
              "internalType": "uint256",
              "name": "tokenType",
              "type": "uint256"
            },
            {
              "internalType": "uint256",
              "name": "expireTimestamp",
              "type": "uint256"
            }
          ],
          "internalType": "struct IMarketplace.Bid[]",
          "name": "bidderBids",
          "type": "tuple[]"
        }
      ],
      "stateMutability": "view",
      "type": "function"
    },
    {
      "inputs": [
        {
          "internalType": "address",
          "name": "contractAddress",
          "type": "address"
        },
        {
          "internalType": "uint256",
          "name": "tokenId",
          "type": "uint256"
        },
        {
          "internalType": "address",
          "name": "bidder",
          "type": "address"
        }
      ],
      "name": "getBidderTokenBid",
      "outputs": [
        {
          "components": [
            {
              "internalType": "uint256",
              "name": "tokenId",
              "type": "uint256"
            },
            {
              "internalType": "uint256",
              "name": "value",
              "type": "uint256"
            },
            {
              "internalType": "address",
              "name": "bidder",
              "type": "address"
            },
            {
              "internalType": "uint256",
              "name": "nftCount",
              "type": "uint256"
            },
            {
              "internalType": "uint256",
              "name": "tokenType",
              "type": "uint256"
            },
            {
              "internalType": "uint256",
              "name": "expireTimestamp",
              "type": "uint256"
            }
          ],
          "internalType": "struct IMarketplace.Bid",
          "name": "validBid",
          "type": "tuple"
        }
      ],
      "stateMutability": "view",
      "type": "function"
    },
    {
      "inputs": [
        {
          "internalType": "address",
          "name": "contractAddress",
          "type": "address"
        },
        {
          "internalType": "uint256",
          "name": "tokenId",
          "type": "uint256"
        }
      ],
      "name": "getTokenBids",
      "outputs": [
        {
          "components": [
            {
              "internalType": "uint256",
              "name": "tokenId",
              "type": "uint256"
            },
            {
              "internalType": "uint256",
              "name": "value",
              "type": "uint256"
            },
            {
              "internalType": "address",
              "name": "bidder",
              "type": "address"
            },
            {
              "internalType": "uint256",
              "name": "nftCount",
              "type": "uint256"
            },
            {
              "internalType": "uint256",
              "name": "tokenType",
              "type": "uint256"
            },
            {
              "internalType": "uint256",
              "name": "expireTimestamp",
              "type": "uint256"
            }
          ],
          "internalType": "struct IMarketplace.Bid[]",
          "name": "bids",
          "type": "tuple[]"
        }
      ],
      "stateMutability": "view",
      "type": "function"
    },
    {
      "inputs": [
        {
          "internalType": "address",
          "name": "contractAddress",
          "type": "address"
        },
        {
          "internalType": "uint256",
          "name": "tokenId",
          "type": "uint256"
        }
      ],
      "name": "getTokenHighestBid",
      "outputs": [
        {
          "components": [
            {
              "internalType": "uint256",
              "name": "tokenId",
              "type": "uint256"
            },
            {
              "internalType": "uint256",
              "name": "value",
              "type": "uint256"
            },
            {
              "internalType": "address",
              "name": "bidder",
              "type": "address"
            },
            {
              "internalType": "uint256",
              "name": "nftCount",
              "type": "uint256"
            },
            {
              "internalType": "uint256",
              "name": "tokenType",
              "type": "uint256"
            },
            {
              "internalType": "uint256",
              "name": "expireTimestamp",
              "type": "uint256"
            }
          ],
          "internalType": "struct IMarketplace.Bid",
          "name": "highestBid",
          "type": "tuple"
        }
      ],
      "stateMutability": "view",
      "type": "function"
    },
    {
      "inputs": [
        {
          "internalType": "address",
          "name": "contractAddress",
          "type": "address"
        },
        {
          "internalType": "uint256",
          "name": "from",
          "type": "uint256"
        },
        {
          "internalType": "uint256",
          "name": "size",
          "type": "uint256"
        }
      ],
      "name": "getTokenHighestBids",
      "outputs": [
        {
          "components": [
            {
              "internalType": "uint256",
              "name": "tokenId",
              "type": "uint256"
            },
            {
              "internalType": "uint256",
              "name": "value",
              "type": "uint256"
            },
            {
              "internalType": "address",
              "name": "bidder",
              "type": "address"
            },
            {
              "internalType": "uint256",
              "name": "nftCount",
              "type": "uint256"
            },
            {
              "internalType": "uint256",
              "name": "tokenType",
              "type": "uint256"
            },
            {
              "internalType": "uint256",
              "name": "expireTimestamp",
              "type": "uint256"
            }
          ],
          "internalType": "struct IMarketplace.Bid[]",
          "name": "highestBids",
          "type": "tuple[]"
        }
      ],
      "stateMutability": "view",
      "type": "function"
    },
    {
      "inputs": [
        {
          "internalType": "uint256",
          "name": "_type",
          "type": "uint256"
        }
      ],
      "name": "getTokensByType",
      "outputs": [
        {
          "internalType": "contract IERC20",
          "name": "_token",
          "type": "address"
        }
      ],
      "stateMutability": "view",
      "type": "function"
    },
    {
      "inputs": [
        {
          "internalType": "address",
          "name": "contractAddress",
          "type": "address"
        },
        {
          "internalType": "uint256",
          "name": "tokenId",
          "type": "uint256"
        },
        {
          "internalType": "uint256",
          "name": "value",
          "type": "uint256"
        },
        {
          "internalType": "uint256",
          "name": "expireTimestamp",
          "type": "uint256"
        },
        {
          "internalType": "uint256",
          "name": "nftAmount",
          "type": "uint256"
        },
        {
          "internalType": "uint8",
          "name": "tokenType",
          "type": "uint8"
        }
      ],
      "name": "listToken",
      "outputs": [],
      "stateMutability": "nonpayable",
      "type": "function"
    },
    {
      "inputs": [
        {
          "internalType": "address",
          "name": "contractAddress",
          "type": "address"
        }
      ],
      "name": "numTokenWithBids",
      "outputs": [
        {
          "internalType": "uint256",
          "name": "",
          "type": "uint256"
        }
      ],
      "stateMutability": "view",
      "type": "function"
    },
    {
      "inputs": [],
      "name": "owner",
      "outputs": [
        {
          "internalType": "address",
          "name": "",
          "type": "address"
        }
      ],
      "stateMutability": "view",
      "type": "function"
    },
    {
      "inputs": [],
      "name": "paymentToken",
      "outputs": [
        {
          "internalType": "address",
          "name": "",
          "type": "address"
        }
      ],
      "stateMutability": "view",
      "type": "function"
    },
    {
      "inputs": [],
      "name": "renounceOwnership",
      "outputs": [],
      "stateMutability": "nonpayable",
      "type": "function"
    },
    {
      "inputs": [
        {
          "internalType": "address",
          "name": "contractAddress",
          "type": "address"
        }
      ],
      "name": "royalty",
      "outputs": [
        {
          "components": [
            {
              "internalType": "address",
              "name": "recipient",
              "type": "address"
            },
            {
              "internalType": "uint256",
              "name": "feeFraction",
              "type": "uint256"
            },
            {
              "internalType": "address",
              "name": "setBy",
              "type": "address"
            }
          ],
          "internalType": "struct IRoyalty.CollectionRoyalty",
          "name": "",
          "type": "tuple"
        }
      ],
      "stateMutability": "view",
      "type": "function"
    },
    {
      "inputs": [],
      "name": "royaltyUpperLimit",
      "outputs": [
        {
          "internalType": "uint256",
          "name": "",
          "type": "uint256"
        }
      ],
      "stateMutability": "view",
      "type": "function"
    },
    {
      "inputs": [],
      "name": "serviceFee",
      "outputs": [
        {
          "internalType": "uint8",
          "name": "",
          "type": "uint8"
        }
      ],
      "stateMutability": "view",
      "type": "function"
    },
    {
      "inputs": [
        {
          "internalType": "address",
          "name": "contractAddress",
          "type": "address"
        },
        {
          "internalType": "address",
          "name": "newRecipient",
          "type": "address"
        },
        {
          "internalType": "uint256",
          "name": "feeFraction",
          "type": "uint256"
        }
      ],
      "name": "setRoyalty",
      "outputs": [],
      "stateMutability": "nonpayable",
      "type": "function"
    },
    {
      "inputs": [
        {
          "internalType": "address",
          "name": "contractAddress",
          "type": "address"
        },
        {
          "internalType": "address",
          "name": "newRecipient",
          "type": "address"
        },
        {
          "internalType": "uint256",
          "name": "feeFraction",
          "type": "uint256"
        }
      ],
      "name": "setRoyaltyForCollection",
      "outputs": [],
      "stateMutability": "nonpayable",
      "type": "function"
    },
    {
      "inputs": [
        {
          "internalType": "address",
          "name": "newOwner",
          "type": "address"
        }
      ],
      "name": "transferOwnership",
      "outputs": [],
      "stateMutability": "nonpayable",
      "type": "function"
    },
    {
      "inputs": [
        {
          "internalType": "uint256",
          "name": "_newUpperLimit",
          "type": "uint256"
        }
      ],
      "name": "updateRoyaltyUpperLimit",
      "outputs": [],
      "stateMutability": "nonpayable",
      "type": "function"
    },
    {
      "inputs": [
        {
          "internalType": "address",
          "name": "contractAddress",
          "type": "address"
        },
        {
          "internalType": "uint256",
          "name": "tokenId",
          "type": "uint256"
        }
      ],
      "name": "withdrawBidForToken",
      "outputs": [],
      "stateMutability": "nonpayable",
      "type": "function"
    }
  ],
  "bytecode": "0x60a0604052601460015560506002556005805461ffff19166114011790556107086006556301e133806007553480156200003857600080fd5b5060405162003879380380620038798339810160408190526200005b91620000cd565b62000066336200007d565b60016004556001600160a01b0316608052620000ff565b600080546001600160a01b038381166001600160a01b0319831681178455604051919092169283917f8be0079c531659141344cd1fd0a4f28419497f9722a3daafe3b4186f6b6457e09190a35050565b600060208284031215620000e057600080fd5b81516001600160a01b0381168114620000f857600080fd5b9392505050565b60805161371862000161600039600081816102b901528181610f1201528181610f5e01528181610fb6015281816114420152818161190e0152818161198c01528181611a3e01528181611b23015281816122a8015261234801526137186000f3fe6080604052600436106101cd5760003560e01c8063715018a6116100f7578063b6be53ba11610095578063ee8ef34d11610064578063ee8ef34d1461054e578063f2fde38b14610564578063f8ad6f6214610584578063feb88406146105a457600080fd5b8063b6be53ba146104ce578063cdea490d146104ee578063cf6ac9531461050e578063eb635ab81461052e57600080fd5b80638abdf5aa116100d15780638abdf5aa146104465780638da5cb5b1461047057806390bc4e371461048e578063a3c0b5f0146104ae57600080fd5b8063715018a6146103ce5780637a4e5cd2146103e3578063861b69d6146103f657600080fd5b806333549d3d1161016f5780635dc28a721161013e5780635dc28a72146103585780636151e62e1461037857806366c1e8bf146103985780636d0042b8146103b857600080fd5b806333549d3d146102f1578063453dfc5014610310578063528019651461032557806355c338aa1461033857600080fd5b80631f77a820116101ab5780631f77a820146102275780632426fc241461025d5780632c20d1b41461027d5780633013ce29146102aa57600080fd5b8063028afc33146101d25780630609d095146101e757806319d334cb14610207575b600080fd5b6101e56101e0366004612faf565b6105c4565b005b3480156101f357600080fd5b506101e5610202366004612ffb565b610819565b34801561021357600080fd5b506101e5610222366004613027565b610948565b34801561023357600080fd5b50610247610242366004612ffb565b610a90565b60405161025491906130a8565b60405180910390f35b34801561026957600080fd5b506101e56102783660046130b6565b610bf0565b34801561028957600080fd5b5061029d6102983660046130cf565b610bfd565b6040516102549190613104565b3480156102b657600080fd5b507f00000000000000000000000000000000000000000000000000000000000000005b6040516001600160a01b039091168152602001610254565b3480156102fd57600080fd5b506006545b604051908152602001610254565b34801561031c57600080fd5b50600754610302565b6101e5610333366004613152565b610d0c565b34801561034457600080fd5b506101e5610353366004613027565b611138565b34801561036457600080fd5b506101e56103733660046131c8565b6111e1565b34801561038457600080fd5b506102d96103933660046130b6565b6113d9565b3480156103a457600080fd5b5061029d6103b3366004612ffb565b61146b565b3480156103c457600080fd5b5061030260015481565b3480156103da57600080fd5b506101e56115ee565b6101e56103f1366004613222565b611602565b34801561040257600080fd5b50610416610411366004613266565b611cfc565b6040805182516001600160a01b039081168252602080850151908301529282015190921690820152606001610254565b34801561045257600080fd5b50600554610100900460ff1660405160ff9091168152602001610254565b34801561047c57600080fd5b506000546001600160a01b03166102d9565b34801561049a57600080fd5b506102476104a9366004613283565b611ded565b3480156104ba57600080fd5b506101e56104c93660046130b6565b611e84565b3480156104da57600080fd5b506101e56104e93660046132d3565b611e91565b3480156104fa57600080fd5b506101e56105093660046130b6565b611eac565b34801561051a57600080fd5b5061029d6105293660046132f0565b611eb9565b34801561053a57600080fd5b50610302610549366004613266565b611fcf565b34801561055a57600080fd5b5061030260025481565b34801561057057600080fd5b506101e561057f366004613266565b611ff9565b34801561059057600080fd5b506101e561059f366004613336565b612072565b3480156105b057600080fd5b506101e56105bf366004612ffb565b6120fe565b60055460ff1661061b5760405162461bcd60e51b815260206004820152601f60248201527f4c697374696e6720616e642062696420617265206e6f7420656e61626c65640060448201526064015b60405180910390fd5b600654839061062a4283613367565b10156106485760405162461bcd60e51b81526004016106129061337a565b6007546106554283613367565b11156106735760405162461bcd60e51b8152600401610612906133be565b60006040518060c00160405280888152602001878152602001336001600160a01b03168152602001858152602001848152602001868152509050826002031561080f576106c08882612234565b6106ff5760405162461bcd60e51b815260206004820152601060248201526f109a59081a5cc81b9bdd081d985b1a5960821b6044820152606401610612565b6001600160a01b038816600090815260086020526040902061072490600301886123e5565b506001600160a01b03881660009081526008602090815260408083208a8452600501909152902061075590336123f8565b506001600160a01b0388811660008181526008602090815260408083208c8452600590810183528184203385526002908101845293829020875181559287015160018401558682015193830180546001600160a01b0319169490961693909317909455606085015160038201556080850151600482015560a085015191015590518891907f08d763dac6a60dcc1fe97393bbae6d0623e37b718f864e71205f4be5a18698cb906108069085906130a8565b60405180910390a35b5050505050505050565b6001600160a01b03808316600090815260086020908152604080832085845260059081018352818420338086526002918201855294839020835160c08101855281548152600182015495810195909552908101549095169183018290526003850154606084015260048501546080840152939093015460a082015291146108f65760405162461bcd60e51b815260206004820152602b60248201527f54686973206164647265737320646f65736e2774206861766520626964206f6e60448201526a103a3434b9903a37b5b2b760a91b6064820152608401610612565b81836001600160a01b03167ff41be1471915cc192b562c19613dca9014ddf026228bdcf3b7942c753542d2e28360405161093091906130a8565b60405180910390a361094383833361240d565b505050565b61095061251a565b6002548111156109725760405162461bcd60e51b815260040161061290613403565b600061097d84611cfc565b604001516001600160a01b0316146109e85760405162461bcd60e51b815260206004820152602860248201527f436f6c6c656374696f6e20726f79616c747920726563697069656e7420616c726044820152671958591e481cd95d60c21b6064820152608401610612565b604080516060810182526001600160a01b038085168083526020808401868152338587019081528985166000818152600390945292879020955186549086166001600160a01b03199182161787559151600187015551600290950180549590941694169390931790915591517fb6b61d78ac5372b51940cf3b322ea21839c456cade69acdf1b9fb9a6f79d6ff790610a839085815260200190565b60405180910390a3505050565b610a98612f5b565b506040805160c08101825282815260006020808301829052828401829052606083018290526080830182905260a083018290526001600160a01b0386168252600881528382208583526005019052918220909190610af590612574565b905060005b81811015610be8576001600160a01b03851660009081526008602090815260408083208784526005019091528120610b32908361257e565b6001600160a01b0380881660009081526008602090815260408083208a84526005908101835281842085871685526002908101845293829020825160c081018452815481526001820154948101949094529384015490941690820152600382015460608201526004820154608082015291015460a0820152909150610bb78782612234565b8015610bca575084602001518160200151115b15610bd3578094505b50508080610be090613459565b915050610afa565b505092915050565b610bf861251a565b600655565b60606000610c0a85611fcf565b90508084108015610c1b5750600083115b15610d04578281610c2c8287613472565b1115610c3f57610c3c8583613367565b90505b8067ffffffffffffffff811115610c5857610c58613485565b604051908082528060200260200182016040528015610c9157816020015b610c7e612f5b565b815260200190600190039081610c765790505b50925060005b81811015610d0157610cd187610242610cb08985613472565b6001600160a01b038b1660009081526008602052604090206003019061257e565b848281518110610ce357610ce361349b565b60200260200101819052508080610cf990613459565b915050610c97565b50505b509392505050565b610d1461258a565b610d1f8733866125e3565b610d895760405162461bcd60e51b815260206004820152603560248201527f54686520746f6b656e206973206e6f7420617070726f76656420746f207472616044820152741b9cd9995c88189e481d1a194818dbdb9d1c9858dd605a1b6064820152608401610612565b6000610d96888888611ded565b805190915087148015610dac5750818160200151145b8015610dcd5750856001600160a01b031681604001516001600160a01b0316145b610e285760405162461bcd60e51b815260206004820152602660248201527f5468697320746f6b656e20646f65736e277420686176652061206d61746368696044820152651b99c8189a5960d21b6064820152608401610612565b6000610e3389611cfc565b600001519050600080610e4a8b85602001516126a0565b9150915085600203610ee4578360200151341015610e7a5760405162461bcd60e51b8152600401610612906134b1565b6040840151610e9d9082610e8e8534613367565b610e989190613367565b612725565b610eb8610eb26000546001600160a01b031690565b83612725565b6001600160a01b03831615801590610ed05750600081115b15610edf57610edf8382612725565b611121565b610f3a84604001513383858860200151610efe9190613367565b610f089190613367565b6001600160a01b037f00000000000000000000000000000000000000000000000000000000000000001692919061283e565b610f868460400151610f546000546001600160a01b031690565b6001600160a01b037f00000000000000000000000000000000000000000000000000000000000000001691908561283e565b6001600160a01b03831615801590610f9e5750600081115b15610fde576040840151610fde906001600160a01b037f00000000000000000000000000000000000000000000000000000000000000001690858461283e565b87600103611050576040808501519051632142170760e11b81526001600160a01b038d16916342842e0e916110199133918f906004016134f3565b600060405180830381600087803b15801561103357600080fd5b505af1158015611047573d6000803e3d6000fd5b505050506110b8565b6040808501519051637921219560e11b81526001600160a01b038d169163f242432a916110859133918f908d90600401613517565b600060405180830381600087803b15801561109f57600080fd5b505af11580156110b3573d6000803e3d6000fd5b505050505b336001600160a01b03168a8c6001600160a01b03167f64a4cc6660277360cd61c08430762f86d7aaf5a438a0d58b7b82d02e2eb1b7e98786866040516111009392919061355c565b60405180910390a46111128b8b612896565b6111218b8b866040015161240d565b5050505061112f6001600455565b50505050505050565b60025481111561115a5760405162461bcd60e51b815260040161061290613403565b61116383611cfc565b516001600160a01b031633146109e85760405162461bcd60e51b815260206004820152603760248201527f4f6e6c792045524337323120726f79616c747920726563697069656e7420697360448201527f20616c6c6f77656420746f2073657420526f79616c74790000000000000000006064820152608401610612565b60055460ff166112335760405162461bcd60e51b815260206004820152601f60248201527f4c697374696e6720616e642062696420617265206e6f7420656e61626c6564006044820152606401610612565b60065483906112424283613367565b10156112605760405162461bcd60e51b81526004016106129061337a565b60075461126d4283613367565b111561128b5760405162461bcd60e51b8152600401610612906133be565b60006040518060c00160405280888152602001878152602001336001600160a01b031681526020018581526020018460ff16815260200186815250905080600860008a6001600160a01b03166001600160a01b031681526020019081526020016000206002016000898152602001908152602001600020600082015181600001556020820151816001015560408201518160020160006101000a8154816001600160a01b0302191690836001600160a01b03160217905550606082015181600301556080820151816004015560a0820151816005015590505061139e87600860008b6001600160a01b03166001600160a01b031681526020019081526020016000206000016123e590919063ffffffff16565b5086886001600160a01b03167fb2b0f1ec5cfcef29ee85821296b3a908b186c398343c1da82d2288c43d801d9f8360405161080691906130a8565b6000816002036114375760405162461bcd60e51b8152602060048201526024808201527f74797065203220697320666f722044656661756c7420706c6174666f726d205460448201526337b5b2b760e11b6064820152608401610612565b8160010361146657507f0000000000000000000000000000000000000000000000000000000000000000919050565b919050565b6001600160a01b038216600090815260086020908152604080832084845260050190915281206060919061149e90612574565b90508067ffffffffffffffff8111156114b9576114b9613485565b6040519080825280602002602001820160405280156114f257816020015b6114df612f5b565b8152602001906001900390816114d75790505b50915060005b81811015610be8576001600160a01b03851660009081526008602090815260408083208784526005019091528120611530908361257e565b6001600160a01b0380881660009081526008602090815260408083208a84526005908101835281842085871685526002908101845293829020825160c081018452815481526001820154948101949094529384015490941690820152600382015460608201526004820154608082015291015460a08201529091506115b58782612234565b156115d957808584815181106115cd576115cd61349b565b60200260200101819052505b505080806115e690613459565b9150506114f8565b6115f661251a565b6116006000612926565b565b61160a61258a565b6001600160a01b0380861660009081526008602090815260408083208884526002908101835292819020815160c08101835281548152600182015493810193909352928301549093169281019290925260038101546060830152600481015460808301526005015460a08201526116818682612976565b6116c55760405162461bcd60e51b8152602060048201526015602482015274546f6b656e206973206e6f7420666f722073616c6560581b6044820152606401610612565b6000806116d68884602001516126a0565b91509150836002036118af5782602001513410156117065760405162461bcd60e51b8152600401610612906134b1565b604083015161171a9082610e8e8534613367565b61172f610eb26000546001600160a01b031690565b600061173a89611cfc565b5190506001600160a01b038116158015906117555750600082115b15611764576117648183612725565b336001600160a01b0316888a6001600160a01b03167fb7d014c56c56a5dc44dc51f228368ee105a714dc6d74ae5af0d7613a35b2aa8e8787876040516117ac9392919061355c565b60405180910390a485600103611827576040808501519051632142170760e11b81526001600160a01b038b16916342842e0e916117f0919033908d906004016134f3565b600060405180830381600087803b15801561180a57600080fd5b505af115801561181e573d6000803e3d6000fd5b50505050611894565b886001600160a01b031663f242432a8560400151338b88606001516040518563ffffffff1660e01b81526004016118619493929190613517565b600060405180830381600087803b15801561187b57600080fd5b505af115801561188f573d6000803e3d6000fd5b505050505b61189e8989612896565b6118a989893361240d565b50611ce8565b6118f26040518060400160405280601e81526020017f4c697374696e672056616c7565203d3d3d3d3d3d3d3d3d3d3d3d3d3d3d3e000081525084602001516129aa565b60208301516040516323b872dd60e01b81526001600160a01b037f000000000000000000000000000000000000000000000000000000000000000016916323b872dd916119469133913091906004016134f3565b6020604051808303816000875af1158015611965573d6000803e3d6000fd5b505050506040513d601f19601f82011682018060405250810190611989919061357c565b507f00000000000000000000000000000000000000000000000000000000000000006001600160a01b03166323b872dd308560400151848688602001516119d09190613367565b6119da9190613367565b6040518463ffffffff1660e01b81526004016119f8939291906134f3565b6020604051808303816000875af1158015611a17573d6000803e3d6000fd5b505050506040513d601f19601f82011682018060405250810190611a3b919061357c565b507f00000000000000000000000000000000000000000000000000000000000000006001600160a01b03166323b872dd30611a7e6000546001600160a01b031690565b856040518463ffffffff1660e01b8152600401611a9d939291906134f3565b6020604051808303816000875af1158015611abc573d6000803e3d6000fd5b505050506040513d601f19601f82011682018060405250810190611ae0919061357c565b506000611aec89611cfc565b5190506001600160a01b03811615801590611b075750600082115b15611ba1576040516323b872dd60e01b81526001600160a01b037f000000000000000000000000000000000000000000000000000000000000000016906323b872dd90611b5c903090859087906004016134f3565b6020604051808303816000875af1158015611b7b573d6000803e3d6000fd5b505050506040513d601f19601f82011682018060405250810190611b9f919061357c565b505b336001600160a01b0316888a6001600160a01b03167fb7d014c56c56a5dc44dc51f228368ee105a714dc6d74ae5af0d7613a35b2aa8e878787604051611be99392919061355c565b60405180910390a485600103611c64576040808501519051632142170760e11b81526001600160a01b038b16916342842e0e91611c2d919033908d906004016134f3565b600060405180830381600087803b158015611c4757600080fd5b505af1158015611c5b573d6000803e3d6000fd5b50505050611cd1565b886001600160a01b031663f242432a8560400151338b88606001516040518563ffffffff1660e01b8152600401611c9e9493929190613517565b600060405180830381600087803b158015611cb857600080fd5b505af1158015611ccc573d6000803e3d6000fd5b505050505b611cdb8989612896565b611ce689893361240d565b505b505050611cf56001600455565b5050505050565b60408051606081018252600080825260208201819052918101919091526001600160a01b038281166000908152600360205260409020600201541615611d8257506001600160a01b039081166000908152600360209081526040918290208251606081018452815485168152600182015492810192909252600201549092169082015290565b6000611d8d836129ef565b90506001600160a01b03811615611dc957604080516060810182526001600160a01b039092168252600154602083015260009082015292915050565b50506040805160608101825260008082526020820181905291810191909152919050565b611df5612f5b565b6001600160a01b0380851660009081526008602090815260408083208784526005908101835281842087861685526002908101845293829020825160c081018452815481526001820154948101949094529384015490941690820152600382015460608201526004820154608082015291015460a0820152611e778582612234565b15610d0457949350505050565b611e8c61251a565b600755565b611e9961251a565b6005805460ff1916911515919091179055565b611eb461251a565b600255565b60606000611ec686611fcf565b90508084108015611ed75750600083115b15611fc6578281611ee88287613472565b1115611efb57611ef88583613367565b90505b8067ffffffffffffffff811115611f1457611f14613485565b604051908082528060200260200182016040528015611f4d57816020015b611f3a612f5b565b815260200190600190039081611f325790505b50925060005b81811015611fc357611f9388611f8d611f6c8985613472565b6001600160a01b038c1660009081526008602052604090206003019061257e565b89611ded565b848281518110611fa557611fa561349b565b60200260200101819052508080611fbb90613459565b915050611f53565b50505b50949350505050565b6001600160a01b0381166000908152600860205260408120611ff390600301612574565b92915050565b61200161251a565b6001600160a01b0381166120665760405162461bcd60e51b815260206004820152602660248201527f4f776e61626c653a206e6577206f776e657220697320746865207a65726f206160448201526564647265737360d01b6064820152608401610612565b61206f81612926565b50565b61207a61251a565b60198160ff1611156120e25760405162461bcd60e51b815260206004820152602b60248201527f417474656d707420746f207365742070657263656e746167652068696768657260448201526a103a3430b71019171a929760a91b6064820152608401610612565b6005805460ff9092166101000261ff0019909216919091179055565b6001600160a01b038281166000908152600860209081526040808320858452600290810190925290912001541633146121845760405162461bcd60e51b815260206004820152602260248201527f4f6e6c7920746f6b656e2073656c6c65722063616e2064656c69737420746f6b60448201526132b760f11b6064820152608401610612565b6001600160a01b03821660008181526008602090815260408083208584526002019091529081902090518392917f816eddcd06fe0e27a14975f0fa6ca175ea858df3a8f4b0a9aff734da679d3b4a9161221e9190815481526001820154602082015260028201546001600160a01b03166040820152600382015460608201526004820154608082015260059091015460a082015260c00190565b60405180910390a36122308282612896565b5050565b60008160800151600214801561224e575060008260200151115b801561225d5750428260a00151115b1561226a57506001611ff3565b81608001516001148015612318575060208201516040808401519051636eb1769f60e11b81526001600160a01b0391821660048201523060248201527f00000000000000000000000000000000000000000000000000000000000000009091169063dd62ed3e90604401602060405180830381865afa1580156122f1573d6000803e3d6000fd5b505050506040513d601f19601f820116820180604052508101906123159190613599565b10155b80156123b85750602082015160408084015190516370a0823160e01b81526001600160a01b0391821660048201527f0000000000000000000000000000000000000000000000000000000000000000909116906370a0823190602401602060405180830381865afa158015612391573d6000803e3d6000fd5b505050506040513d601f19601f820116820180604052508101906123b59190613599565b10155b80156123c8575060008260200151115b80156123d75750428260a00151115b15611ff35750600192915050565b60006123f18383612a57565b9392505050565b60006123f1836001600160a01b038416612a57565b6001600160a01b0383166000908152600860209081526040808320858452600501909152902061243d9082612aa6565b15610943576001600160a01b03808416600090815260086020908152604080832086845260059081018084528285209587168552600280870185529285208581556001810186905592830180546001600160a01b03191690556003830185905560048301859055910183905591859052526124b89082612ac8565b506001600160a01b038316600090815260086020908152604080832085845260050190915290206124e890612574565b600003610943576001600160a01b03831660009081526008602052604090206125149060030183612add565b50505050565b6000546001600160a01b031633146116005760405162461bcd60e51b815260206004820181905260248201527f4f776e61626c653a2063616c6c6572206973206e6f7420746865206f776e65726044820152606401610612565b6000611ff3825490565b60006123f18383612ae9565b6002600454036125dc5760405162461bcd60e51b815260206004820152601f60248201527f5265656e7472616e637947756172643a207265656e7472616e742063616c6c006044820152606401610612565b6002600455565b6000816001036126695760405163e985e9c560e01b81526001600160a01b03848116600483015230602483015285919082169063e985e9c5906044015b602060405180830381865afa15801561263d573d6000803e3d6000fd5b505050506040513d601f19601f82011682018060405250810190612661919061357c565b9150506123f1565b60405163e985e9c560e01b81526001600160a01b03848116600483015230602483015285919082169063e985e9c590604401612620565b60008060006126ae85611cfc565b6020015160055490915060009082906126d190610100900460ff166103e86135b2565b61ffff166126df9190613472565b60055490915081906126f990610100900460ff16876135cd565b61270391906135ec565b93508061271083876135cd565b61271a91906135ec565b925050509250929050565b804710156127755760405162461bcd60e51b815260206004820152601d60248201527f416464726573733a20696e73756666696369656e742062616c616e63650000006044820152606401610612565b6000826001600160a01b03168260405160006040518083038185875af1925050503d80600081146127c2576040519150601f19603f3d011682016040523d82523d6000602084013e6127c7565b606091505b50509050806109435760405162461bcd60e51b815260206004820152603a60248201527f416464726573733a20756e61626c6520746f2073656e642076616c75652c207260448201527f6563697069656e74206d617920686176652072657665727465640000000000006064820152608401610612565b612514846323b872dd60e01b85858560405160240161285f939291906134f3565b60408051601f198184030181529190526020810180516001600160e01b03166001600160e01b031990931692909217909152612b13565b6001600160a01b03821660009081526008602052604090206128b89082612be5565b15612230576001600160a01b0382166000818152600860208181526040808420868552600280820184529185208581556001810186905591820180546001600160a01b0319169055600382018590556004820185905560059091018490559390925290526109439082612add565b600080546001600160a01b038381166001600160a01b0319831681178455604051919092169283917f8be0079c531659141344cd1fd0a4f28419497f9722a3daafe3b4186f6b6457e09190a35050565b600061299083836000015184604001518560800151612bfd565b80156123b857506123b883836040015184608001516125e3565b61223082826040516024016129c092919061365e565b60408051601f198184030181529190526020810180516001600160e01b0316632d839cb360e21b179052612d1d565b6000816001600160a01b0316638da5cb5b6040518163ffffffff1660e01b8152600401602060405180830381865afa925050508015612a4b575060408051601f3d908101601f19168201909252612a4891810190613680565b60015b611ff357506000919050565b6000818152600183016020526040812054612a9e57508154600181810184556000848152602080822090930184905584548482528286019093526040902091909155611ff3565b506000611ff3565b6001600160a01b038116600090815260018301602052604081205415156123f1565b60006123f1836001600160a01b038416612d3e565b60006123f18383612d3e565b6000826000018281548110612b0057612b0061349b565b9060005260206000200154905092915050565b6000612b68826040518060400160405280602081526020017f5361666545524332303a206c6f772d6c6576656c2063616c6c206661696c6564815250856001600160a01b0316612e389092919063ffffffff16565b8051909150156109435780806020019051810190612b86919061357c565b6109435760405162461bcd60e51b815260206004820152602a60248201527f5361666545524332303a204552433230206f7065726174696f6e20646964206e6044820152691bdd081cdd58d8d9595960b21b6064820152608401610612565b600081815260018301602052604081205415156123f1565b600081600103612c96576040516331a9108f60e11b81526004810185905285906001600160a01b03821690636352211e90602401602060405180830381865afa925050508015612c6a575060408051601f3d908101601f19168201909252612c6791810190613680565b60015b612c78576000915050612d15565b846001600160a01b0316816001600160a01b03161492505050612d15565b604051627eeac760e11b81526001600160a01b0384811660048301526024820186905286919082169062fdd58e90604401602060405180830381865afa925050508015612d00575060408051601f3d908101601f19168201909252612cfd91810190613599565b60015b612d0e576000915050612d15565b6001925050505b949350505050565b80516a636f6e736f6c652e6c6f67602083016000808483855afa5050505050565b60008181526001830160205260408120548015612e27576000612d62600183613367565b8554909150600090612d7690600190613367565b9050818114612ddb576000866000018281548110612d9657612d9661349b565b9060005260206000200154905080876000018481548110612db957612db961349b565b6000918252602080832090910192909255918252600188019052604090208390555b8554869080612dec57612dec61369d565b600190038181906000526020600020016000905590558560010160008681526020019081526020016000206000905560019350505050611ff3565b6000915050611ff3565b5092915050565b6060612d15848460008585600080866001600160a01b03168587604051612e5f91906136b3565b60006040518083038185875af1925050503d8060008114612e9c576040519150601f19603f3d011682016040523d82523d6000602084013e612ea1565b606091505b5091509150612eb287838387612ebd565b979650505050505050565b60608315612f2c578251600003612f25576001600160a01b0385163b612f255760405162461bcd60e51b815260206004820152601d60248201527f416464726573733a2063616c6c20746f206e6f6e2d636f6e74726163740000006044820152606401610612565b5081612d15565b612d158383815115612f415781518083602001fd5b8060405162461bcd60e51b815260040161061291906136cf565b6040518060c00160405280600081526020016000815260200160006001600160a01b031681526020016000815260200160008152602001600081525090565b6001600160a01b038116811461206f57600080fd5b60008060008060008060c08789031215612fc857600080fd5b8635612fd381612f9a565b9860208801359850604088013597606081013597506080810135965060a00135945092505050565b6000806040838503121561300e57600080fd5b823561301981612f9a565b946020939093013593505050565b60008060006060848603121561303c57600080fd5b833561304781612f9a565b9250602084013561305781612f9a565b929592945050506040919091013590565b80518252602080820151908301526040808201516001600160a01b031690830152606080820151908301526080808201519083015260a090810151910152565b60c08101611ff38284613068565b6000602082840312156130c857600080fd5b5035919050565b6000806000606084860312156130e457600080fd5b83356130ef81612f9a565b95602085013595506040909401359392505050565b6020808252825182820181905260009190848201906040850190845b8181101561314657613133838551613068565b9284019260c09290920191600101613120565b50909695505050505050565b600080600080600080600060e0888a03121561316d57600080fd5b873561317881612f9a565b965060208801359550604088013561318f81612f9a565b969995985095966060810135965060808101359560a0820135955060c0909101359350915050565b803560ff8116811461146657600080fd5b60008060008060008060c087890312156131e157600080fd5b86356131ec81612f9a565b95506020870135945060408701359350606087013592506080870135915061321660a088016131b7565b90509295509295509295565b600080600080600060a0868803121561323a57600080fd5b853561324581612f9a565b97602087013597506040870135966060810135965060800135945092505050565b60006020828403121561327857600080fd5b81356123f181612f9a565b60008060006060848603121561329857600080fd5b83356132a381612f9a565b92506020840135915060408401356132ba81612f9a565b809150509250925092565b801515811461206f57600080fd5b6000602082840312156132e557600080fd5b81356123f1816132c5565b6000806000806080858703121561330657600080fd5b843561331181612f9a565b9350602085013561332181612f9a565b93969395505050506040820135916060013590565b60006020828403121561334857600080fd5b6123f1826131b7565b634e487b7160e01b600052601160045260246000fd5b81810381811115611ff357611ff3613351565b60208082526024908201527f506c6561736520656e7465722061206c6f6e67657220706572696f64206f662060408201526374696d6560e01b606082015260800190565b60208082526025908201527f506c6561736520656e74657220612073686f7274657220706572696f64206f666040820152642074696d6560d81b606082015260800190565b60208082526036908201527f506c65617365207365742074686520726f79616c74792070657263656e74616e60408201527567652062656c6f7720616c6c6f7765642072616e676560501b606082015260800190565b60006001820161346b5761346b613351565b5060010190565b80820180821115611ff357611ff3613351565b634e487b7160e01b600052604160045260246000fd5b634e487b7160e01b600052603260045260246000fd5b60208082526022908201527f5468652076616c75652073656e642069732062656c6f772073616c6520707269604082015261636560f01b606082015260800190565b6001600160a01b039384168152919092166020820152604081019190915260600190565b6001600160a01b0394851681529290931660208301526040820152606081019190915260a060808201819052600490820152630307830360e41b60c082015260e00190565b610100810161356b8286613068565b60c082019390935260e00152919050565b60006020828403121561358e57600080fd5b81516123f1816132c5565b6000602082840312156135ab57600080fd5b5051919050565b61ffff818116838216019080821115612e3157612e31613351565b60008160001904831182151516156135e7576135e7613351565b500290565b60008261360957634e487b7160e01b600052601260045260246000fd5b500490565b60005b83811015613629578181015183820152602001613611565b50506000910152565b6000815180845261364a81602086016020860161360e565b601f01601f19169290920160200192915050565b6040815260006136716040830185613632565b90508260208301529392505050565b60006020828403121561369257600080fd5b81516123f181612f9a565b634e487b7160e01b600052603160045260246000fd5b600082516136c581846020870161360e565b9190910192915050565b6020815260006123f1602083018461363256fea26469706673582212209a93e165d13860f01f60ec2f2ba9b190e58ef47e075fccf639f4666e0d96235c64736f6c63430008100033",
  "linkReferences": {},
  "deployedLinkReferences": {}
}