{
  "_format": "hh-sol-artifact-1",
  "contractName": "Marketplace",
  "sourceName": "contracts/Marketplace.sol",
  "abi": [
    {
      "inputs": [
        {
          "internalType": "address",
          "name": "_paymentTokenAddress",
          "type": "address"
        }
      ],
      "stateMutability": "nonpayable",
      "type": "constructor"
    },
    {
      "anonymous": false,
      "inputs": [
        {
          "indexed": true,
          "internalType": "address",
          "name": "previousOwner",
          "type": "address"
        },
        {
          "indexed": true,
          "internalType": "address",
          "name": "newOwner",
          "type": "address"
        }
      ],
      "name": "OwnershipTransferred",
      "type": "event"
    },
    {
      "anonymous": false,
      "inputs": [
        {
          "indexed": true,
          "internalType": "address",
          "name": "contractAddress",
          "type": "address"
        },
        {
          "indexed": true,
          "internalType": "address",
          "name": "recipient",
          "type": "address"
        },
        {
          "indexed": false,
          "internalType": "uint256",
          "name": "feeFraction",
          "type": "uint256"
        }
      ],
      "name": "SetRoyalty",
      "type": "event"
    },
    {
      "anonymous": false,
      "inputs": [
        {
          "indexed": true,
          "internalType": "address",
          "name": "contractAddress",
          "type": "address"
        },
        {
          "indexed": true,
          "internalType": "uint256",
          "name": "tokenId",
          "type": "uint256"
        },
        {
          "indexed": true,
          "internalType": "address",
          "name": "seller",
          "type": "address"
        },
        {
          "components": [
            {
              "internalType": "uint256",
              "name": "tokenId",
              "type": "uint256"
            },
            {
              "internalType": "uint256",
              "name": "value",
              "type": "uint256"
            },
            {
              "internalType": "address",
              "name": "bidder",
              "type": "address"
            },
            {
              "internalType": "uint256",
              "name": "nftCount",
              "type": "uint256"
            },
            {
              "internalType": "uint256",
              "name": "tokenType",
              "type": "uint256"
            },
            {
              "internalType": "uint256",
              "name": "expireTimestamp",
              "type": "uint256"
            },
            {
              "internalType": "uint256",
              "name": "paymentOption",
              "type": "uint256"
            }
          ],
          "indexed": false,
          "internalType": "struct IMarketplace.Bid",
          "name": "bid",
          "type": "tuple"
        },
        {
          "indexed": false,
          "internalType": "uint256",
          "name": "serviceFee",
          "type": "uint256"
        },
        {
          "indexed": false,
          "internalType": "uint256",
          "name": "royaltyFee",
          "type": "uint256"
        }
      ],
      "name": "TokenBidAccepted",
      "type": "event"
    },
    {
      "anonymous": false,
      "inputs": [
        {
          "indexed": true,
          "internalType": "address",
          "name": "contractAddress",
          "type": "address"
        },
        {
          "indexed": true,
          "internalType": "uint256",
          "name": "tokenId",
          "type": "uint256"
        },
        {
          "components": [
            {
              "internalType": "uint256",
              "name": "tokenId",
              "type": "uint256"
            },
            {
              "internalType": "uint256",
              "name": "value",
              "type": "uint256"
            },
            {
              "internalType": "address",
              "name": "bidder",
              "type": "address"
            },
            {
              "internalType": "uint256",
              "name": "nftCount",
              "type": "uint256"
            },
            {
              "internalType": "uint256",
              "name": "tokenType",
              "type": "uint256"
            },
            {
              "internalType": "uint256",
              "name": "expireTimestamp",
              "type": "uint256"
            },
            {
              "internalType": "uint256",
              "name": "paymentOption",
              "type": "uint256"
            }
          ],
          "indexed": false,
          "internalType": "struct IMarketplace.Bid",
          "name": "bid",
          "type": "tuple"
        }
      ],
      "name": "TokenBidEntered",
      "type": "event"
    },
    {
      "anonymous": false,
      "inputs": [
        {
          "indexed": true,
          "internalType": "address",
          "name": "contractAddress",
          "type": "address"
        },
        {
          "indexed": true,
          "internalType": "uint256",
          "name": "tokenId",
          "type": "uint256"
        },
        {
          "components": [
            {
              "internalType": "uint256",
              "name": "tokenId",
              "type": "uint256"
            },
            {
              "internalType": "uint256",
              "name": "value",
              "type": "uint256"
            },
            {
              "internalType": "address",
              "name": "bidder",
              "type": "address"
            },
            {
              "internalType": "uint256",
              "name": "nftCount",
              "type": "uint256"
            },
            {
              "internalType": "uint256",
              "name": "tokenType",
              "type": "uint256"
            },
            {
              "internalType": "uint256",
              "name": "expireTimestamp",
              "type": "uint256"
            },
            {
              "internalType": "uint256",
              "name": "paymentOption",
              "type": "uint256"
            }
          ],
          "indexed": false,
          "internalType": "struct IMarketplace.Bid",
          "name": "bid",
          "type": "tuple"
        }
      ],
      "name": "TokenBidWithdrawn",
      "type": "event"
    },
    {
      "anonymous": false,
      "inputs": [
        {
          "indexed": true,
          "internalType": "address",
          "name": "contractAddress",
          "type": "address"
        },
        {
          "indexed": true,
          "internalType": "uint256",
          "name": "tokenId",
          "type": "uint256"
        },
        {
          "indexed": true,
          "internalType": "address",
          "name": "buyer",
          "type": "address"
        },
        {
          "components": [
            {
              "internalType": "uint256",
              "name": "tokenId",
              "type": "uint256"
            },
            {
              "internalType": "uint256",
              "name": "value",
              "type": "uint256"
            },
            {
              "internalType": "address",
              "name": "seller",
              "type": "address"
            },
            {
              "internalType": "uint256",
              "name": "nftCount",
              "type": "uint256"
            },
            {
              "internalType": "uint256",
              "name": "tokenType",
              "type": "uint256"
            },
            {
              "internalType": "uint256",
              "name": "expireTimestamp",
              "type": "uint256"
            }
          ],
          "indexed": false,
          "internalType": "struct IMarketplace.Listing",
          "name": "listing",
          "type": "tuple"
        },
        {
          "indexed": false,
          "internalType": "uint256",
          "name": "serviceFee",
          "type": "uint256"
        },
        {
          "indexed": false,
          "internalType": "uint256",
          "name": "royaltyFee",
          "type": "uint256"
        }
      ],
      "name": "TokenBought",
      "type": "event"
    },
    {
      "anonymous": false,
      "inputs": [
        {
          "indexed": true,
          "internalType": "address",
          "name": "contractAddress",
          "type": "address"
        },
        {
          "indexed": true,
          "internalType": "uint256",
          "name": "tokenId",
          "type": "uint256"
        },
        {
          "components": [
            {
              "internalType": "uint256",
              "name": "tokenId",
              "type": "uint256"
            },
            {
              "internalType": "uint256",
              "name": "value",
              "type": "uint256"
            },
            {
              "internalType": "address",
              "name": "seller",
              "type": "address"
            },
            {
              "internalType": "uint256",
              "name": "nftCount",
              "type": "uint256"
            },
            {
              "internalType": "uint256",
              "name": "tokenType",
              "type": "uint256"
            },
            {
              "internalType": "uint256",
              "name": "expireTimestamp",
              "type": "uint256"
            }
          ],
          "indexed": false,
          "internalType": "struct IMarketplace.Listing",
          "name": "listing",
          "type": "tuple"
        }
      ],
      "name": "TokenDelisted",
      "type": "event"
    },
    {
      "anonymous": false,
      "inputs": [
        {
          "indexed": true,
          "internalType": "address",
          "name": "contractAddress",
          "type": "address"
        },
        {
          "indexed": true,
          "internalType": "uint256",
          "name": "tokenId",
          "type": "uint256"
        },
        {
          "components": [
            {
              "internalType": "uint256",
              "name": "tokenId",
              "type": "uint256"
            },
            {
              "internalType": "uint256",
              "name": "value",
              "type": "uint256"
            },
            {
              "internalType": "address",
              "name": "seller",
              "type": "address"
            },
            {
              "internalType": "uint256",
              "name": "nftCount",
              "type": "uint256"
            },
            {
              "internalType": "uint256",
              "name": "tokenType",
              "type": "uint256"
            },
            {
              "internalType": "uint256",
              "name": "expireTimestamp",
              "type": "uint256"
            }
          ],
          "indexed": false,
          "internalType": "struct IMarketplace.Listing",
          "name": "listing",
          "type": "tuple"
        }
      ],
      "name": "TokenListed",
      "type": "event"
    },
    {
      "inputs": [
        {
          "internalType": "address",
          "name": "contractAddress",
          "type": "address"
        },
        {
          "internalType": "uint256",
          "name": "tokenId",
          "type": "uint256"
        },
        {
          "internalType": "address",
          "name": "bidder",
          "type": "address"
        },
        {
          "internalType": "uint256",
          "name": "tokenType",
          "type": "uint256"
        },
        {
          "internalType": "uint256",
          "name": "nftAmount",
          "type": "uint256"
        },
        {
          "internalType": "uint256",
          "name": "paymentTokenType",
          "type": "uint256"
        },
        {
          "internalType": "uint256",
          "name": "value",
          "type": "uint256"
        }
      ],
      "name": "acceptBidForToken",
      "outputs": [],
      "stateMutability": "payable",
      "type": "function"
    },
    {
      "inputs": [],
      "name": "actionTimeOutRangeMax",
      "outputs": [
        {
          "internalType": "uint256",
          "name": "",
          "type": "uint256"
        }
      ],
      "stateMutability": "view",
      "type": "function"
    },
    {
      "inputs": [],
      "name": "actionTimeOutRangeMin",
      "outputs": [
        {
          "internalType": "uint256",
          "name": "",
          "type": "uint256"
        }
      ],
      "stateMutability": "view",
      "type": "function"
    },
    {
      "inputs": [],
      "name": "auctionEnd",
      "outputs": [],
      "stateMutability": "payable",
      "type": "function"
    },
    {
      "inputs": [
        {
          "internalType": "address",
          "name": "contractAddress",
          "type": "address"
        },
        {
          "internalType": "uint256",
          "name": "tokenId",
          "type": "uint256"
        },
        {
          "internalType": "uint256",
          "name": "tokenAmount",
          "type": "uint256"
        },
        {
          "internalType": "uint256",
          "name": "tokenType",
          "type": "uint256"
        },
        {
          "internalType": "uint256",
          "name": "paymentTokenType",
          "type": "uint256"
        }
      ],
      "name": "buyToken",
      "outputs": [],
      "stateMutability": "payable",
      "type": "function"
    },
    {
      "inputs": [
        {
          "internalType": "bool",
          "name": "enabled",
          "type": "bool"
        }
      ],
      "name": "changeMarketplaceStatus",
      "outputs": [],
      "stateMutability": "nonpayable",
      "type": "function"
    },
    {
      "inputs": [
        {
          "internalType": "uint256",
          "name": "timeInSec",
          "type": "uint256"
        }
      ],
      "name": "changeMaxActionTimeLimit",
      "outputs": [],
      "stateMutability": "nonpayable",
      "type": "function"
    },
    {
      "inputs": [
        {
          "internalType": "uint256",
          "name": "timeInSec",
          "type": "uint256"
        }
      ],
      "name": "changeMinActionTimeLimit",
      "outputs": [],
      "stateMutability": "nonpayable",
      "type": "function"
    },
    {
      "inputs": [
        {
          "internalType": "uint8",
          "name": "serviceFeeFraction_",
          "type": "uint8"
        }
      ],
      "name": "changeSeriveFee",
      "outputs": [],
      "stateMutability": "nonpayable",
      "type": "function"
    },
    {
      "inputs": [],
      "name": "defaultRoyaltyFraction",
      "outputs": [
        {
          "internalType": "uint256",
          "name": "",
          "type": "uint256"
        }
      ],
      "stateMutability": "view",
      "type": "function"
    },
    {
      "inputs": [
        {
          "internalType": "address",
          "name": "contractAddress",
          "type": "address"
        },
        {
          "internalType": "uint256",
          "name": "tokenId",
          "type": "uint256"
        }
      ],
      "name": "delistToken",
      "outputs": [],
      "stateMutability": "nonpayable",
      "type": "function"
    },
    {
      "inputs": [
        {
          "internalType": "address",
          "name": "contractAddress",
          "type": "address"
        },
        {
          "internalType": "uint256",
          "name": "tokenId",
          "type": "uint256"
        },
        {
          "internalType": "uint256",
          "name": "value",
          "type": "uint256"
        },
        {
          "internalType": "uint256",
          "name": "expireTimestamp",
          "type": "uint256"
        },
        {
          "internalType": "uint256",
          "name": "nftCount",
          "type": "uint256"
        },
        {
          "internalType": "uint256",
          "name": "tokenType",
          "type": "uint256"
        },
        {
          "internalType": "uint256",
          "name": "paymentOption",
          "type": "uint256"
        }
      ],
      "name": "enterBidForToken",
      "outputs": [],
      "stateMutability": "payable",
      "type": "function"
    },
    {
      "inputs": [
        {
          "internalType": "address",
          "name": "contractAddress",
          "type": "address"
        },
        {
          "internalType": "address",
          "name": "bidder",
          "type": "address"
        },
        {
          "internalType": "uint256",
          "name": "from",
          "type": "uint256"
        },
        {
          "internalType": "uint256",
          "name": "size",
          "type": "uint256"
        }
      ],
      "name": "getBidderBids",
      "outputs": [
        {
          "components": [
            {
              "internalType": "uint256",
              "name": "tokenId",
              "type": "uint256"
            },
            {
              "internalType": "uint256",
              "name": "value",
              "type": "uint256"
            },
            {
              "internalType": "address",
              "name": "bidder",
              "type": "address"
            },
            {
              "internalType": "uint256",
              "name": "nftCount",
              "type": "uint256"
            },
            {
              "internalType": "uint256",
              "name": "tokenType",
              "type": "uint256"
            },
            {
              "internalType": "uint256",
              "name": "expireTimestamp",
              "type": "uint256"
            },
            {
              "internalType": "uint256",
              "name": "paymentOption",
              "type": "uint256"
            }
          ],
          "internalType": "struct IMarketplace.Bid[]",
          "name": "bidderBids",
          "type": "tuple[]"
        }
      ],
      "stateMutability": "view",
      "type": "function"
    },
    {
      "inputs": [
        {
          "internalType": "address",
          "name": "contractAddress",
          "type": "address"
        },
        {
          "internalType": "uint256",
          "name": "tokenId",
          "type": "uint256"
        },
        {
          "internalType": "address",
          "name": "bidder",
          "type": "address"
        }
      ],
      "name": "getBidderTokenBid",
      "outputs": [
        {
          "components": [
            {
              "internalType": "uint256",
              "name": "tokenId",
              "type": "uint256"
            },
            {
              "internalType": "uint256",
              "name": "value",
              "type": "uint256"
            },
            {
              "internalType": "address",
              "name": "bidder",
              "type": "address"
            },
            {
              "internalType": "uint256",
              "name": "nftCount",
              "type": "uint256"
            },
            {
              "internalType": "uint256",
              "name": "tokenType",
              "type": "uint256"
            },
            {
              "internalType": "uint256",
              "name": "expireTimestamp",
              "type": "uint256"
            },
            {
              "internalType": "uint256",
              "name": "paymentOption",
              "type": "uint256"
            }
          ],
          "internalType": "struct IMarketplace.Bid",
          "name": "validBid",
          "type": "tuple"
        }
      ],
      "stateMutability": "view",
      "type": "function"
    },
    {
      "inputs": [
        {
          "internalType": "address",
          "name": "contractAddress",
          "type": "address"
        },
        {
          "internalType": "uint256",
          "name": "tokenId",
          "type": "uint256"
        }
      ],
      "name": "getTokenBids",
      "outputs": [
        {
          "components": [
            {
              "internalType": "uint256",
              "name": "tokenId",
              "type": "uint256"
            },
            {
              "internalType": "uint256",
              "name": "value",
              "type": "uint256"
            },
            {
              "internalType": "address",
              "name": "bidder",
              "type": "address"
            },
            {
              "internalType": "uint256",
              "name": "nftCount",
              "type": "uint256"
            },
            {
              "internalType": "uint256",
              "name": "tokenType",
              "type": "uint256"
            },
            {
              "internalType": "uint256",
              "name": "expireTimestamp",
              "type": "uint256"
            },
            {
              "internalType": "uint256",
              "name": "paymentOption",
              "type": "uint256"
            }
          ],
          "internalType": "struct IMarketplace.Bid[]",
          "name": "bids",
          "type": "tuple[]"
        }
      ],
      "stateMutability": "view",
      "type": "function"
    },
    {
      "inputs": [
        {
          "internalType": "address",
          "name": "contractAddress",
          "type": "address"
        },
        {
          "internalType": "uint256",
          "name": "tokenId",
          "type": "uint256"
        }
      ],
      "name": "getTokenHighestBid",
      "outputs": [
        {
          "components": [
            {
              "internalType": "uint256",
              "name": "tokenId",
              "type": "uint256"
            },
            {
              "internalType": "uint256",
              "name": "value",
              "type": "uint256"
            },
            {
              "internalType": "address",
              "name": "bidder",
              "type": "address"
            },
            {
              "internalType": "uint256",
              "name": "nftCount",
              "type": "uint256"
            },
            {
              "internalType": "uint256",
              "name": "tokenType",
              "type": "uint256"
            },
            {
              "internalType": "uint256",
              "name": "expireTimestamp",
              "type": "uint256"
            },
            {
              "internalType": "uint256",
              "name": "paymentOption",
              "type": "uint256"
            }
          ],
          "internalType": "struct IMarketplace.Bid",
          "name": "highestBid",
          "type": "tuple"
        }
      ],
      "stateMutability": "view",
      "type": "function"
    },
    {
      "inputs": [
        {
          "internalType": "address",
          "name": "contractAddress",
          "type": "address"
        },
        {
          "internalType": "uint256",
          "name": "from",
          "type": "uint256"
        },
        {
          "internalType": "uint256",
          "name": "size",
          "type": "uint256"
        }
      ],
      "name": "getTokenHighestBids",
      "outputs": [
        {
          "components": [
            {
              "internalType": "uint256",
              "name": "tokenId",
              "type": "uint256"
            },
            {
              "internalType": "uint256",
              "name": "value",
              "type": "uint256"
            },
            {
              "internalType": "address",
              "name": "bidder",
              "type": "address"
            },
            {
              "internalType": "uint256",
              "name": "nftCount",
              "type": "uint256"
            },
            {
              "internalType": "uint256",
              "name": "tokenType",
              "type": "uint256"
            },
            {
              "internalType": "uint256",
              "name": "expireTimestamp",
              "type": "uint256"
            },
            {
              "internalType": "uint256",
              "name": "paymentOption",
              "type": "uint256"
            }
          ],
          "internalType": "struct IMarketplace.Bid[]",
          "name": "highestBids",
          "type": "tuple[]"
        }
      ],
      "stateMutability": "view",
      "type": "function"
    },
    {
      "inputs": [
        {
          "internalType": "address",
          "name": "contractAddress",
          "type": "address"
        },
        {
          "internalType": "uint256",
          "name": "tokenId",
          "type": "uint256"
        }
      ],
      "name": "getTokenListing",
      "outputs": [
        {
          "components": [
            {
              "internalType": "uint256",
              "name": "tokenId",
              "type": "uint256"
            },
            {
              "internalType": "uint256",
              "name": "value",
              "type": "uint256"
            },
            {
              "internalType": "address",
              "name": "seller",
              "type": "address"
            },
            {
              "internalType": "uint256",
              "name": "nftCount",
              "type": "uint256"
            },
            {
              "internalType": "uint256",
              "name": "tokenType",
              "type": "uint256"
            },
            {
              "internalType": "uint256",
              "name": "expireTimestamp",
              "type": "uint256"
            }
          ],
          "internalType": "struct IMarketplace.Listing",
          "name": "validListing",
          "type": "tuple"
        }
      ],
      "stateMutability": "view",
      "type": "function"
    },
    {
      "inputs": [
        {
          "internalType": "uint256",
          "name": "_type",
          "type": "uint256"
        }
      ],
      "name": "getTokensByType",
      "outputs": [
        {
          "internalType": "contract IERC20",
          "name": "_token",
          "type": "address"
        }
      ],
      "stateMutability": "view",
      "type": "function"
    },
    {
      "inputs": [
        {
          "internalType": "address",
          "name": "contractAddress",
          "type": "address"
        },
        {
          "internalType": "uint256",
          "name": "tokenId",
          "type": "uint256"
        },
        {
          "internalType": "uint256",
          "name": "value",
          "type": "uint256"
        },
        {
          "internalType": "uint256",
          "name": "expireTimestamp",
          "type": "uint256"
        },
        {
          "internalType": "uint256",
          "name": "nftAmount",
          "type": "uint256"
        },
        {
          "internalType": "uint8",
          "name": "tokenType",
          "type": "uint8"
        }
      ],
      "name": "listToken",
      "outputs": [],
      "stateMutability": "nonpayable",
      "type": "function"
    },
    {
      "inputs": [
        {
          "internalType": "address",
          "name": "contractAddress",
          "type": "address"
        },
        {
          "internalType": "uint256",
          "name": "tokenId",
          "type": "uint256"
        },
        {
          "internalType": "uint256",
          "name": "value",
          "type": "uint256"
        },
        {
          "internalType": "uint256",
          "name": "expireTimestamp",
          "type": "uint256"
        },
        {
          "internalType": "uint256",
          "name": "nftCount",
          "type": "uint256"
        },
        {
          "internalType": "uint256",
          "name": "tokenType",
          "type": "uint256"
        },
        {
          "internalType": "uint256",
          "name": "paymentOption",
          "type": "uint256"
        }
      ],
      "name": "makeBidForToken",
      "outputs": [],
      "stateMutability": "payable",
      "type": "function"
    },
    {
      "inputs": [
        {
          "internalType": "address",
          "name": "contractAddress",
          "type": "address"
        }
      ],
      "name": "numTokenWithBids",
      "outputs": [
        {
          "internalType": "uint256",
          "name": "",
          "type": "uint256"
        }
      ],
      "stateMutability": "view",
      "type": "function"
    },
    {
      "inputs": [],
      "name": "owner",
      "outputs": [
        {
          "internalType": "address",
          "name": "",
          "type": "address"
        }
      ],
      "stateMutability": "view",
      "type": "function"
    },
    {
      "inputs": [],
      "name": "paymentToken",
      "outputs": [
        {
          "internalType": "address",
          "name": "",
          "type": "address"
        }
      ],
      "stateMutability": "view",
      "type": "function"
    },
    {
      "inputs": [],
      "name": "renounceOwnership",
      "outputs": [],
      "stateMutability": "nonpayable",
      "type": "function"
    },
    {
      "inputs": [
        {
          "internalType": "address",
          "name": "contractAddress",
          "type": "address"
        }
      ],
      "name": "royalty",
      "outputs": [
        {
          "components": [
            {
              "internalType": "address",
              "name": "recipient",
              "type": "address"
            },
            {
              "internalType": "uint256",
              "name": "feeFraction",
              "type": "uint256"
            },
            {
              "internalType": "address",
              "name": "setBy",
              "type": "address"
            }
          ],
          "internalType": "struct IRoyalty.CollectionRoyalty",
          "name": "",
          "type": "tuple"
        }
      ],
      "stateMutability": "view",
      "type": "function"
    },
    {
      "inputs": [],
      "name": "royaltyUpperLimit",
      "outputs": [
        {
          "internalType": "uint256",
          "name": "",
          "type": "uint256"
        }
      ],
      "stateMutability": "view",
      "type": "function"
    },
    {
      "inputs": [],
      "name": "serviceFee",
      "outputs": [
        {
          "internalType": "uint8",
          "name": "",
          "type": "uint8"
        }
      ],
      "stateMutability": "view",
      "type": "function"
    },
    {
      "inputs": [
        {
          "internalType": "address",
          "name": "contractAddress",
          "type": "address"
        },
        {
          "internalType": "address",
          "name": "newRecipient",
          "type": "address"
        },
        {
          "internalType": "uint256",
          "name": "feeFraction",
          "type": "uint256"
        }
      ],
      "name": "setRoyalty",
      "outputs": [],
      "stateMutability": "nonpayable",
      "type": "function"
    },
    {
      "inputs": [
        {
          "internalType": "address",
          "name": "contractAddress",
          "type": "address"
        },
        {
          "internalType": "address",
          "name": "newRecipient",
          "type": "address"
        },
        {
          "internalType": "uint256",
          "name": "feeFraction",
          "type": "uint256"
        }
      ],
      "name": "setRoyaltyForCollection",
      "outputs": [],
      "stateMutability": "nonpayable",
      "type": "function"
    },
    {
      "inputs": [
        {
          "internalType": "address",
          "name": "newOwner",
          "type": "address"
        }
      ],
      "name": "transferOwnership",
      "outputs": [],
      "stateMutability": "nonpayable",
      "type": "function"
    },
    {
      "inputs": [
        {
          "internalType": "uint256",
          "name": "_newUpperLimit",
          "type": "uint256"
        }
      ],
      "name": "updateRoyaltyUpperLimit",
      "outputs": [],
      "stateMutability": "nonpayable",
      "type": "function"
    },
    {
      "inputs": [
        {
          "internalType": "address",
          "name": "contractAddress",
          "type": "address"
        },
        {
          "internalType": "uint256",
          "name": "tokenId",
          "type": "uint256"
        }
      ],
      "name": "withdrawBidForToken",
      "outputs": [],
      "stateMutability": "nonpayable",
      "type": "function"
    }
  ],
  "bytecode": "0x60a0604052601460015560506002556005805461ffff19166114011790556107086006556301e133806007553480156200003857600080fd5b50604051620037bc380380620037bc8339810160408190526200005b91620000cd565b62000066336200007d565b60016004556001600160a01b0316608052620000ff565b600080546001600160a01b038381166001600160a01b0319831681178455604051919092169283917f8be0079c531659141344cd1fd0a4f28419497f9722a3daafe3b4186f6b6457e09190a35050565b600060208284031215620000e057600080fd5b81516001600160a01b0381168114620000f857600080fd5b9392505050565b60805161366962000153600039600081816102cf01528181610f4e01528181610f9a01528181610ff2015281816114d801528181611965015281816119dc0152818161242f01526124cf01526136696000f3fe6080604052600436106101ee5760003560e01c8063715018a61161010d578063b28f9871116100a0578063eb635ab81161006f578063eb635ab814610597578063ee8ef34d146105b7578063f2fde38b146105cd578063f8ad6f62146105ed578063feb884061461060d57600080fd5b8063b28f987114610524578063b6be53ba14610537578063cdea490d14610557578063cf6ac9531461057757600080fd5b80638da5cb5b116100dc5780638da5cb5b1461049957806390bc4e37146104b757806396f97164146104d7578063a3c0b5f01461050457600080fd5b8063715018a6146103f75780637a4e5cd21461040c578063861b69d61461041f5780638abdf5aa1461046f57600080fd5b806333549d3d116101855780635dc28a72116101545780635dc28a72146103815780636151e62e146103a157806366c1e8bf146103c15780636d0042b8146103e157600080fd5b806333549d3d1461031a578063453dfc5014610339578063528019651461034e57806355c338aa1461036157600080fd5b80632a24f46c116101c15780632a24f46c1461028b5780632c20d1b4146102935780633013ce29146102c057806330d527291461030757600080fd5b80630609d095146101f357806319d334cb146102155780631f77a820146102355780632426fc241461026b575b600080fd5b3480156101ff57600080fd5b5061021361020e366004612e75565b61062d565b005b34801561022157600080fd5b50610213610230366004612ea1565b61076a565b34801561024157600080fd5b50610255610250366004612e75565b6108b2565b6040516102629190612f2c565b60405180910390f35b34801561027757600080fd5b50610213610286366004612f3a565b610a23565b610213610a30565b34801561029f57600080fd5b506102b36102ae366004612f53565b610a44565b6040516102629190612f88565b3480156102cc57600080fd5b507f00000000000000000000000000000000000000000000000000000000000000005b6040516001600160a01b039091168152602001610262565b610213610315366004612fd6565b610b53565b34801561032657600080fd5b506006545b604051908152602001610262565b34801561034557600080fd5b5060075461032b565b61021361035c36600461302b565b610d48565b34801561036d57600080fd5b5061021361037c366004612ea1565b611174565b34801561038d57600080fd5b5061021361039c3660046130a1565b611295565b3480156103ad57600080fd5b506102ef6103bc366004612f3a565b61146f565b3480156103cd57600080fd5b506102b36103dc366004612e75565b611501565b3480156103ed57600080fd5b5061032b60015481565b34801561040357600080fd5b5061021361168e565b61021361041a3660046130fb565b6116a0565b34801561042b57600080fd5b5061043f61043a36600461313f565b611b5f565b6040805182516001600160a01b039081168252602080850151908301529282015190921690820152606001610262565b34801561047b57600080fd5b50600554610100900460ff1660405160ff9091168152602001610262565b3480156104a557600080fd5b506000546001600160a01b03166102ef565b3480156104c357600080fd5b506102556104d236600461315c565b611c50565b3480156104e357600080fd5b506104f76104f2366004612e75565b611cf1565b60405161026291906131de565b34801561051057600080fd5b5061021361051f366004612f3a565b611dba565b610213610532366004612fd6565b611dc7565b34801561054357600080fd5b506102136105523660046131fa565b611e8b565b34801561056357600080fd5b50610213610572366004612f3a565b611ea6565b34801561058357600080fd5b506102b3610592366004613217565b611eb3565b3480156105a357600080fd5b5061032b6105b236600461313f565b611fc9565b3480156105c357600080fd5b5061032b60025481565b3480156105d957600080fd5b506102136105e836600461313f565b611ff3565b3480156105f957600080fd5b5061021361060836600461325d565b61206c565b34801561061957600080fd5b50610213610628366004612e75565b6120f8565b6001600160a01b03808316600090815260086020908152604080832085845260059081018352818420338086526002918201855294839020835160e0810185528154815260018201549581019590955290810154909516918301829052600385015460608401526004850154608084015284015460a083015260069093015460c082015291146107185760405162461bcd60e51b815260206004820152602b60248201527f54686973206164647265737320646f65736e2774206861766520626964206f6e60448201526a103a3434b9903a37b5b2b760a91b60648201526084015b60405180910390fd5b81836001600160a01b03167fbedb4c1f4e6074aa37e86db18ac249a3a394f48b7d9766d0ab915724ee3e92b9836040516107529190612f2c565b60405180910390a361076583833361222e565b505050565b610772612344565b6002548111156107945760405162461bcd60e51b815260040161070f90613278565b600061079f84611b5f565b604001516001600160a01b03161461080a5760405162461bcd60e51b815260206004820152602860248201527f436f6c6c656374696f6e20726f79616c747920726563697069656e7420616c726044820152671958591e481cd95d60c21b606482015260840161070f565b604080516060810182526001600160a01b038085168083526020808401868152338587019081528985166000818152600390945292879020955186549086166001600160a01b03199182161787559151600187015551600290950180549590941694169390931790915591517fb6b61d78ac5372b51940cf3b322ea21839c456cade69acdf1b9fb9a6f79d6ff7906108a59085815260200190565b60405180910390a3505050565b6108ba612e1a565b506040805160e08101825282815260006020808301829052828401829052606083018290526080830182905260a08301829052600160c08401526001600160a01b038616825260088152838220858352600501905291822090919061091e9061239e565b905060005b81811015610a1b576001600160a01b0385166000908152600860209081526040808320878452600501909152812061095b90836123a8565b6001600160a01b0380881660009081526008602090815260408083208a84526005908101835281842085871685526002908101845293829020825160e08101845281548152600182015494810194909452938401549094169082015260038201546060820152600482015460808201529181015460a08301526006015460c08201529091506109ea87826123bb565b80156109fd575084602001518160200151115b15610a06578094505b50508080610a13906132e4565b915050610923565b505092915050565b610a2b612344565b600655565b610a3861256c565b610a426001600455565b565b60606000610a5185611fc9565b90508084108015610a625750600083115b15610b4b578281610a7382876132fd565b1115610a8657610a838583613310565b90505b8067ffffffffffffffff811115610a9f57610a9f613323565b604051908082528060200260200182016040528015610ad857816020015b610ac5612e1a565b815260200190600190039081610abd5790505b50925060005b81811015610b4857610b1887610250610af789856132fd565b6001600160a01b038b166000908152600860205260409020600301906123a8565b848281518110610b2a57610b2a613339565b60200260200101819052508080610b40906132e4565b915050610ade565b50505b509392505050565b60055460ff16610b755760405162461bcd60e51b815260040161070f9061334f565b6006548490610b844283613310565b1015610ba25760405162461bcd60e51b815260040161070f90613386565b600754610baf4283613310565b1115610bcd5760405162461bcd60e51b815260040161070f906133ca565b34955060006040518060e00160405280898152602001888152602001336001600160a01b03168152602001868152602001858152602001878152602001848152509050610c1a89826123bb565b610c595760405162461bcd60e51b815260206004820152601060248201526f109a59081a5cc81b9bdd081d985b1a5960821b604482015260640161070f565b6001600160a01b0389166000908152600860205260409020610c7e90600301896125c5565b506001600160a01b03891660009081526008602090815260408083208b84526005019091529020610caf90336125d1565b506001600160a01b0398891660009081526008602090815260408083209a835260059a8b01825280832033845260029081018352928190208451815591840151600183015583015191810180546001600160a01b03191692909b1691909117909955606081015160038a0155608081015160048a015560a08101519789019790975550505060c090930151600690940193909355505050565b610d5061256c565b610d5b8733866125e6565b610dc55760405162461bcd60e51b815260206004820152603560248201527f54686520746f6b656e206973206e6f7420617070726f76656420746f207472616044820152741b9cd9995c88189e481d1a194818dbdb9d1c9858dd605a1b606482015260840161070f565b6000610dd2888888611c50565b805190915087148015610de85750818160200151145b8015610e095750856001600160a01b031681604001516001600160a01b0316145b610e645760405162461bcd60e51b815260206004820152602660248201527f5468697320746f6b656e20646f65736e277420686176652061206d61746368696044820152651b99c8189a5960d21b606482015260840161070f565b6000610e6f89611b5f565b600001519050600080610e868b85602001516126a3565b9150915085600203610f20578360200151341015610eb65760405162461bcd60e51b815260040161070f9061340f565b6040840151610ed99082610eca8534613310565b610ed49190613310565b612728565b610ef4610eee6000546001600160a01b031690565b83612728565b6001600160a01b03831615801590610f0c5750600081115b15610f1b57610f1b8382612728565b61115d565b610f7684604001513383858860200151610f3a9190613310565b610f449190613310565b6001600160a01b037f000000000000000000000000000000000000000000000000000000000000000016929190612841565b610fc28460400151610f906000546001600160a01b031690565b6001600160a01b037f000000000000000000000000000000000000000000000000000000000000000016919085612841565b6001600160a01b03831615801590610fda5750600081115b1561101a57604084015161101a906001600160a01b037f000000000000000000000000000000000000000000000000000000000000000016908584612841565b8760010361108c576040808501519051632142170760e11b81526001600160a01b038d16916342842e0e916110559133918f90600401613451565b600060405180830381600087803b15801561106f57600080fd5b505af1158015611083573d6000803e3d6000fd5b505050506110f4565b6040808501519051637921219560e11b81526001600160a01b038d169163f242432a916110c19133918f908d90600401613475565b600060405180830381600087803b1580156110db57600080fd5b505af11580156110ef573d6000803e3d6000fd5b505050505b336001600160a01b03168a8c6001600160a01b03167feb7a83e956ddce547aa6303671a1fd94eb8f7fe7f317c03dc1657d2d7f373caa87868660405161113c939291906134ba565b60405180910390a461114e8b8b612899565b61115d8b8b866040015161222e565b5050505061116b6001600455565b50505050505050565b6002548111156111965760405162461bcd60e51b815260040161070f90613278565b60006111a18461293c565b90506001600160a01b03811633146111ec5760405162461bcd60e51b815260206004820152600e60248201526d21b7b73a3930b1ba1027bbb732b960911b604482015260640161070f565b604080516060810182526001600160a01b038086168083526020808401878152338587019081528a85166000818152600390945292879020955186549086166001600160a01b03199182161787559151600187015551600290950180549590941694169390931790915591517fb6b61d78ac5372b51940cf3b322ea21839c456cade69acdf1b9fb9a6f79d6ff7906112879086815260200190565b60405180910390a350505050565b60055460ff166112b75760405162461bcd60e51b815260040161070f9061334f565b60065483906112c64283613310565b10156112e45760405162461bcd60e51b815260040161070f90613386565b6007546112f14283613310565b111561130f5760405162461bcd60e51b815260040161070f906133ca565b60006040518060c00160405280888152602001878152602001336001600160a01b031681526020018581526020018460ff16815260200186815250905080600860008a6001600160a01b03166001600160a01b031681526020019081526020016000206002016000898152602001908152602001600020600082015181600001556020820151816001015560408201518160020160006101000a8154816001600160a01b0302191690836001600160a01b03160217905550606082015181600301556080820151816004015560a0820151816005015590505061142287600860008b6001600160a01b03166001600160a01b031681526020019081526020016000206000016125c590919063ffffffff16565b5086886001600160a01b03167fb2b0f1ec5cfcef29ee85821296b3a908b186c398343c1da82d2288c43d801d9f8360405161145d91906131de565b60405180910390a35050505050505050565b6000816002036114cd5760405162461bcd60e51b8152602060048201526024808201527f74797065203220697320666f722044656661756c7420706c6174666f726d205460448201526337b5b2b760e11b606482015260840161070f565b816001036114fc57507f0000000000000000000000000000000000000000000000000000000000000000919050565b919050565b6001600160a01b03821660009081526008602090815260408083208484526005019091528120606091906115349061239e565b90508067ffffffffffffffff81111561154f5761154f613323565b60405190808252806020026020018201604052801561158857816020015b611575612e1a565b81526020019060019003908161156d5790505b50915060005b81811015610a1b576001600160a01b038516600090815260086020908152604080832087845260050190915281206115c690836123a8565b6001600160a01b0380881660009081526008602090815260408083208a84526005908101835281842085871685526002908101845293829020825160e08101845281548152600182015494810194909452938401549094169082015260038201546060820152600482015460808201529181015460a08301526006015460c082015290915061165587826123bb565b15611679578085848151811061166d5761166d613339565b60200260200101819052505b50508080611686906132e4565b91505061158e565b611696612344565b610a4260006129a4565b6116a861256c565b6001600160a01b0380861660009081526008602090815260408083208884526002908101835292819020815160c08101835281548152600182015493810193909352928301549093169281019290925260038101546060830152600481015460808301526005015460a082015261171f86826129f4565b6117635760405162461bcd60e51b8152602060048201526015602482015274546f6b656e206973206e6f7420666f722073616c6560581b604482015260640161070f565b6000806117748884602001516126a3565b915091508360020361194d5782602001513410156117a45760405162461bcd60e51b815260040161070f9061340f565b60408301516117b89082610eca8534613310565b6117cd610eee6000546001600160a01b031690565b60006117d889611b5f565b5190506001600160a01b038116158015906117f35750600082115b15611802576118028183612728565b336001600160a01b0316888a6001600160a01b03167fb7d014c56c56a5dc44dc51f228368ee105a714dc6d74ae5af0d7613a35b2aa8e87878760405161184a939291906134db565b60405180910390a4856001036118c5576040808501519051632142170760e11b81526001600160a01b038b16916342842e0e9161188e919033908d90600401613451565b600060405180830381600087803b1580156118a857600080fd5b505af11580156118bc573d6000803e3d6000fd5b50505050611932565b886001600160a01b031663f242432a8560400151338b88606001516040518563ffffffff1660e01b81526004016118ff9493929190613475565b600060405180830381600087803b15801561191957600080fd5b505af115801561192d573d6000803e3d6000fd5b505050505b61193c8989612899565b61194789893361222e565b50611b4b565b6040830151602084015161198e916001600160a01b037f00000000000000000000000000000000000000000000000000000000000000001691339190612841565b6119a433610f906000546001600160a01b031690565b60006119af89611b5f565b5190506001600160a01b038116158015906119ca5750600082115b15611a0457611a046001600160a01b037f000000000000000000000000000000000000000000000000000000000000000016338385612841565b336001600160a01b0316888a6001600160a01b03167fb7d014c56c56a5dc44dc51f228368ee105a714dc6d74ae5af0d7613a35b2aa8e878787604051611a4c939291906134db565b60405180910390a485600103611ac7576040808501519051632142170760e11b81526001600160a01b038b16916342842e0e91611a90919033908d90600401613451565b600060405180830381600087803b158015611aaa57600080fd5b505af1158015611abe573d6000803e3d6000fd5b50505050611b34565b886001600160a01b031663f242432a8560400151338b88606001516040518563ffffffff1660e01b8152600401611b019493929190613475565b600060405180830381600087803b158015611b1b57600080fd5b505af1158015611b2f573d6000803e3d6000fd5b505050505b611b3e8989612899565b611b4989893361222e565b505b505050611b586001600455565b5050505050565b60408051606081018252600080825260208201819052918101919091526001600160a01b038281166000908152600360205260409020600201541615611be557506001600160a01b039081166000908152600360209081526040918290208251606081018452815485168152600182015492810192909252600201549092169082015290565b6000611bf08361293c565b90506001600160a01b03811615611c2c57604080516060810182526001600160a01b039092168252600154602083015260009082015292915050565b50506040805160608101825260008082526020820181905291810191909152919050565b611c58612e1a565b6001600160a01b0380851660009081526008602090815260408083208784526005908101835281842087861685526002908101845293829020825160e08101845281548152600182015494810194909452938401549094169082015260038201546060820152600482015460808201529181015460a08301526006015460c0820152611ce485826123bb565b15610b4b57949350505050565b611d336040518060c00160405280600081526020016000815260200160006001600160a01b031681526020016000815260200160008152602001600081525090565b6001600160a01b0380841660009081526008602090815260408083208684526002908101835292819020815160c08101835281548152600182015493810193909352928301549093169281019290925260038101546060830152600481015460808301526005015460a0820152611daa84826129f4565b15611db3578091505b5092915050565b611dc2612344565b600755565b60055460ff16611de95760405162461bcd60e51b815260040161070f9061334f565b6006548490611df84283613310565b1015611e165760405162461bcd60e51b815260040161070f90613386565b600754611e234283613310565b1115611e415760405162461bcd60e51b815260040161070f906133ca565b60006040518060e00160405280898152602001888152602001336001600160a01b03168152602001868152602001858152602001878152602001848152509050610c1a89826123bb565b611e93612344565b6005805460ff1916911515919091179055565b611eae612344565b600255565b60606000611ec086611fc9565b90508084108015611ed15750600083115b15611fc0578281611ee282876132fd565b1115611ef557611ef28583613310565b90505b8067ffffffffffffffff811115611f0e57611f0e613323565b604051908082528060200260200182016040528015611f4757816020015b611f34612e1a565b815260200190600190039081611f2c5790505b50925060005b81811015611fbd57611f8d88611f87611f6689856132fd565b6001600160a01b038c166000908152600860205260409020600301906123a8565b89611c50565b848281518110611f9f57611f9f613339565b60200260200101819052508080611fb5906132e4565b915050611f4d565b50505b50949350505050565b6001600160a01b0381166000908152600860205260408120611fed9060030161239e565b92915050565b611ffb612344565b6001600160a01b0381166120605760405162461bcd60e51b815260206004820152602660248201527f4f776e61626c653a206e6577206f776e657220697320746865207a65726f206160448201526564647265737360d01b606482015260840161070f565b612069816129a4565b50565b612074612344565b60198160ff1611156120dc5760405162461bcd60e51b815260206004820152602b60248201527f417474656d707420746f207365742070657263656e746167652068696768657260448201526a103a3430b71019171a929760a91b606482015260840161070f565b6005805460ff9092166101000261ff0019909216919091179055565b6001600160a01b0382811660009081526008602090815260408083208584526002908101909252909120015416331461217e5760405162461bcd60e51b815260206004820152602260248201527f4f6e6c7920746f6b656e2073656c6c65722063616e2064656c69737420746f6b60448201526132b760f11b606482015260840161070f565b6001600160a01b03821660008181526008602090815260408083208584526002019091529081902090518392917f816eddcd06fe0e27a14975f0fa6ca175ea858df3a8f4b0a9aff734da679d3b4a916122189190815481526001820154602082015260028201546001600160a01b03166040820152600382015460608201526004820154608082015260059091015460a082015260c00190565b60405180910390a361222a8282612899565b5050565b6001600160a01b0383166000908152600860209081526040808320858452600501909152902061225e9082612a09565b15610765576001600160a01b03808416600090815260086020908152604080832086845260059081018084528285209587168552600280870185529285208581556001810186905592830180546001600160a01b03191690556003830185905560048301859055908201849055600690910183905591859052526122e29082612a2b565b506001600160a01b038316600090815260086020908152604080832085845260050190915290206123129061239e565b600003610765576001600160a01b038316600090815260086020526040902061233e9060030183612a40565b50505050565b6000546001600160a01b03163314610a425760405162461bcd60e51b815260206004820181905260248201527f4f776e61626c653a2063616c6c6572206973206e6f7420746865206f776e6572604482015260640161070f565b6000611fed825490565b60006123b48383612a4c565b9392505050565b6000816080015160021480156123d5575060008260200151115b80156123e45750428260a00151115b156123f157506001611fed565b8160800151600114801561249f575060208201516040808401519051636eb1769f60e11b81526001600160a01b0391821660048201523060248201527f00000000000000000000000000000000000000000000000000000000000000009091169063dd62ed3e90604401602060405180830381865afa158015612478573d6000803e3d6000fd5b505050506040513d601f19601f8201168201806040525081019061249c91906134fb565b10155b801561253f5750602082015160408084015190516370a0823160e01b81526001600160a01b0391821660048201527f0000000000000000000000000000000000000000000000000000000000000000909116906370a0823190602401602060405180830381865afa158015612518573d6000803e3d6000fd5b505050506040513d601f19601f8201168201806040525081019061253c91906134fb565b10155b801561254f575060008260200151115b801561255e5750428260a00151115b15611fed5750600192915050565b6002600454036125be5760405162461bcd60e51b815260206004820152601f60248201527f5265656e7472616e637947756172643a207265656e7472616e742063616c6c00604482015260640161070f565b6002600455565b60006123b48383612a76565b60006123b4836001600160a01b038416612a76565b60008160010361266c5760405163e985e9c560e01b81526001600160a01b03848116600483015230602483015285919082169063e985e9c5906044015b602060405180830381865afa158015612640573d6000803e3d6000fd5b505050506040513d601f19601f820116820180604052508101906126649190613514565b9150506123b4565b60405163e985e9c560e01b81526001600160a01b03848116600483015230602483015285919082169063e985e9c590604401612623565b60008060006126b185611b5f565b6020015160055490915060009082906126d490610100900460ff166103e8613531565b61ffff166126e291906132fd565b60055490915081906126fc90610100900460ff168761354c565b612706919061356b565b935080612713838761354c565b61271d919061356b565b925050509250929050565b804710156127785760405162461bcd60e51b815260206004820152601d60248201527f416464726573733a20696e73756666696369656e742062616c616e6365000000604482015260640161070f565b6000826001600160a01b03168260405160006040518083038185875af1925050503d80600081146127c5576040519150601f19603f3d011682016040523d82523d6000602084013e6127ca565b606091505b50509050806107655760405162461bcd60e51b815260206004820152603a60248201527f416464726573733a20756e61626c6520746f2073656e642076616c75652c207260448201527f6563697069656e74206d61792068617665207265766572746564000000000000606482015260840161070f565b61233e846323b872dd60e01b85858560405160240161286293929190613451565b60408051601f198184030181529190526020810180516001600160e01b03166001600160e01b031990931692909217909152612ac5565b6001600160a01b03821660009081526008602052604090206128ce9082600081815260018301602052604081205415156123b4565b1561222a576001600160a01b0382166000818152600860208181526040808420868552600280820184529185208581556001810186905591820180546001600160a01b0319169055600382018590556004820185905560059091018490559390925290526107659082612a40565b6000816001600160a01b0316638da5cb5b6040518163ffffffff1660e01b8152600401602060405180830381865afa925050508015612998575060408051601f3d908101601f191682019092526129959181019061358d565b60015b611fed57506000919050565b600080546001600160a01b038381166001600160a01b0319831681178455604051919092169283917f8be0079c531659141344cd1fd0a4f28419497f9722a3daafe3b4186f6b6457e09190a35050565b600061253f83836040015184608001516125e6565b6001600160a01b038116600090815260018301602052604081205415156123b4565b60006123b4836001600160a01b038416612b97565b60006123b48383612b97565b6000826000018281548110612a6357612a63613339565b9060005260206000200154905092915050565b6000818152600183016020526040812054612abd57508154600181810184556000848152602080822090930184905584548482528286019093526040902091909155611fed565b506000611fed565b6000612b1a826040518060400160405280602081526020017f5361666545524332303a206c6f772d6c6576656c2063616c6c206661696c6564815250856001600160a01b0316612c8a9092919063ffffffff16565b8051909150156107655780806020019051810190612b389190613514565b6107655760405162461bcd60e51b815260206004820152602a60248201527f5361666545524332303a204552433230206f7065726174696f6e20646964206e6044820152691bdd081cdd58d8d9595960b21b606482015260840161070f565b60008181526001830160205260408120548015612c80576000612bbb600183613310565b8554909150600090612bcf90600190613310565b9050818114612c34576000866000018281548110612bef57612bef613339565b9060005260206000200154905080876000018481548110612c1257612c12613339565b6000918252602080832090910192909255918252600188019052604090208390555b8554869080612c4557612c456135aa565b600190038181906000526020600020016000905590558560010160008681526020019081526020016000206000905560019350505050611fed565b6000915050611fed565b6060612c998484600085612ca1565b949350505050565b606082471015612d025760405162461bcd60e51b815260206004820152602660248201527f416464726573733a20696e73756666696369656e742062616c616e636520666f6044820152651c8818d85b1b60d21b606482015260840161070f565b600080866001600160a01b03168587604051612d1e91906135e4565b60006040518083038185875af1925050503d8060008114612d5b576040519150601f19603f3d011682016040523d82523d6000602084013e612d60565b606091505b5091509150612d7187838387612d7c565b979650505050505050565b60608315612deb578251600003612de4576001600160a01b0385163b612de45760405162461bcd60e51b815260206004820152601d60248201527f416464726573733a2063616c6c20746f206e6f6e2d636f6e7472616374000000604482015260640161070f565b5081612c99565b612c998383815115612e005781518083602001fd5b8060405162461bcd60e51b815260040161070f9190613600565b6040518060e00160405280600081526020016000815260200160006001600160a01b03168152602001600081526020016000815260200160008152602001600081525090565b6001600160a01b038116811461206957600080fd5b60008060408385031215612e8857600080fd5b8235612e9381612e60565b946020939093013593505050565b600080600060608486031215612eb657600080fd5b8335612ec181612e60565b92506020840135612ed181612e60565b929592945050506040919091013590565b80518252602080820151908301526040808201516001600160a01b031690830152606080820151908301526080808201519083015260a0808201519083015260c090810151910152565b60e08101611fed8284612ee2565b600060208284031215612f4c57600080fd5b5035919050565b600080600060608486031215612f6857600080fd5b8335612f7381612e60565b95602085013595506040909401359392505050565b6020808252825182820181905260009190848201906040850190845b81811015612fca57612fb7838551612ee2565b9284019260e09290920191600101612fa4565b50909695505050505050565b600080600080600080600060e0888a031215612ff157600080fd5b8735612ffc81612e60565b9960208901359950604089013598606081013598506080810135975060a0810135965060c00135945092505050565b600080600080600080600060e0888a03121561304657600080fd5b873561305181612e60565b965060208801359550604088013561306881612e60565b969995985095966060810135965060808101359560a0820135955060c0909101359350915050565b803560ff811681146114fc57600080fd5b60008060008060008060c087890312156130ba57600080fd5b86356130c581612e60565b9550602087013594506040870135935060608701359250608087013591506130ef60a08801613090565b90509295509295509295565b600080600080600060a0868803121561311357600080fd5b853561311e81612e60565b97602087013597506040870135966060810135965060800135945092505050565b60006020828403121561315157600080fd5b81356123b481612e60565b60008060006060848603121561317157600080fd5b833561317c81612e60565b925060208401359150604084013561319381612e60565b809150509250925092565b80518252602080820151908301526040808201516001600160a01b031690830152606080820151908301526080808201519083015260a090810151910152565b60c08101611fed828461319e565b801515811461206957600080fd5b60006020828403121561320c57600080fd5b81356123b4816131ec565b6000806000806080858703121561322d57600080fd5b843561323881612e60565b9350602085013561324881612e60565b93969395505050506040820135916060013590565b60006020828403121561326f57600080fd5b6123b482613090565b60208082526036908201527f506c65617365207365742074686520726f79616c74792070657263656e74616e60408201527567652062656c6f7720616c6c6f7765642072616e676560501b606082015260800190565b634e487b7160e01b600052601160045260246000fd5b6000600182016132f6576132f66132ce565b5060010190565b80820180821115611fed57611fed6132ce565b81810381811115611fed57611fed6132ce565b634e487b7160e01b600052604160045260246000fd5b634e487b7160e01b600052603260045260246000fd5b6020808252601f908201527f4c697374696e6720616e642062696420617265206e6f7420656e61626c656400604082015260600190565b60208082526024908201527f506c6561736520656e7465722061206c6f6e67657220706572696f64206f662060408201526374696d6560e01b606082015260800190565b60208082526025908201527f506c6561736520656e74657220612073686f7274657220706572696f64206f666040820152642074696d6560d81b606082015260800190565b60208082526022908201527f5468652076616c75652073656e642069732062656c6f772073616c6520707269604082015261636560f01b606082015260800190565b6001600160a01b039384168152919092166020820152604081019190915260600190565b6001600160a01b0394851681529290931660208301526040820152606081019190915260a060808201819052600490820152630307830360e41b60c082015260e00190565b61012081016134c98286612ee2565b60e08201939093526101000152919050565b61010081016134ea828661319e565b60c082019390935260e00152919050565b60006020828403121561350d57600080fd5b5051919050565b60006020828403121561352657600080fd5b81516123b4816131ec565b61ffff818116838216019080821115611db357611db36132ce565b6000816000190483118215151615613566576135666132ce565b500290565b60008261358857634e487b7160e01b600052601260045260246000fd5b500490565b60006020828403121561359f57600080fd5b81516123b481612e60565b634e487b7160e01b600052603160045260246000fd5b60005b838110156135db5781810151838201526020016135c3565b50506000910152565b600082516135f68184602087016135c0565b9190910192915050565b602081526000825180602084015261361f8160408501602087016135c0565b601f01601f1916919091016040019291505056fea264697066735822122042f5b12cfe7ee0a80db9c0f390c463396099b9892b9b582a7c255f4c825cb8b864736f6c63430008100033",
  "linkReferences": {},
  "deployedLinkReferences": {}
}